:02000004C0D06A
:10000000B0B58CB062B6134C0021B022204601F08E
:10001000FBFD01F049FD01AD284604F089FF28856C
:1000200080B2002806D01028EED001F019FD002083
:100030000CB0B0BD01A801F03AFD01F0D9FF0020DD
:1000400004F00EFD012004F00BFD01F041F901F078
:1000500079FCC04680180020F0B581B0044600F05D
:1000600019F801280EDB0022094D7D441346E75C98
:10007000E618D1431F2F08D8E95D31705B1C83421D
:10008000F5DBE418002020700121084601B0F0BD26
:100090005E4F0000F0B587B0029106460020307038
:1000A0000392002A32D000200446069001900146B7
:1000B0000298049140180590019FFF2040006100C4
:1000C0000140317005980078B840C40901252C40E2
:1000D0000C4334700698C019401C052104F0C4FD7F
:1000E000002902D100247470761C7F1C082FE4D1F3
:1000F0000499491C06980830069003988142D7D18C
:100100000398C0002843052104F028FD07B0F0BD86
:100110000021C9431F2802D802497944095C0846D6
:100120007047C046AE4E00000022074B7B44995CEE
:10013000814205D00021C943521C202AF7DB00E090
:10014000114608467047C0469C4E0000F0B587B087
:10015000049203910027012261490691029005460D
:10016000384661A65FA1095C059529705401069B7C
:100170001C404B092343520E3D4601242146A94011
:100180001142394601D0A90071584B406D1C052D14
:10019000F3D1401C059D6D1C03281A46E2D15D0178
:1001A000069805405A0E002319464FA6204688405F
:1001B0001042184601D0880030584540491C052996
:1001C000F4D10026334668010699084045A1CF5C6A
:1001D0001F2105910F4007436A0E31462046884093
:1001E0001042354602D088003FA52D586F40491C6B
:1001F0000529F3D15B1C032B3D46E4D13120029944
:10020000C8700E1D30460399049AFFF725FF00259C
:10021000E94300282DDB01910496304604F0A2FE4C
:100220000290012827DB002204982FA60392049055
:100230000078FFF779FF00284DDB7901069A11401D
:10024000C2B24A40780E002117460A460123934065
:1002500003420B4601D09300F3585F40521C052A1D
:10026000F4D1039A521C0498401C02998A42DDDBA7
:1002700002E00C4630E00498049028467E0106997E
:100280000E40790E2A46234693400B422B4602D05D
:10029000930015A7FB585E40521C052AF3D1401C61
:1002A00006283746EAD166400025192704984019E8
:1002B00006903046F84005990840FFF729FF0028CE
:1002C00009DB069908707F1F6D1C062DEEDB0020F0
:1002D0000499485500E0019C204607B0F0BDC04697
:1002E000E0FFFF3F6F6E6500B2576A3B6D8E502690
:1002F000FA19A11EDD33423DB362142A70B50E46D1
:100300002F4D0024AC222846214601F07DFC022E10
:1003100052D20120002E00D02046049E2870A81C36
:1003200029A1112201F079FC2C4D2E487844286037
:10033000042068602C4878442861EC60032028760B
:10034000EC612846183002F09DFEE86102F01EFBC9
:1003500001F06EFE01F072FEAC602868002826D025
:10036000E8691F49884222D0002820D0002069680F
:1003700088421CD202F0E0FE002818D1A868E96883
:10038000382460432A681018002902D088470028C2
:1003900007D0012803D1A86844432868001900F059
:1003A000B1FFA868401CA86029680029DFD1306827
:1003B00010210143316070BD024801F0E2FCC046EB
:1003C00030190020016B0000446973706C61792062
:1003D000416464726573733F000000008018002060
:1003E000445010B0C04C0000B3000000F0B593B012
:1003F0003D49884209D03D49884272D14048002198
:1004000000F070FF00F064FF6BE000246E462046B1
:10041000314600F061FE3648314600F00DFF0927F5
:1004200038032A26314600F05DFF324DA81C3549BD
:1004300079443A4601F0F1FB2F46523738462C49B1
:10044000324601F0EAFB7C202C5428469F300C22D7
:10045000394601F0E2FBAB202C546C70264D2A4843
:100460007844286005206860284878442861284836
:100470007844E86003202876EC612846183002F0C2
:1004800001FEE86102F082FA01F0D2FD01F0D6FD32
:10049000AC602868002824D0E869184988421ED139
:1004A0001FE0686884421CD202F046FE002818D182
:1004B000A868E968382460432A681018002902D027
:1004C0008847002807D0012803D1A868444328683A
:1004D000001900F017FFA868441CAC6028680028C9
:1004E000DFD1002013B0F0BD0200008001000080C9
:1004F000701D00203019002080180020445010B0DA
:10050000856900009C4C0000784C0000A7000000AA
:10051000DD010000B0B5012808DD02284BD04649B6
:10052000884248D04549884205D083E04449884202
:100530007ED001287ED1434842780025002A2946F2
:1005400001D0511E4170C9B2411852319F300C2266
:1005500001F063FB01F06CFD01F070FD3A4CA56009
:100560002068002866D0E0693849884262D00028B7
:1005700060D00020616888425CD202F0DDFD002876
:1005800058D1A068E168382568432268101800290E
:1005900002D08847002807D0012803D1A06845432E
:1005A0002068401900F0AEFEA068401CA0602168E1
:1005B0000029DFD13EE0234841781D2901D8491C9C
:1005C0004170C9B2411852319F300C2201F025FB15
:1005D00001F02EFD01F032FD1B4C0020A0602168CF
:1005E000002927D0E169194A91421ED122E06168B1
:1005F00088421FD202F0A0FD00281BD1A068E1684C
:100600003825684322681018002902D0884700283E
:1006100007D0012803D1A06845432068401900F0A5
:1006200071FEA068401CA06021680029DFD101E0B4
:1006300000F04EFE0020B0BD02000040010000406E
:10064000030000803019002080180020445010B0B2
:100650004178022906D001290BD1064949780029A1
:1006600006D006E003494A7800211D2A00D8014639
:100670000846704730190020F0B583B01F4602923B
:100680003B4D00243B4A2846214601F0BDFA81201B
:100690008000019028183022214601F0B5FA01208F
:1006A000009046023A46AA536F1C3846029901F060
:1006B000B4FA892080002F50A85B4521C9006850FA
:1006C0000198009929548D208000281823210901C0
:1006D00068502948281829A1132201F09EFA2C4DB0
:1006E0002D4878442860042068602C4878442861AC
:1006F000EC6003202876EC612846183002F0C2FC3A
:10070000E86102F043F901F093FC01F097FCAC6062
:100710002868089E002824D0E8691E4988421ED116
:100720001FE0686884421CD202F006FD002818D140
:10073000A868E968382460432A681018002902D0A4
:100740008847002807D0012803D1A86844432868B7
:10075000001900F0D7FDA868441CAC602868002888
:10076000DFD1306810210143316003B0F0BDC046D5
:1007700030190020340400000B0400005369676E38
:10078000205472616E73616374696F6E3F00000084
:1007900080180020445010B00E4B0000B100000043
:1007A00070B53649884209D03549884263D13A4804
:1007B000002100F097FD00F08BFD5CE081208000BF
:1007C000304E301802F0B0F95720C0003418152010
:1007D0004001311814222046FFF7B8FC2A4830188F
:1007E0000C22214601F019FA2848002535543570AD
:1007F000274C2A48784420600520606028487844C7
:10080000206128487844E06003202076E561204696
:10081000183002F037FCE06102F0B8F801F008FC93
:1008200001F00CFCA5602068002824D0E06919497B
:1008300088421ED11FE0606885421CD202F07CFC19
:10084000002818D1A068E16838256843226810188C
:10085000002902D08847002807D0012803D1A068CA
:1008600045432068401900F04DFDA068451CA56077
:1008700020680028DFD1002070BDC0460200008043
:100880000100008030190020E2020000EE020000AA
:1008900080180020445010B085690000DC4A000038
:1008A000A70000000D040000F0B5B5B0012808DD78
:1008B000022855D0C749884252D0C749884207D03C
:1008C00084E1C649884200D18DE0012800D07DE155
:1008D000C4490878002500282A4601D0421E0A7023
:1008E000C6480818D2B289185722D20089180C229B
:1008F00001F093F901F09CFB01F0A0FBBD4CA56059
:100900002068002800D161E1E069BB49884200D13C
:100910005CE1002800D159E100206168884200D3E1
:1009200054E102F009FC002800D04FE1A068E16822
:100930003825684322681018002902D0884700280B
:1009400007D0012803D1A06845432068401900F072
:10095000D9FCA068401CA06021680029DDD135E1E8
:10096000A0490A781D2A01D8521C0A70A348081809
:10097000D2B289185722D20089180C2201F04DF901
:1009800001F056FB01F05AFB9A4C0020A060216850
:10099000002900D11AE1E169974A914220D115E17D
:1009A0006168884200D311E102F0C6FB002800D044
:1009B0000CE1A068E1683825684322681018002916
:1009C00002D08847002807D0012803D1A0684543FA
:1009D0002068401900F096FCA068401CA0602168C7
:1009E0000029DDD1F2E004A8002420250646214696
:1009F0002A4601F009F97A487A4A11187A48125CB5
:100A0000A81A3018354601F008F92CA8019002F018
:100A1000F2FB24A8039002F0EEFB1CA8029002F067
:100A2000EAFB14AE304602F0E6FB0CAF384602F0AB
:100A3000E2FB2846019D294602F0C3FB1194109465
:100A400013946A48129028463946029D2A46334636
:100A500002F0B5FF28463946039A334602F0AFFF4D
:100A6000634860490D184E2628462146324601F05B
:100A7000CBF80D2087015B490846C019694608601C
:100A80000A2103982A463346564E03F0EFF8347095
:100A9000F2590D2A4FD356483118D1208000301812
:100AA0000C2201F0BAF83520000100253554514CD4
:100AB00053487844206005206060524878442061A3
:100AC00051487844E06003202076E56120461830E4
:100AD00002F0D8FAE06101F059FF01F0A9FA01F043
:100AE000ADFAA5602068002870D0E06942498842CC
:100AF0001ED16BE06068854268D202F01DFB0028C1
:100B000064D1A068E168382568432268101800297C
:100B100002D08847002807D0012803D1A0684543A8
:100B20002068401900F0EEFBA068451CA560206815
:100B30000028DFD14AE02E483118D1208000351836
:100B4000284601F06AF8F0592C542A4D2F48784471
:100B50002860052068602E4878442861EC600320F6
:100B60002876EC612846183002F08CFAE86101F032
:100B70000DFF01F05DFA01F061FAAC602868002811
:100B800024D0E8691C4988421ED11FE0686884426D
:100B90001CD202F0D1FA002818D1A868E9683824DC
:100BA00060432A681018002902D08847002807D01F
:100BB000012803D1A86844432868001900F0A2FB6B
:100BC000A868441CAC6028680028DFD1002035B03C
:100BD000F0BDC0460200004001000040030000805C
:100BE00076020000301900209602000000CA9A3BED
:100BF000EF02000080180020445010B0E202000014
:100C0000624900007D010000A3030000DE490000EE
:100C10003D0300004178022906D001290BD1064985
:100C20000978002906D006E003490A7800211E2A27
:100C300000D001460846704730190020B0B50128A1
:100C400008DD022821D07D4988421ED07C49884297
:100C500006D0F1E07B4988422ED0012800D0EBE09D
:100C6000794802780021002A01D0511E01700D221E
:100C700092018258C9B24118784BC9180D2A72D313
:100C8000D122920080180C2270E00D2081016E4864
:100C9000425813460C3B0178994201D2491C01701D
:100CA000C9B241186D4BC9180D2A00D290E0D1226B
:100CB000920080180C228EE05320C000624D2A580A
:100CC000624828180024234600F0C5FAA7208000B7
:100CD0002A585F482818234600F0BDFA5D4D604849
:100CE00078442860052068605E4878442861EC609C
:100CF00003202876EC612846183002F0C3F9E86139
:100D000001F044FE01F094F901F098F9AC60286814
:100D1000002800D190E0E8694F49884220D18BE05B
:100D20006868844200D387E002F006FA002800D009
:100D300082E0A868E968382460432A68101800290E
:100D400002D08847002807D0012803D1A86844436F
:100D50002868001900F0D6FAA868441CAC6028681E
:100D60000028DDD168E0D1239B00C01800F055FFBA
:100D700001F05EF901F062F9364C0020A0602168B4
:100D8000002959D0E169344A91421ED154E061688A
:100D9000884251D202F0D0F900284DD1A068E16814
:100DA0003825684322681018002902D08847002897
:100DB00007D0012803D1A06845432068401900F0FE
:100DC000A1FAA068401CA06021680029DFD133E0AF
:100DD000D1239B00C01800F020FF01F029F901F099
:100DE0002DF91C4C0020A0602168002924D0E16965
:100DF000194A91421ED11FE0616888421CD202F05C
:100E00009BF9002818D1A068E1683825684322685A
:100E10001018002902D08847002807D0012803D1E4
:100E2000A06845432068401900F06CFAA068401C97
:100E3000A06021680029DFD10020B0BD0200004081
:100E40000100004003000080301900205103000021
:100E50005E03000080180020445010B0EF02000034
:100E6000644900009B0200004178022906D0012954
:100E70000FD10849097800290AD00AE00D2189011B
:100E8000044A53580C3B127800219A4200D2014682
:100E90000846704730190020B0B53149884209D062
:100EA0003049884259D13548002100F01BFA00F042
:100EB0000FFA52E05320C0002B4D2A582B48281817
:100EC0000024234600F0C7F9A72080002A582848AC
:100ED0002818234600F0BFF9264D29487844286099
:100EE00005206860274878442861EC600320287654
:100EF000EC612846183002F0C5F8E86101F046FDC3
:100F000001F096F801F09AF8AC602868002824D027
:100F1000E869194988421ED11FE0686884421CD2E2
:100F200002F00AF9002818D1A868E968382460435B
:100F30002A681018002902D08847002807D0012805
:100F400003D1A86844432868001900F0DBF9A868B9
:100F5000441CAC6028680028DFD10020B0BDC0462A
:100F600002000080010000803019002051030000C1
:100F70005E03000080180020445010B08569000016
:100F8000684700009F000000B0B52849884209D09A
:100F90002749884248D12948002100F0A3F900F0F0
:100FA00097F941E0234C2648784420600520606092
:100FB0002448784420610025E56003202076E5611F
:100FC0002046183002F05EF8E06101F0DFFC01F02D
:100FD0002FF801F033F8A5602068002824D0E069DC
:100FE000154988421ED11FE0606885421CD202F07C
:100FF000A3F8002818D1A068E16838256843226862
:101000001018002902D08847002807D0012803D1F2
:10101000A06845432068401900F074F9A068451C99
:10102000A56020680028DFD10020B0BD020000804C
:101030000100008080180020445010B08569000035
:10104000B44700009300000070B5ECB01549884229
:1010500005D01549884221D1174800211AE0012402
:10106000210202AD284601F05FFF60020F490B5AD2
:1010700020206A4650600E480E1816604A1C28460A
:10108000214601F035FF0B48314600F089F8092070
:101090000003412100F026F900F01AF900206CB09D
:1010A00070BDC046020000800100008030190020A1
:1010B0006B030000701D00208569000080B50548A5
:1010C000002101704170817009200003032100F0AC
:1010D00009F980BD701D0020F0B599B00D46044699
:1010E0001FA014A90CC80CC14CC84CC1002C01D1C4
:1010F000002D10D0002069460860212614A9052281
:101100000CAF30463B4601F08FFF202202AB304649
:10111000394601F039FF002D0CD021260021304640
:101120000A462B4601F018FF02AA01233046294641
:1011300001F042FF002C06D002A80EC80EC40EC853
:101140000EC42EC82EC40CA800242022214600F074
:101150005BFD02A82822214600F056FD19B0F0BD23
:101160002C000080FF0300800000008000000000D1
:1011700000000000F0B581B00C46C17846187779C0
:1011800031461C39202520462A4600F046FDF1193B
:101190001A39203420462A4600F03FFD01B0F0BD48
:1011A000F0B5A5B0049105900025109506AF38461E
:1011B0002946FFF791FF10A86946C8605020886053
:1011C00011AE4E60202008600B49032438462246A9
:1011D000049B01F009FF28223846294600F014FD3F
:1011E000109D3046059E3146FFF7C4FF2540402044
:1011F000355425B0F0BDC04601060000F0B5F7B08B
:1012000003910546012631020CAF384601F08CFEF1
:1012100020206946486004AC0C60093540233846FC
:1012200031462A4601F064FE0C341422039821460C
:1012300000F0F3FC77B0F0BDB0B586B0044601AD68
:1012400008462946FFF7DAFF142220462946FEF712
:101250007DFF06B0B0BDF0B583B01146194300293B
:101260002ED0029000240092174601931E46254678
:101270000A2238463146234603F0FCFC01220A2F9D
:1012800000D32246002E00D022466D1C002A0746BD
:101290000E46EDD0681E002810DB0298441E2E4634
:1012A0000199009F0A220023384603F0E3FC074619
:1012B00030201043A055761E002EF3DC029802E089
:1012C00030210170012500214155284603B0F0BDB1
:1012D00080B5034979440020024601F0C9FA80BD77
:1012E0001046000080B5020A054B5A544A1C92B2BF
:1012F0009854881C81B2202001F08EF880BDC04631
:10130000701D002080B500F0E7FF80BDF0B585B00E
:10131000F54D2878F54E0C282DDD0D287BD00E28B4
:1013200000D1B8E0152800D01DE1F148007801286F
:1013300003D1A879000700D4D9E2EE4C0120207631
:101340000025E5612046183001F09CFEE06101F0C7
:101350001DFBE069B04200D0FCE100F069FE00F046
:101360006DFEA5602068002800D1B7E2E069F84969
:1013700088424DD1B2E2052800D1CDE00C2800D042
:10138000F1E0F24C012020760026E661204618307C
:1013900001F078FEE06101F0F9FAE069EC49884279
:1013A00000D19BE2002800D198E2E749884200D0B2
:1013B00029E200F03DFE00F041FEA6602068002812
:1013C00000D18BE2E069E249884200D02CE185E25D
:1013D0006068854200D381E201F0AEFE002800D0B3
:1013E0007CE2A068E168382568432268101800296B
:1013F00002D08847002807D0012803D1A0684543C0
:101400002068401900F068FFA068451CA5602068AE
:101410000028DDD162E2CD4C012020760025E56177
:101420002046183001F02EFEE06101F0AFFAE069CD
:10143000C749884200D151E2C349884200D1B1E195
:10144000002800D14AE22068002800D140E2A068CC
:101450006168884200D33BE201F06EFE002800D0B4
:1014600036E2A068E1683825684322681018002930
:1014700002D08847002807D0012803D1A06845433F
:101480002068401900F028FFA068401CA060216877
:101490000029DDD11CE2AD4C012020760025E5615C
:1014A0002046183001F0EEFDE06101F06FFAE069CE
:1014B000B04200D0DEE000F0BBFD00F0BFFDA56053
:1014C0002068002800D109E2E069A149884220D1C2
:1014D00004E26068854200D300E201F02DFE00289E
:1014E00000D0FBE1A068E168382568432268101845
:1014F000002902D08847002807D0012803D1A0681E
:1015000045432068401900F0E7FEA068451CA5602F
:1015100020680028DDD1E1E1F74C0120207600268B
:10152000E6612046183001F0ADFDE06101F02EFAD1
:10153000E069F249884200D1D0E1002800D1CDE134
:10154000EC49884200D098E100F072FD00F076FD91
:10155000A6602068002800D1C0E1E069E749884220
:1015600000D084E0BAE1E44C012020760025E5615A
:101570002046183001F086FDE06101F007FAE069CD
:10158000B04200D0B8E000F053FD00F057FDA56078
:101590002068002800D1A1E1E069D849884220D123
:1015A0009CE16068854200D398E101F0C5FD002808
:1015B00000D093E1A068E1683825684322681018DC
:1015C000002902D08847002807D0012803D1A0684D
:1015D00045432068401900F07FFEA068451CA560C7
:1015E00020680028DDD179E16068864200D375E18A
:1015F00001F0A2FD002800D070E1A068E168382564
:10160000684322681018002902D08847002807D0B4
:10161000012803D1A06845432068401900F05CFE12
:10162000A068461CA66020680028DDD156E16068ED
:10163000864200D352E101F07FFD002800D04DE149
:10164000A068E1683825684322681018002902D094
:101650008847002807D0012803D1A06845432068A7
:10166000401900F039FEA068461CA66020680028DA
:10167000DDD133E16169002906D0642264290B467B
:1016800000D31346C91A61619C49884200D125E103
:10169000002800D122E12068002800D118E1A068CC
:1016A0006168884200D313E101F046FD002800D0B4
:1016B0000EE1A068E1683825684322681018002907
:1016C00002D08847002807D0012803D1A0684543ED
:1016D0002068401900F000FEA068401CA06021684E
:1016E0000029DDD1F4E0C04600180020555010B0AC
:1016F0007C1E0020801800202068002800D1E7E030
:10170000A0686168884200D3E2E001F015FD00287E
:1017100000D0DDE0A068E168382568432268101831
:10172000002902D08847002807D0012803D1A068EB
:1017300045432068401900F0CFFDA068401CA06020
:1017400021680029DDD1C3E0555010B08018002079
:10175000445010B02068002800D1B9E0A06861684A
:10176000884200D3B4E001F0E7FC002800D0AFE0ED
:10177000A068E1683825684322681018002902D063
:101780008847002807D0012803D1A0684543206876
:10179000401900F0A1FDA068401CA060216800294C
:1017A000DDD195E000F044FC00F048FCA560206825
:1017B000002800D192E0E0695049884220D18DE0B4
:1017C0006068854200D389E001F0B6FC002800D0B3
:1017D00084E0A068E1683825684322681018002971
:1017E00002D08847002807D0012803D1A0684543CC
:1017F0002068401900F070FDA068451CA5602068B5
:101800000028DDD16AE0A088049020680390EE797A
:10181000AB796F792A79ED78E168684605604160B7
:1018200012023A431B0233430398049900F086FCEA
:10183000206800284CD0A0686168884248D201F036
:101840007BFC002844D1A068E16838256843226801
:101850001018002902D08847002807D0012803D19A
:10186000A06845432068401900F036FDA068401C80
:10187000A06021680029DFD12AE02069002803D078
:10188000E978490800F06AFD2068002820D0A068A7
:10189000616888421CD201F04FFC002818D1A06872
:1018A000E1683825684322681018002902D088476B
:1018B000002807D0012803D1A068454320684019BB
:1018C00000F00AFDA068401CA06021680029DFD15B
:1018D0006068A168814201D301F02EFC01F02CFC6C
:1018E000002801D100F05AFA012005B0F0BD102007
:1018F00000F047FA555010B080180020445010B046
:10190000B0B50546072028400024012813D002283E
:1019100013D1002908D00A4801F0F8FB68B200286A
:1019200009DA01F0B9FA06E04120810004480022FA
:1019300001F018FC04462046B0BD022000F021FA58
:10194000701D0020F0B593B00025129511951095EB
:101950003E4E4048784403903F48784402900FA898
:10196000058004AC204603F0E3FA208581B200290B
:1019700011D010295CD004A90D850F210903014065
:1019800009221203914203D003225203914222D131
:101990000FA9088026E004A800F089F81198129099
:1019A0000024119410981299C0B289B200F034FD4D
:1019B00012901094129800283CD03078E0283CD146
:1019C00070780128039C1AD0082817D0022838D133
:1019D000224C7C4413E01E4908400D21C9020143FA
:1019E0000FA801800F9811994A1C1192000A705497
:1019F0000F9811994A1C119270540AE0029C337995
:101A0000F178B07811AA6F467A6010AA3A60721D18
:101A1000A04700F0BBF904A9884203D100F0B8F94F
:101A200000F045F804A8008D002898D000F0A9F92E
:101A300004A80585102000F0A4F93720400200F02A
:101A4000A0F96D20000200F09CF9C046701D002036
:101A5000FF07000065F7FFFF1BEDFFFF27E9FFFF12
:101A600010B58CB001AC204603F062FA20850D4918
:101A7000084206D101A800F01AF80020C04301F086
:101A8000EBFA00F083F901A9884203D100F080F954
:101A900000F00DF801A8008D002801D10CB010BD98
:101AA00000F06FF9FFFF000000208146704781467B
:101AB00070470000F0B581B000920F460546494BD3
:101AC0009F420FD0474C40262046314603F0DCF9B8
:101AD00000984028024600D332462046394600F09E
:101AE0009CF8404B987801280BDC00282AD001286C
:101AF0006AD1D81C04211C4601F0E2F9402120469D
:101B00002BE0022827D005285ED11879D978090260
:101B10000143354A1068002481425BD1334E00985E
:101B20008019071F106800281AD039463140304804
:101B30000268914200D907683A4632402D48006851
:101B4000591D31E000249C715C711C71DC704021D6
:101B50001846A8473EE023484021A847002439E022
:101B600098795979090201432348016001684122AB
:101B7000920091422ED801681D4801601D491F4AFC
:101B80000A6059781A7812020A431D490A601D49F1
:101B9000009A5718394631400268914200D90768C7
:101BA0003A463240D91D154800F037F83740114801
:101BB0000168C91901600E480168C91B01600A4823
:101BC00001460868401C0860094801680120022499
:101BD000002903D10448002101602046C0B201B0B1
:101BE000F0BDC046F01E0020641D0020FFFF000075
:101BF0006C1D0020741E0020681D0020701D002038
:101C0000781E0020F9FF010080B50B46002A03D0A2
:101C100011461A4603F03EF980BDB0B588420DD991
:101C2000002A14D0491E5242401E0023DB431C46AA
:101C300054430D5D0555521CF9D108E0002A06D029
:101C400000239CB20D5D05555B1C521EF9D1B0BD41
:101C50000148002101607047641D0020F0B581B08B
:101C6000294F3968002926D00090284C661D392557
:101C70003046294603F008F925480168090A217011
:101C8000006860700520A070224A1068000AE070A9
:101C90001068207111683868002914D014463B255B
:101CA0003B2800D83D681C48016830462A46FFF7AB
:101CB000B4FF009A18E0174800210160164801603F
:101CC000164801701DE01646392800D83D6838686E
:101CD000000A60713868A0710F480168E01D2A464B
:101CE000FFF79BFF009A34460B48016849190160D1
:101CF0003868401B38602068401C20600348402141
:101D0000904701B0F0BDC0466C1D0020F01E0020C1
:101D1000781E0020641D0020741E0020921E0020EA
:101D200080B500290BD0064A00231360054A064BF4
:101D30001360064A1160064A1160FFF78FFF80BDED
:101D4000641D0020741E0020701D00206C1D0020EA
:101D5000681D002070B5431E491E52420020C44336
:101D6000002A0CD0264656438D5D9E5D521CAE4225
:101D7000F6D00020C1430120AE4200D80846C0B2D0
:101D800070BD80B50146484603F0DEF8484670470E
:101D900000204946002900D04869704780B501F00D
:101DA000CBF900280BD10648602101700021417059
:101DB00002228270C1700171052101F0A7F980BD76
:101DC0000018002010B51948C078032807DC012846
:101DD0000DD0022826D1164802F0A5FA10BD04281D
:101DE0001DD008281ED1124802F09BFA10BD104CDD
:101DF0000121204602F090FA204602F06CFA0D48CC
:101E0000007800280FD10C48002407222146FFF754
:101E1000FBFE0A480E222146FFF7F6FE10BD0448DD
:101E200002F07DFA10BD1020FFF7ABFF0018002074
:101E3000381F00207C1E00207D1E0020841E0020F4
:101E40007F2101400148405C7047C0467D1E002054
:101E500010B515480179042917D0022906D00129A7
:101E600020D1811D124802F02FF910BDC2787F21C8
:101E70001140062916D8C9B24A000E4B00249C52C4
:101E8000821D0B4802F0AEF910BDC2787F211140CF
:101E9000062907D84279C9B2044B5A54821D044816
:101EA00002F041F910BDC046001800207D1E002040
:101EB000381F0020841E002070B515460E460446CB
:101EC000FF2D1AD80D4850210170E91C0A0A4270F2
:101ED000817080212143C17020210171457106214B
:101EE00001F014F93046294601F010F97F20204016
:101EF00040007D210901024A115270BD00180020E6
:101F0000841E002080B50A46014682201423FFF774
:101F1000D3FF80BD80B50E480178002916D10D4948
:101F200006220A700A2101700B4882784178090262
:101F300011438B0841229200412B00D31146074ADE
:101F400011801288C11C0648FFF767FE80BDC0469D
:101F5000921E00207C1E002000180020941E0020ED
:101F6000701D0020B0B51E488278417809021143E7
:101F700000780F2809DC0E280ED00F281FD1002072
:101F8000012926D1FFF71EFF22E010281BD01628BA
:101F900015D1FFF7BFFF1BE0002012490A1A9389F1
:101FA000002B09D06424642B1D4600D325465B1BFF
:101FB00093810D4A13420DD0801C0E28EED10220D1
:101FC000FFF7A4F9B0BD0020032902D3FFF740FFBB
:101FD0000120B0BD0548002101701020FFF7D1FE9F
:101FE00000180020841E0020FFFF0000921E002029
:101FF00010B5092000F03AFF074800240470074894
:10200000048007480470FFF723FE06480460064872
:1020100004600648046010BD921E0020941E00203B
:102020007C1E0020981E00209C1E0020A01E002068
:102030000148002101607047981E002002480021DD
:1020400001600248016070479C1E0020A01E002015
:10205000B0B50D460446206B00280CD000F098FC6B
:1020600001462046884700F093FC0021002810D04C
:10207000012800D00446002D07D02046A8470021A3
:10208000002806D0012800D004462046FFF73AF980
:1020900001210846B0BDB0B58EB00D460446606B58
:1020A00000280CD000F074FC01462046884700F060
:1020B0006FFC002100281BD0012800D00446002D11
:1020C00008D02046A8476C460021002810D00128DF
:1020D00000D004466D46382228462146FFF79DFD74
:1020E000606A0490A06A05902846FFF70BF9012169
:1020F00008460EB0B0BDB0B50D460446E06A0028F3
:102100000CD000F045FC01462046884700F040FC1A
:102110000021002810D0012800D00446002D07D04F
:102120002046A8470021002806D0012800D00446F8
:102130002046FFF7E7F801210846B0BDF0B587B0AB
:10214000029303920591002977D004900D98019095
:102150000C98009000253C4B06952F461E4600F03B
:10216000EBFF002855D138206843049C25183346DE
:102170001A680121954200D0069906912056002840
:1021800041DA2020285C0221695E0A1A039CA242DF
:1021900039DC4118EA888918039A8A4233DA042123
:1021A0006C5E221A02998A422DDC20182989401877
:1021B0000299814227DA1868854210D018680028F1
:1021C0000DD00198002805D028460199884733464C
:1021D000002818D018680199FFF73AFF08E0009826
:1021E000012809D002280ED128460199FFF783FF64
:1021F0003346002807D022E028460199FFF74BFF1D
:10220000334600281ED17F1CFDB205988542A5D318
:1022100000E03346069800060FD0186800280CD05E
:1022200000F08AFF3146002807D108680199FFF7BE
:102230000FFF002801D00020306007B0F0BD002063
:102240001860FAE71D60F8E7981E0020F0B589B025
:102250000C46014602AD1C2228460192FFF7DDFC28
:102260002168E98062682A81A0681A4F65233B7063
:1022700092B242438BB25343D9084E1C07221342F9
:1022800000D10E46314600910426864070181D305C
:10229000010A7970B8700321384600F037FF2846EC
:1022A000019900F033FFA06838700121384600F032
:1022B0002DFFE06800F06CFBB1B200F027FF009842
:1022C00085B2206900F064FB294600F01FFF09B0C9
:1022D000F0BDC0460018002070B5044620787F2667
:1022E000064000F029FF002830D1002E2ED0E069F2
:1022F00000281DD000F04CFB0546052E02D1A07E23
:10230000002824D0284602F02DFE064612486521FA
:10231000017031461C310A0A42708170032100F0BD
:10232000F5FE1C21204600F0F1FEB1B228460BE07C
:10233000094865210170002141701C258570032129
:1023400000F0E4FE2046294600F0E0FE70BD204685
:102350002946FFF77BFF70BD00180020F0B581B063
:102360000446002C2BD0174802688A4203D1164A33
:1023700013685B1C136006680E43134A1568134FFD
:10238000002901D0066004E00023036013607B1C79
:102390001E430068884201D000201060082D0BD336
:1023A0000321284602F060FC012080073043002909
:1023B00000D03046384000E030462946A04701B002
:1023C000F0BDC0469C1E0020A01E0020FFFFFF7F26
:1023D000F0B581B00F4E01243470B11C812047004C
:1023E0007A1C204600F07AFE054675707A1B771934
:1023F000F91C022000F072FEB8702D187619F470E6
:1024000000F056FE3071902070710020B071E81D10
:1024100001B0F0BD701D0020F0B583B0072210425E
:1024200006D00746F8B2FFF76BFA80B203B0F0BDF2
:102430000192584C584D074610E0902057490870BB
:102440004E70029A1743022101980242384605D085
:10245000E8E7FFF7BDFF0146304637461026064045
:102460000A04029049D0002E47D1207807280BD0CB
:102470000A280FD0002800D185E0F8B289B2FFF712
:102480003FFA002824D07EE089B24C487844FFF718
:1024900047FC1DE0FF2006308FB2874276D25320E2
:1024A0002870380A6870A9700321284600F02EFEB3
:1024B0003A48394600F02AFE0020207008E0FFF775
:1024C0006DFC80210022284600F04CFEFFF74AFDFB
:1024D00020780028F3D1002020703149087031495C
:1024E000088002998906A0D4FFF758FC02980106DB
:1024F00003D5012000F0B0FD0298002E05D1400662
:102500003CD400202070264908700020254908800E
:1025100000F012FE002801D1FFF740FC80270026C2
:1025200028463946324600F01DFE022806D8A97812
:102530006A7812020A43C01E904209D1FFF712FDC9
:1025400020780028E4D0174800880028E0D002E076
:1025500000202070DAE70422104814A1FFF7FAFBEC
:10256000002800D175E704220C4812A1FFF7F2FB06
:10257000002800D161E70B48008856E70948008829
:102580000949401851E70920FFF7FBFB0220FFF73C
:10259000F8FBC046921E002000180020701D00208D
:1025A0007C1E0020941E0020FBFF0000B0010000F4
:1025B00000000000B0A700000000000075FAFFFF57
:1025C000F0B581B007465F4C2546143538222846C1
:1025D0003946FFF722FB2169A068002903D088470C
:1025E0000346A06803E01C214143226853180026DB
:1025F000002810D02269411E002A0FD008460097FB
:1026000037462E461D4690472B4635463E46009F90
:102610000246A06806E03046324603E01C224A43E8
:1026200021688A186168491E884210D22169401CBD
:10263000002908D000951D461646884732462B468D
:10264000009D064603E01C21414320684618787827
:1026500040280ADC202822DC102834D0202867D12A
:102660005969002000296BD151E0802822DC4128E3
:1026700033D042285CD159690020002960D1D96843
:1026800000295DD16268511E012A59D0A2688A4290
:1026900056D0F168002953D13069206348E02128E1
:1026A00031D0222844D1194614315A690020002A19
:1026B0002FD145E0822835D0812839D1A16800206A
:1026C000002935D13CE0D9680020002938D02163A9
:1026D000587E00282CD0E0822AE059690020002989
:1026E0002ED1D96800292BD1A168002928D0616892
:1026F000012925D0D168002922D1516900291FD193
:102700001069206314E059690020002918D0194687
:10271000103108682063187E002809D0E082082064
:10272000A08505E06068A168421E0020914207D0A4
:10273000E268002A284603D0143418462146904700
:1027400001B0F0BDA41E0020F0B581B005463D4F9C
:102750003969B868002902D08847064603E01C2181
:1027600041433868461801243748854214DD37480C
:10277000854217D0364885421CD0364885425ED106
:102780003068002852D0B46800F002F90146FA68B7
:10279000204600F06DF851E02F4885420AD02A48C3
:1027A00085424CD17968B8684A1E002401219042C4
:1027B00005D344E00024E143B86800283FD0401826
:1027C000B860264800240460254804602548046059
:1027D000254DAC602868002831D0E869234988423B
:1027E0002DD000282BD0002420466968884226D2AC
:1027F00000F0A2FC002822D1A868E96838267043BE
:102800002A681018002902D08847002807D001281C
:1028100003D1A868464328688019FEF773FDA868AD
:10282000401CA86029680029DFD108E070680028F2
:1028300005D000F0ADF80146B06888470024204676
:1028400001B0F0BDA41E0020020000800200004084
:10285000010000400300008001000080981E00205D
:102860009C1E0020A01E002080180020445010B0A4
:10287000F0B583B002920D460190394E00200090D1
:102880007060002D15D03C4979441C2728463A46F3
:10289000FFF760FA00280CD0384C7C447068401C6C
:1028A00070607843281821463A46FFF753FA00280B
:1028B000F4D101990846013005D07068884200982B
:1028C00000D30846B060356000250298F06035619D
:1028D000244C2B48784420600920606029487844C3
:1028E000206129487844E06003202076E561204695
:1028F000183000F0C7FBE06100F048F81A480560A6
:102900001A4805601A480560A5602068002824D090
:10291000E069184988421ED11FE0606885421CD2D8
:1029200000F00AFC002818D1A068E1683825684347
:1029300022681018002902D08847002807D00128F3
:1029400003D1A068454320684019FEF7DBFCA0686E
:10295000451CA56020680028DFD103B0F0BDC0464B
:10296000A41E002080180020981E00209C1E00201D
:10297000A01E0020445010B0543300004233000029
:102980001031000067FEFFFFD9FCFFFF7047000019
:1029900080B50449884204D30349884201D200F03B
:1029A00005F880BD0000D0C0405DD0C07A46024925
:1029B000C91C891A401A7047AD29D0C070B500787B
:1029C00040B24723DB4347335DB20123B824A8421A
:1029D0001FDCC5B2A5421CD320460830C0B28542D8
:1029E00007D22E46B63E00208E4215D8E01CC0B25B
:1029F0000BE020464030C0B285420AD32E46F63E58
:102A000000208E4208D84334E0B2854201D900202C
:102A100000E001201070184670BDB0B514460546A0
:102A2000686AA04214D3002906D02A6A08461146D3
:102A30002246FFF7F2F8686A296A0919001B296221
:102A40006862687B002802D0A8680019A860B0BD41
:102A50000120FFF796F9F0B5017849B24724E44325
:102A6000473467B20124B826059DB94204DD002031
:102A700018600121116008E0C9B2B14209D20121F8
:102A800019600078803810600020287021460846C0
:102A9000F0BD37460837FFB2B9420BD2B6391960DC
:102AA000002129700378B92B0FDCB82B22D0B92B69
:102AB0001CD0ECE74036F6B2B1420BD201211960CE
:102AC0000078C03810602970E0E7BA2B23D0BB2B08
:102AD00016D0DCE7F639196001212970037800214E
:102AE000F92B09DCF82B05D0F92BD0D1817840786F
:102AF00000020EE0407815E0FA2B0CD0FB2BC6D17B
:102B00004178090683781B040B43C17809021943F5
:102B10000079084306E04178090483781B020B43DF
:102B2000C07818431060B1E7F0B587B0044620784C
:102B30000027092800D190E120460C300490201D88
:102B4000039026461436606A0127002800D184E1EC
:102B50000025EF43617B002960D10121019100280C
:102B600000D179E102950025226A1178521C401E9D
:102B700022626062607B002802D0A068401CA060D6
:102B8000E069421CE26120180175E16905AA30463E
:102B9000FFF714FF01280CD105A8027801210523B5
:102BA000002A084600D01846002A00D111460D43DD
:102BB00005E0E26901200021052A00D0084607212E
:102BC0000140002903D1606A0028CDD101E0052928
:102BD00020D1E80700D13FE168460499016006ABC7
:102BE0003046039AFFF737FF012800D033E1002079
:102BF00006990029014606D1216AC9192162616A34
:102C0000491C61620121A173A060E0610120607331
:102C1000029D03E00028029D00D01EE120780428D8
:102C200023DC022853DC012800D191E0022800D0E7
:102C300013E104980078002800D011E1039800689F
:102C4000212800D30CE1A16888420AD9401A626A9F
:102C5000824200D3024600212046FFF7DEFE606874
:102C6000A168814200D1C6E0CAE0062853DC0528ED
:102C700077D0062800D0F0E004980078002800D033
:102C8000EEE003980068052800D3E9E0A1688842D7
:102C900000D88FE00295401A626A824200D3024651
:102CA000E06A411868312046FFF7B7FE6068E16AC4
:102CB0000022002809D00B4668330022054617027F
:102CC0001A783A435B1C6D1EF9D18A6670E00328BE
:102CD00075D0042800D0C0E004980078002800D007
:102CE000BEE003980068212800D3B9E0A1688842BB
:102CF0000CD9401A626A824200D30246E06A411847
:102D000021312046FFF789FE6068A168814277D1B2
:102D1000E16A41226EE0072877D104980078002804
:102D200000D09DE003980068152800D398E0A168C2
:102D300088423FD9401A626A824200D30246E06A62
:102D400041186C312046FFF768FE6068A16831E0E9
:102D500004980078002800D182E060682061022099
:102D60004BE00498007800287AD103980068052881
:102D700076D2A16888421DD90295401A626A8242C1
:102D800000D30246E06A411864312046FFF745FE51
:102D90006068E16A0022002809D00B4664330022F3
:102DA000054617021A783A435B1C6D1EF9D14A6634
:102DB000A168029D814223D1E16A80221AE0049831
:102DC000007800284CD103980068212848D2A268D6
:102DD00090420BD9E16A8918801A626A824200D354
:102DE00002462046FFF719FE6068A268824207D1BA
:102DF000E16A202288542078401C207000206073F3
:102E0000207809282F4628D09DE6082825D1049847
:102E10000078002824D103980068212820D2A168D6
:102E200088420CD9401A626A824200D30246E06AA4
:102E3000411842312046FFF7F0FD6068A1688142E9
:102E40002F460AD1E16A622288542078401C207003
:102E50000027677301E00197019F384607B0F0BD76
:102E60000120FEF78EFF01DF7047000080B582B0C1
:102E7000009007486946FFF7F6FF01AA116005496F
:102E8000884201D102B080BD0420FEF77AFFC0461F
:102E900037010060C601009080B582B0064801A9E4
:102EA000FFF7E1FF6A4611600449884201D102B090
:102EB00080BD0420FEF765FF00020060F102009073
:102EC00080B584B001900291074801A9FFF7CBFFBC
:102ED00003AA11600549884202D1039804B080BD5D
:102EE0000420FEF74EFFC0462C05006067050090E9
:102EF00080B588B001AF0FC70A9805900B9806906F
:102F0000074801A9FFF7AFFF07AA116005498842EA
:102F100002D1079808B080BD0420FEF732FFC046FA
:102F20003B070060AD07009080B584B0019002912E
:102F3000074801A9FFF797FF03AA116005498842D6
:102F400002D1039804B080BD0420FEF71AFFC046EA
:102F5000CF100060D810009080B586B001AF0FC7C9
:102F6000074801A9FFF77FFF05AA116005498842BC
:102F700002D1059806B080BD0420FEF702FFC046CE
:102F8000ED2D0060492D009080B586B001AF0FC7D0
:102F9000074801A9FFF767FF05AA116005498842A4
:102FA00002D1059806B080BD0420FEF7EAFEC046B7
:102FB000EA2E0060632E009080B586B001AF0FC787
:102FC000074801A9FFF74FFF05AA1160054988428C
:102FD00002D1059806B080BD0420FEF7D2FEC0469F
:102FE0002E2F0060742F009080B58AB001AF0FC7FC
:102FF0000C9805900D9806900E9807900F980890E1
:10300000074801A9FFF72FFF09AA11600549884267
:1030100002D109980AB080BD0420FEF7B2FEC04676
:10302000F33800607638009080B586B000AF0FC7E7
:103030000898049006486946FFF715FF05AA116035
:103040000449884201D106B080BD0420FEF799FEF4
:10305000BA5300601E53009080B582B000900748BC
:103060006946FFF700FF01AA11600549884201D1B6
:1030700002B080BD0420FEF784FEC046E16200601D
:103080006F62009080B582B0009007486946FFF7F4
:10309000EAFE01AA11600549884202D1019802B0F6
:1030A00080BD0420FEF76DFE586400601F64009030
:1030B00080B582B0074801A9FFF7D5FE6A461160C6
:1030C0000549884202D1009802B080BD0420FEF775
:1030D00058FEC0466E6800607F68009080B584B07E
:1030E00000AB07C307486946FFF7BDFE03AA11609E
:1030F0000549884202D1039804B080BD0420FEF740
:1031000040FEC046D47000608770009080B584B0E7
:1031100001900291064801A9FFF7A5FE03AA1160DC
:103120000449884201D104B080BD0420FEF729FE85
:103130001C720060F372009080B582B0074801A94C
:10314000FFF791FE6A4611600549884202D1009856
:1031500002B080BD0420FEF714FEC046CF730060AD
:103160007F73009080B584B000AB07C30748694601
:10317000FFF779FE03AA11600549884203D103A82D
:10318000008804B080BD0420FEF7FBFDD174006010
:103190002B74009010B541790904027912060A4394
:1031A000817909021143C2790A43017809064378FB
:1031B0001B040B4381780C021C43C1782143104649
:1031C00010BDB0B50C460546FFF7E4FF03C4284622
:1031D0000830083CFFF7DEFFA060E16028461030B1
:1031E000FFF7D8FF2061616118352846FFF7D2FF4D
:1031F000A061E161B0BD80B5202101F045FE80BD38
:10320000F0B588B0802905D3002010605060906030
:10321000D06061E0002908D040290DD18168C068E4
:10322000002311605060936055E00AC80AC201682B
:103230004068506011604FE03F294FD8202304932D
:103240005F1A40235C1AC5682B460294E3400024B1
:10325000002F079400DA1C460195059428C88D407C
:103260001C460697FC402C430D46203D00931F460C
:10327000AF400838002D00DA274603978768029E82
:10328000F740049CA31B0493019E3446049B9C407E
:103290003C43069FFE40002F00DA2646009B8B40F1
:1032A000002D079C00DA1C463319059C039E7441CF
:1032B00018C283681C468C40083A002D00DA079437
:1032C000C468079890608C401846F8402043AB4093
:1032D000002D00DA0346D36008B0F0BD402993D03A
:1032E0000E46403E83681F46B7400D46603D0024B1
:1032F000002D079400DA3C46C7681460B740602090
:10330000411A1846C8403843AB40002D00DA034646
:10331000536007987BE7F0B595B014460E46054616
:10332000300A04D02021204601F0AEFD6EE0002ED0
:103330000ED0802E19D12869696903C4A869E9698A
:1033400061602060002060612061E060A0605DE05D
:1033500003CD03C42868696861602060A868E968D3
:10336000E160A060286969694DE07F2E50D810AAFD
:1033700028463146FFF744FF8020811B10350CAAF8
:10338000284600F054F812990E9A13980F9F53187C
:10339000784101210191002102939342019A039205
:1033A00000D30391B84200D30A46B84200D003923A
:1033B000109B0C9F119A01920D9AFB18019F7A4164
:1033C00001935F1C5141039B002B00D111460591D5
:1033D0000399002900D1019F049707900298069055
:1033E00004AA103228463146FFF70AFF04980599CF
:1033F00003C4069807996160206008980999E16004
:10340000A0600A980B99083CE161A06115B0F0BD7D
:10341000802E87D01035803E284631462246FFF761
:10342000EFFE002020616061A061E061EEE7F0B591
:1034300087B0802905D30020106050609060D06074
:103440007FE0002907D040290DD100215160116093
:103450000168406804E00AC80AC201684068083A86
:10346000D06091606DE03F294DD843680393CB4015
:103470000C46203C0026002C059600DA1E46856886
:10348000C368049300685660202302935B1A039F6D
:103490003E4606939E400346CB403343E740002C14
:1034A00000DA1F46176040235E1A03460096B340B9
:1034B000069E002E059E00DA1E460196049E3346A7
:1034C000069FBB40CD401D433346E340002C00DA4D
:1034D0002B46039F009EB740029DAE1B0546F5405C
:1034E0003D43069EB040002E00DA2846049DCD40A4
:1034F0002946002C019C00DA05911919059B4341CE
:103500009160D3601DE0402995D00D46403D436851
:103510001F46EF400E46603E0024002E069400DA5F
:103520003C460068D4606024611A1C468C40E84028
:103530002043F340002E00DA0346069810605060E6
:10354000936007B0F0BDF0B593B014460E46054643
:10355000300A04D02021204601F096FC73E0002EB2
:103560000ED0802E1BD103CD61612061286869686F
:10357000E161A0610020E060A0606060206062E026
:1035800003CD03C42868696861602060A868E968A1
:10359000E160A060286969696161206153E07F2E64
:1035A00043D802AA28463146FFF741FF284610308B
:1035B0000EAA3146FFF73BFF8020811B0AAA28464E
:1035C000FFF71EFE10990C9B11980D9D591868412C
:1035D0000126002201919942334600D31346A842A6
:1035E00000D31646A84200D033460E9D0A9E0F997E
:1035F0000B9F76194F41751C7A41002B00D13A463A
:103600000792002B00D1354606950990019E089639
:103610000299039B0AC40499059BE260083C224678
:1036200008322AC2E061A6610DE0802E92D0803E71
:103630002246103228463146FFF7F9FE002020606E
:103640006060A060E06013B0F0BD70B50468031D59
:103650000ECB1E460E43154625433543002D17D08D
:103660008020002D34D080205508DA072A436608D0
:10367000CD0735432E461643E4075B08234349082C
:103680000C461C433443401C002C2C46ECD11FE05C
:103690000469034614330ECB0846184325461543E8
:1036A00005430020002D13D000205508DA072A43D7
:1036B0006608CD0735432E461643E4075B082343CF
:1036C00049080C461C433443401C002C2C46ECD1CA
:1036D00070BDF0B5024609C91568546826465E40BB
:1036E0002F46474037430839002F1ED18868CB68E2
:1036F0009468D5685D4044402C43002C22D1086971
:103700004B691569546926465E402F46474037434A
:10371000002F0AD188699569012300248542184643
:1037200000D82046C969D26916E0012100228542ED
:10373000084600D810469C4200D811469C4212D040
:103740000846F0BD88689568012300248542184624
:1037500000D82046C968D2688A4200D823468A42E7
:1037600001D01846F0BDF0BD70B50D460446FFF718
:10377000B0FF01460120002927D103CD0CCC4B40DE
:1037800042401A430020083C083D002A1DD1A96888
:10379000EA68A368E66856404B403343002B14D1D7
:1037A00029696A692369666956404B403343002B97
:1037B0000BD1A869E969A269E3694B4042401A4309
:1037C00001200021002A00D0084670BDF0B592B05B
:1037D00011928A68CC688668C368B71A1D46A541ED
:1037E00001220024B742164600D826469D421746BD
:1037F00000D8274610929D4200D03E4628C984C872
:1038000008380839D31AAF410F94E4435A1E3D4695
:103810000E946541002E00D13D46119F07957D60B5
:10382000002E109C00D11A4602923A608A68836882
:10383000CD68C6689A1AAE410592BA600696FE60D7
:103840008D69CE698369C26904955D1B17460A9626
:10385000B7410D9300959D42234600D80F9B974298
:1038600000D80F9C1092974200D023460A694E69F7
:103870000469456909920F94A21A2C460896B5412D
:10388000561E0C960E9E6E41002B00D12E460E96B3
:10389000354603946540002B0C9E00D116463246F7
:1038A0000F9C62402A430B4618330B930346183390
:1038B0000C9310311030119B08330193002A16D15C
:1038C000012200250D9B009C9C42134600D92B46EB
:1038D000109EB742039C00D92A46109DAF4200D0EB
:1038E0001346002B119E079F049B13D03BE001223F
:1038F0000025A642134600D82B46039C0E9FA742E4
:10390000119E00D82A46A74200D01346002B079FDD
:10391000049B28D00022D243029B5B1E11933D469C
:103920005541059C069B1C43002C00D03D4675600C
:10393000002C119B00D0029B3360059B5B1E069CF4
:103940005441019A18C20B9A136852680A920C9C4F
:1039500022680D92626810920A680992496808917B
:1039600001680F9144680D9FF81A109D2B460A9923
:103970008B4101220021B842104600D80846AB42D4
:1039800000D80A46AB420F9B00D01046099A9A1AFB
:10399000089B9C41CB43511E6341002800D1234624
:1039A0007361002800D1114631610B9903C90C9B4A
:1039B0000CCB101A8B41B061F36112B0F0BDF0B5C1
:1039C000B7B01E4609920C46074616A8182101F00A
:1039D0005BFA002010901D90012013901C90384637
:1039E000FFF733FE05462046FFF72FFE06CF0A926B
:1039F0001F920B911E9139687A6807922192089163
:103A00002091B968FA68059223920691229139694A
:103A10007A690392259204912491281A149015949E
:103A20002046083F3946FFF754FE1EAB1D461835A9
:103A3000394618311C4610343A46103208330837DC
:103A4000012811D10B9830600A98706009CFF3609B
:103A5000B06005CA7261306103C9F161B0612021B3
:103A6000099801F011FAFFE0119412950193029662
:103A70002EAA159F3846149D2946FFF74CFC16A820
:103A800026AA2946FFF747FC2F9802460A9D6A405E
:103A90002E990B460B9E73401343002B324629D1BF
:103AA000309A1146089E714031980346079F7B402B
:103AB0000B43002B2FD1329A1146069E714033984A
:103AC0000346059F7B400B43002B24D134990120F2
:103AD0000022049B9942014600D81146359B039F62
:103AE000BB42029C099E00D81046BB4200D0014652
:103AF00000291FE09142139A1146109B00D91946E4
:103B0000A842099E00D91A46A84200D011460029B1
:103B1000029C11D01CE001210023B2420A4600D8C9
:103B20001A46B842029C099E00D81946B84200D0F5
:103B30000A46002A159F0BD001252EA829460246C9
:103B4000FFF701FD26A82946159F0246FFF7FBFC5B
:103B50001EA83946FFF708FE002701283D463B46D0
:103B600038463A4639461497139763D126AE304605
:103B700018300B9034461034083600201390109003
:103B80000F900E900D90074614900C901EA82EA931
:103B9000FFF7EAFD012822D12EA91EA80246FFF751
:103BA00015FE0B9903C9139A0A4313921499014302
:103BB000149103CC0F9A0A430F921099014310916C
:103BC00003CE0D9A0A430D920E9901430E91279848
:103BD0000C9901430C9126980743083E083C0125A7
:103BE0002EA829460246FFF7AEFC26A82946024623
:103BF000FFF7A9FC1EA81599FFF7B6FD002812983B
:103C00001199C3D102680492406803900868069035
:103C100048680590019801680891406807901F98CE
:103C20000A901E980B90029C099E109A0F990E9B69
:103C30000D980C9D37607560B360F0603261716102
:103C40001498B0611398F0610B9820600A98606036
:103C50000898A0600798E060069820610598606168
:103C60000498A0610398E06137B0F0BDF0B5A1B051
:103C70001C4615460E4606C81992189101684268FE
:103C80001B921A918168C2681D921C91016940695A
:103C90001F901E9110A8202101F0F6F808A8182105
:103CA00001F0F2F800200F9018A90A461832069287
:103CB0000A4610320592083107910E96B11E0E2960
:103CC00058D82698019010A818300390601E0490D0
:103CD000002002900446049884424AD808A918A8F3
:103CE00010AB0246FFF76BFE039800782249794437
:103CF000095C295506980CC8059F38682E467D68D2
:103D00001D43079F88CF2F43199D3D431043184300
:103D1000189A02432A433546601C002ADAD1002251
:103D20002A54002C069520D0069D2B7829702B55FF
:103D3000611E022919D3069909180591D34302245B
:103D40000493069E04990D465D43725D07920F46EB
:103D50006743059AD15D71550799D1555B1EC1180E
:103D6000491E651C8C422C46ECD301990860012049
:103D700000E0029821B0F0BD0A1F000002490020B7
:103D80000860024908607047301F0020341F00207F
:103D900010B507484F210170002444700121817043
:103DA0000221C1700421FFF7B1F9204610BDC046C1
:103DB0000018002070B582B06D464F262E7000248A
:103DC0006C700220A8700320E8702C710521284631
:103DD000FFF79CF92E706C700120A870E870042128
:103DE0002846FFF793F9204602B070BD10B582B0A7
:103DF00001A84F210170002444700121817002212B
:103E0000C1700421FFF782F9204602B010BD000006
:103E1000B0B582B00E48002404600E4804606846C5
:103E20004F2505704470052585700425C570012552
:103E300005714171032A02D8D000074CC44068467E
:103E40008471C3710821FFF761F9002002B0B0BD91
:103E5000301F0020341F00200104030210B582B07F
:103E600068464F22027000244470052282700422AA
:103E7000C2700122027141718471C4710821FFF77F
:103E800045F9204602B010BDB0B582B00D46684677
:103E9000502101700024447003218170C5704021BD
:103EA000017144710621FFF731F98020054201D1EB
:103EB000074800E0054801687F2215400122AA401A
:103EC0000A430260204602B0B0BDC046301F002049
:103ED000341F002070B582B00D4668465021017035
:103EE0000024447003218170C570802606714471DE
:103EF0000621FFF70BF9354201D1074800E00548DC
:103F000001687F2215400122AA40914301602046AA
:103F100002B070BD301F0020341F002080200142FD
:103F200001D0064800E0044800687F2211400122C9
:103F30008A400240D0B27047341F0020301F00205A
:103F400010B582B068464F220270002444700222ED
:103F500082700322C27001710521FFF7D7F8204655
:103F600002B010BDB0B582B01C461546684650225E
:103F70000270E21C130A43708270C170202101712B
:103F800044710621FFF7C2F828462146FFF7BEF824
:103F9000002002B0B0BD10B582B068465023037057
:103FA0000024447003238370C17030210171427179
:103FB0000621FFF7ABF8204602B010BD70B51546DC
:103FC0000E4604460220002C11D04D2081002046D0
:103FD00000F05AFF002E02D0112000012650FC20D4
:103FE0000121215425702046FFF7C8FE0020C0B2F1
:103FF00070BD70B50446FC2001212154452080008D
:1040000025180026F0002858002806D04068FEF742
:10401000BFFC0246217920469047761C032EF1D141
:104020002046FFF7E3FE2046FFF7B2FE002070BDFA
:104030000223002A07D00023022804D8C000081851
:10404000452189004250D8B2704780B5FFF7B2FED3
:10405000002080BDF0B581B00C46054645208000AB
:104060002F1800262846314600F07CF9002808D099
:10407000F00038580068FEF78BFC024628462146BF
:104080009047761C032EEDD1002001B0F0BDF0B5B5
:1040900081B00C460546452080002F180026284692
:1040A000314600F05FF9002808D0F0003858406829
:1040B000FEF76EFC0246284621469047761C032EEA
:1040C000EDD1002001B0F0BD70B504462120C6003E
:1040D000A519284600F0A7FBF420012121508720D4
:1040E0004000205AF8216050A15D1F20084002289E
:1040F00008D001280BD000280ED12046294600F018
:104100003FF90EE02046294600F002FB09E0204678
:10411000294600F0D8FA04E0802001402046FFF74D
:10412000B3FE002070BDF0B583B002920446019149
:1041300000291ED04520800025182646FC36002781
:104140002046394600F00EF900280ED0F800285815
:104150008069002809D03178032906D1FEF718FCC0
:10416000034620460199029A98477F1C032FE7D106
:1041700035E0F4202058032831D1902020588C219C
:10418000615822468C3281420AD9091A1160814253
:1041900000D301468AB22046029900F0C1FC1EE01D
:1041A0004520800026182746FC3700252046294652
:1041B00000F0D8F800280CD0E8003058006900283A
:1041C00007D03978032904D1FEF7E2FB01462046E7
:1041D00088476D1C032DE9D1204600F0A8FC002083
:1041E00003B0F0BDF0B581B00446009100291DD0A8
:1041F0004520800027182546FC35002620463146FC
:1042000000F0B0F800280DD0F000385840690028C0
:1042100008D02978032905D1FEF7BAFB02462046CB
:1042200000999047761C032EE8D151E0F4202058E5
:10423000022845D1E069256AA8420BD9401BE061FC
:1042400013210A01A1584919A15082B2204600F059
:1042500059FC35E0A6693046294600F005FDAE421E
:104260000FD300290DD1F82020582746F837864271
:1042700007D20025204629462A4600F043FC3D602F
:104280001EE04520800026182746FC3700252046E2
:10429000294600F067F800280CD0E8003058C068C4
:1042A000002807D03978032904D1FEF771FB0146B5
:1042B000204688476D1C032DE9D1204600F043FCC1
:1042C000012001026018615C012901D10021017007
:1042D000002001B0F0BD70B504469020402121506F
:1042E0002162FC2001212154452080002618002550
:1042F0002046294600F036F8002808D0E80030585B
:104300004068FEF745FB02462179204690476D1C28
:10431000032DEDD1002070BD0174002070470020F6
:1043200070470020704770B50446FC20205C0328CD
:1043300016D145208000261800252046294600F089
:1043400011F8002809D0E8003058C069002804D0CE
:10435000FEF71EFB0146204688476D1C032DECD15D
:10436000002070BD02460020022908D8C80010189D
:104370004521890041580120002900D10846704795
:1043800080B54A78042A08DD072A0FDC052A14D0F4
:10439000062A1BD100F021F81DE0002A10D0012AC6
:1043A00017D0032A12D100F03BF914E0082A0AD0F2
:1043B000092A0BD100F0C3F80DE000F09BF80AE0E9
:1043C00000F00BF907E000F0F1F804E000F071F9FB
:1043D00001E000F044F9002080BDB0B582B00D4688
:1043E00004466988080A052813DC01281CD0022825
:1043F00025D003283BD1C8B202283DDC002865D077
:1044000001286DD0022832D1112000012058C06847
:104410000EE006281ED0072826D00F2827D111200D
:1044200000012058C06903E01120000120580068F5
:10443000FEF7AEFA0246207C01A9904734E0452001
:1044400080002058002100282FD0217C002925D071
:10445000C06A24E0207C002809D145208000205833
:10446000002804D0406B1AE0207C00280FD02046A2
:10447000294600F01EF927E003282CD0042834D068
:104480000528F4D11120000120588069D0E745208B
:10449000800020580028EAD0006B00E0806AFEF718
:1044A00077FA014601A88847014601A80288002A38
:1044B0000AD0E888002807D0824200D3024601A82B
:1044C0000280204600F008FB02B0B0BD11200001C0
:1044D00020584068ACE71120000120580069A7E788
:1044E0001120000120588068A2E711200001205807
:1044F00040699DE770B50446888800280BD1C888BC
:10450000002808D148887F260640FC20205C2546EC
:10451000FC35032803D1204600F0CBF870BDFE2007
:104520002654F1B22046FFF70BFD204600F0FFFABB
:1045300002200121002E00D10846287070BD70B500
:104540000D460446AE78022E1DD2FC20215C20468A
:10455000FC30032907D0022915D1002E22D0666035
:104560000321017009E0002E12D06068864219D044
:10457000C1B22046FFF78BFD666020463146FFF74B
:1045800069FD02280ED12046294600F092F870BD40
:1045900002210170666020463146FFF778FD204613
:1045A00000F0C5FA204600F0C2FA70BD80B5CA8896
:1045B000012A0AD1FC22825C032A09D0022A04D1F2
:1045C000002181600146083103E000F072F880BDEF
:1045D000011D012200F080FA80BDB0B50446FC2028
:1045E000205CFE220240022A16D10120E060412018
:1045F0008000215825460C350320002905D020468F
:1046000000F0A1FAE16802200843E060022220469F
:10461000294600F061FAB0BD204600F04AF8B0BD6E
:10462000B0B50D4604466888012817D141208000A6
:1046300001212150287902280DD8C00020184521D9
:1046400089004058002806D08068FEF7A1F902468C
:10465000204629469047204600F069FAB0BDB0B523
:104660000D460446FC20205CFE21014002291BD19E
:10467000688801281CD14120800000212150287920
:1046800002280DD8C0002018452189004058002874
:1046900006D08068FEF77CF90246204629469047FE
:1046A000204600F044FAB0BD2046294600F001F84B
:1046B000B0BD10B504468021FFF7E6FB002120467F
:1046C000FFF7E2FB10BDB0B50D460446FC20205CB0
:1046D000032817D12879022814D8C00020184521B2
:1046E0008900405800280DD08068FEF751F9024635
:1046F000204629469047E888002807D1204600F048
:1047000016FA03E020462946FFF7D3FF0020B0BD8C
:1047100070B50D4604462878602101402E79202985
:1047200010D1022E0ED8F0002018452189004058E3
:10473000002807D08068FEF72BF90246204629465C
:1047400090476EE06878002817D001281ED0032813
:1047500067D1FC20205C03281CD16888002808D180
:1047600080203043802804D020463146FFF78CFB60
:104770002E79022E52D8F00043E0FC20205C032862
:1047800018D0022811D170060AD14AE0FC20205C22
:10479000032829D0022808D180203043802840D027
:1047A00020463146FFF770FB3BE020462946FFF7E5
:1047B00080FF36E0254614352046843080210E42A5
:1047C00000D1054620463146FFF7A8FB012100280D
:1047D00000D101467F2006403001295029180222CD
:1047E000204600F079F91CE06888002819D170068D
:1047F00014D020463146FFF76DFB287902280DD8EA
:10480000C0002018452189004058002806D0806843
:10481000FEF7BEF80246204629469047204600F0A3
:1048200086F9002070BD0A7802704A7842708A7852
:10483000CB781B02134343800A794B791B02134345
:1048400083808A79C97909021143C1807047F0B524
:1048500083B00D46044602A80027078001A8077010
:10486000297860200840002810D0202838D16878A6
:1048700001460A39022933D302281CD003281AD052
:1048800020462946FFF715FF022729E068780B2804
:1048900014D00A280FD0062822D16888000A0027E1
:1048A00021280FD022283A46394616D102AE30468A
:1048B00000F052F80AE001A901220EE0204600F0C3
:1048C00036F90DE002AE304600F032F8014632888B
:1048D000E888824200D302463280204600F0FCF88D
:1048E000F8B203B0F0BDF0B581B0044682210326D2
:1048F000402532462B46FFF78BFA022720463946E1
:1049000032462B46FFF784FA204639462A46FFF7FF
:1049100042FB002001B0F0BD10B504468221FFF734
:104920009DFA02212046FFF799FA002010BD0000F1
:10493000014643208000064A125C09230020002A19
:1049400000D003460B80002A01D10248784470470A
:10495000381F0020C0120000014643208000064A94
:10496000125C22230020002A00D003460B80002A7C
:1049700001D1024878447047381F0020A11200007E
:1049800080B5022903D103487844FDF767F9002078
:1049900080BDC04679D5FFFFB0B5144602291BD1B2
:1049A00002214022FFF7F7FA0C4D2878002813D196
:1049B0000220FDF745FA02460C4878442146FDF7EF
:1049C00079F8022808D101202870054807210170D4
:1049D00004480068044908800020B0BD7C1E002007
:1049E000921E0020681D0020941E002047D5FFFF66
:1049F00012200880014878447047C0469A1200008F
:104A000004200880014878447047C0469C1200008A
:104A10000E200880014878447047C046901200007C
:104A20000E200880014878447047C0468E1200006E
:104A30000A200880014878447047C0468C12000064
:104A40000E200880014878447047C0466E1200006E
:104A50000E200880014878447047C0465E1200006E
:104A600070B504464D208500104800212A46FDF708
:104A7000CBF8002C16D00D4C0026204631462A4695
:104A8000FDF7C2F80A49794420463246FFF796FA04
:104A9000084A7A4430462146FFF7CAFA2046FFF713
:104AA000D4FA70BD0148FFF7A4FA70BD381F00208A
:104AB000B2110000C611000029210180014878448C
:104AC0007047C0460E1200000A2101800148784458
:104AD0007047C0462A120000B0B50C46F4210223EC
:104AE00043508261C261132109014450016A8A4224
:104AF00000D30A4693B2002529462246FFF732FA30
:104B00002846B0BDB0B50C46016A8A4200D30A46B9
:104B100093B2002529462246FFF724FA2846B0BD65
:104B200010B500242146FFF736FA204610BD10B517
:104B3000F421042242500024214622462346FFF756
:104B400011FA204610BD10B5F42105224250002470
:104B500021462246FFF71FFA204610BD00224308D7
:104B60008B4274D303098B425FD3030A8B4244D335
:104B7000030B8B4228D3030C8B420DD3FF22090277
:104B800012BA030C8B4202D31212090265D0030B36
:104B90008B4219D300E0090AC30B8B4201D3CB032C
:104BA000C01A5241830B8B4201D38B03C01A52416E
:104BB000430B8B4201D34B03C01A5241030B8B4270
:104BC00001D30B03C01A5241C30A8B4201D3CB025B
:104BD000C01A5241830A8B4201D38B02C01A524140
:104BE000430A8B4201D34B02C01A5241030A8B4243
:104BF00001D30B02C01A5241CDD2C3098B4201D35B
:104C0000CB01C01A524183098B4201D38B01C01AD8
:104C1000524143098B4201D34B01C01A524103094F
:104C20008B4201D30B01C01A5241C3088B4201D3FE
:104C3000CB00C01A524183088B4201D38B00C01AAB
:104C4000524143088B4201D34B00C01A5241411AD2
:104C500000D20146524110467047FFE701B50020DF
:104C600000F006F802BDC0460029F7D076E770478D
:104C70007047C046002B11D1002A0FD1002900D166
:104C8000002802D00021C943081C07B4024802A131
:104C90004018029003BDC046D9FFFFFF03B4684629
:104CA00001B5029800F006F8019B9E4602B00CBCCC
:104CB0007047C046F0B54D46564644465F46F0B490
:104CC000924683B004000D0099468B422FD82CD019
:104CD0004946504600F0AEF829000600200000F0DA
:104CE000A9F8331A9846203B9B4600D574E05346FA
:104CF0005A4693401F005346424693401E00AF421F
:104D000029D826D05B46A41BBD41002B00DA79E0F0
:104D1000002200230092019301235A4693400193FD
:104D2000012342469340009319E08242D0D90022E9
:104D30000023009201930C9B002B01D01C605D604E
:104D40000098019903B03CBC90469946A246AB46F8
:104D5000F0BDA342D6D9002200230092019343461E
:104D6000002BE8D0FB0772081A4346467B080EE08A
:104D7000AB4201D1A2420CD8A41A9D4101202419B2
:104D80006D410021013E24184D41002E06D0AB425A
:104D9000EED9013E24196D41002EF8D15B460098F2
:104DA000019900196941002B22DB2B005A46D340A0
:104DB0002A004446E2401C005B461500002B2CDB19
:104DC00026009E40330026004746BE403200801A2F
:104DD000994100900191AEE7424620239B1A52462A
:104DE000DA40414613004A468A4017001F4382E7D3
:104DF000424620239B1A2A0046469A402300F3404D
:104E00001343D5E74246202300219B1A002200913C
:104E100001920122DA40019282E7424620232600D5
:104E20009B1ADE402F00B446974066463B00334352
:104E3000C9E7C04610B5002903D100F007F82030BB
:104E400002E0081C00F002F810BDC0461C2101233E
:104E50001B04984201D3000C10391B0A984201D35D
:104E6000000A08391B09984201D30009043902A23B
:104E7000105C40187047C0460403020201010101A2
:104E8000000000000000000010B5002200F002F851
:104E900010BDC046130010B50A00190000F002F85A
:104EA00010BDC04670B583073FD0541E002A3BD0CA
:104EB000CEB20300032503E0621E002C34D01400A0
:104EC00001335A1E16702B42F6D1032C24D9FF252C
:104ED0000D402A0215432A0415430F2C11D9260030
:104EE000103E3609013636011A009B1915605560CF
:104EF0009560D56010329342F8D10F221440032CF4
:104F00000AD9261FB6080136B6001A009B1920C21E
:104F10009342FCD103221440002C05D0C9B21C19C5
:104F2000197001339C42FBD170BD14000300CCE723
:104F3000F0C041464A4653465C466D4676467EC0C2
:104F40002838F0C80020704710307CC89046994639
:104F5000A246AB46B54608C82838F0C8081C00D1A0
:104F60000120184710B5830727D00378002B26D0DF
:104F70000300032102E01A78002A1CD001330B42FF
:104F8000F9D119680F4A104C8A188A4322420FD16E
:104F9000043319680B4A8A188A43224208D1043321
:104FA0001968084A8A188A432242F1D000E0013386
:104FB0001A78002AFBD1181A10BD0300E1E700207F
:104FC000FAE7C046FFFEFEFE8080808071707A7234
:104FD00079397838676632747664773073336A6EFD
:104FE00035346B686365366D7561376C00000000A1
:104FF000030000000000800020000000010000000D
:1050000000000000FFFFFF000000000000000000A3
:105010000000000000000000000000000000000090
:105020000000000000000000050003000C00070065
:105030000700000000000000FFFFFF00000000006C
:105040000000070000000000000000000000000059
:105050000000000000000000000000000000000050
:10506000050075000D0008000600000000000000AB
:10507000FFFFFF000000000000000600000000002D
:105080000000000000000000000000000000000020
:105090000000000000000000070000000C0080007D
:1050A0000C00000000000000FFFFFF0000000000F7
:1050B0000A800000321900200000000000000000FB
:1050C00000000000000000000000000000000000E0
:1050D000436F6D706172653A0000000003000000CC
:1050E000000080002000000001000000000000001F
:1050F000FFFFFF00000000000000000000000000B3
:10510000000000000000000000000000000000009F
:1051100000000000050103000C000700070000006C
:1051200000000000FFFFFF00000000000000090079
:10513000000000000000000000000000000000006F
:1051400000000000000000000000000005027500E3
:105150000D0008000600000000000000FFFFFF0037
:105160000000000000000A00000000000000000035
:10517000000000000000000000000000000000002F
:1051800000000000070000000C0080000C00000080
:1051900000000000FFFFFF00000000000A80000088
:1051A000D050D0C00000000000000000000000004F
:1051B00000000000000000000000000007000000E8
:1051C0001A0080000C00000000000000FFFFFF003C
:1051D000000000000A800000CF190020000000003D
:1051E00000000000000000000000000000000000BF
:1051F000000000000300000000008000200000000C
:105200000100000000000000FFFFFF0000000000A0
:10521000000000000000000000000000000000008E
:105220000000000000000000000000000500030076
:105230000C0007000700000000000000FFFFFF0057
:105240000000000000000700000000000000000057
:10525000000000000000000000000000000000004E
:1052600000000000050075000D00080006000000A9
:1052700000000000FFFFFF0000000000000006002B
:10528000000000000000000000000000000000001E
:105290000000000000000000000000000700000007
:1052A0000C0080000C00000000000000FFFFFF0069
:1052B000000000000A8000003B1D002000000000EC
:1052C00000000000000000000000000000000000DE
:1052D000000000000300000000008000200000002B
:1052E0000100000000000000FFFFFF0000000000C0
:1052F00000000000000000000000000000000000AE
:105300000000000000000000000000000501030094
:105310000C0007000700000000000000FFFFFF0076
:105320000000000000000900000000000000000074
:10533000000000000000000000000000000000006D
:1053400000000000050275000D00080006000000C6
:1053500000000000FFFFFF000000000000000A0046
:10536000000000000000000000000000000000003D
:105370000000000000000000000000000700000026
:105380000C0080000C00000000000000FFFFFF0088
:10539000000000000A800000EC53D0C000000000B4
:1053A00000000000000000000000000000000000FD
:1053B00000000000070000001A0080000C00000040
:1053C00000000000FFFFFF00000000000A80000056
:1053D000121C00200000000000000000000000007F
:1053E00000000000000000000000000053656E6433
:1053F00020746F20416464723A00416D6F756E7461
:105400003A0046726F6D2053686172643A00546FBF
:105410002053686172643A000300000000008000BD
:10542000200000000100000000000000FFFFFF005E
:10543000000000000000000000000000000000006C
:10544000000000000000000000000000000000005C
:10545000050103000C000700070000000000000029
:10546000FFFFFF0000000000000009000000000036
:10547000000000000000000000000000000000002C
:105480000000000000000000050275000D0008008B
:105490000600000000000000FFFFFF000000000009
:1054A00000000A00000000000000000000000000F2
:1054B00000000000000000000000000000000000EC
:1054C000070000000C0080000C000000000000003D
:1054D000FFFFFF00000000000A800000FA53D0C068
:1054E00000000000000000000000000000000000BC
:1054F0000000000000000000070000001A0080000B
:105500000C00000000000000FFFFFF000000000092
:105510000A800000741C0020000000000000000051
:10552000000000000000000000000000000000007B
:1055300003000000000080002000000001000000C7
:1055400000000000FFFFFF0000000000000000005E
:10555000000000000000000000000000000000004B
:105560000000000000000000050003000C00070020
:105570000700000000000000FFFFFF000000000027
:105580000000070000000000000000000000000014
:10559000000000000000000000000000000000000B
:1055A000050075000D000800060000000000000066
:1055B000FFFFFF00000000000000060000000000E8
:1055C00000000000000000000000000000000000DB
:1055D0000000000000000000070000000C00800038
:1055E0000C00000000000000FFFFFF0000000000B2
:1055F0000A800000FA53D0C0000000000000000044
:10560000000000000000000000000000000000009A
:10561000070000001A0080000C00000000000000DD
:10562000FFFFFF00000000000A800000741C002043
:10563000000000000000000000000000000000006A
:1056400000000000000000000300000000008000D7
:10565000200000000100000000000000FFFFFF002C
:10566000000000000000000000000000000000003A
:10567000000000000000000000000000000000002A
:10568000050003000C0007000700000000000000F8
:10569000FFFFFF0000000000000007000000000006
:1056A00000000000000000000000000000000000FA
:1056B0000000000000000000050075000D0008005B
:1056C0000600000000000000FFFFFF0000000000D7
:1056D00000000600000000000000000000000000C4
:1056E00000000000000000000000000000000000BA
:1056F000070000000C0080000C000000000000000B
:10570000FFFFFF00000000000A8000000254D0C02C
:105710000000000000000000000000000000000089
:105720000000000000000000070000001A008000D8
:105730000C00000000000000FFFFFF000000000060
:105740000A800000811C0020000000000000000012
:105750000000000000000000000000000000000049
:105760000300000000008000200000000100000095
:1057700000000000FFFFFF0000000000000000002C
:105780000000000000000000000000000000000019
:105790000000000000000000050003000C000700EE
:1057A0000700000000000000FFFFFF0000000000F5
:1057B00000000700000000000000000000000000E2
:1057C00000000000000000000000000000000000D9
:1057D000050075000D000800060000000000000034
:1057E000FFFFFF00000000000000060000000000B6
:1057F00000000000000000000000000000000000A9
:105800000000000000000000070000000C00800005
:105810000C00000000000000FFFFFF00000000007F
:105820000A8000000E54D0C00000000000000000FC
:105830000000000000000000000000000000000068
:10584000070000001A0080000C00000000000000AB
:10585000FFFFFF00000000000A8000008E1C0020F7
:105860000000000000000000000000000000000038
:10587000000000000000000000000000FFFFFF002B
:10588000E001FEC1FD387F06DF81FFC47FF3FFBC6E
:105890001FE7E7F13FF80778000000000E00000066
:1058A0000E000000010000007858D0C08058D0C021
:1058B00000000000FFFFFF00E001FEC1FF3870069E
:1058C000D8797E9E9FE7E7B901E6C0F13FF80778F7
:1058D000000000000E0000000E00000001000000AB
:1058E000B058D0C0B858D0C0000000000000000080
:1058F00000000000000000005859D0C06459D0C01A
:10590000000000009459D0C000000000000000001A
:10591000000000007059D0C000000000000000002E
:10592000000000005930D0C000000000D458D0C0A2
:105930007659D0C000000000321D000000000000B9
:105940000000000000000000000000000000000057
:10595000000000000000000057616974696E672054
:10596000666F7200636F6D6D616E64732E2E2E0014
:1059700041626F75740051756974206170700056D2
:10598000657273696F6E00312E302E300042616394
:105990006B0000000000000000000000000000009C
:1059A000000000007F59D0C08759D0C0000000001F
:1059B000E858D0C000000000000000009C58D0C093
:1059C0008D59D0C0000000003D28000000000000FC
:1059D00000000000000000000000000000000000C7
:1059E00000000000000000000380000000008000B4
:1059F000200000000100000000000000FFFFFF0089
:105A00000000000000000000000000000000000096
:105A10000000000000000000000000000000000086
:105A2000058103000E0007000400000000000000D4
:105A3000FFFFFF000000000000000B00000000005E
:105A40000000000000000000000000000000000056
:105A50000000000000000000058276000E00070034
:105A60000400000000000000FFFFFF000000000035
:105A700000000C000000000000000000000000001A
:105A80000000000000000000000000000000000016
:105A900007410E00030064000C000000000000003D
:105AA000FFFFFF00000000000A800000000000006F
:105AB00000000000000000000000000000000000E6
:105AC000000000000000000007420E0023006400F8
:105AD0000C00000000000000FFFFFF0000000000BD
