:02000004C0D06A
:10000000B0B58CB062B6164CFC21204607F0EEF875
:1000100006F0FEFE01F008FE6D46284607F080F966
:10002000A88585B26846002D0BD0002181850A98ED
:1000300004F0DAFE102DE7D001F0D6FD00200CB060
:10004000B0BD04F0D1FE0A9001F05AFF002006F086
:100050003DFC012006F03AFC01F0F2F901F026FD2A
:100060008018002070B5044600F018F801280DDB58
:100070000022094D7D441346E65CD1431F2E08D86B
:10008000A95DE1545B1C8342F6DBE418002020707C
:100090000121084670BDC04658730000F0B587B016
:1000A00003910346002018700092002A37D00022E6
:1000B000D54301270492002601970295069350002C
:1000C00018700399049A895CB14080220A40D109D2
:1000D00008180590187005243846214606F0ACFE35
:1000E0006043281802D0069B059A03E00022069B75
:1000F0005A705B1C7F1C6D1E761C082EDED1019F82
:100100000837029D083D0499491C009804918142DA
:10011000D1D10098C000401C052106F08DFE07B02B
:10012000F0BD00000021C9431F2802D802497944CC
:10013000095C08467047C0469E7200000022074BCB
:100140007B44995C814205D00021C943521C202A7E
:10015000F7D300E0114608467047C0468C72000095
:10016000F0B587B0039202910025012664497944D5
:100170000691644979440491019002460698415DD4
:100180000592117072015D4B1A4049095318720EA5
:100190000027049E394601242046884010423846F4
:1001A00000D030684340361D491C0529F3D16D1C31
:1001B000059A521C032D1E46E0D15D014F480540B3
:1001C0005A0E0021504878440B4626469E4016425F
:1001D0000E4600D006687540001D5B1C052BF4D14F
:1001E00000264A48784405900698805D1F210491B6
:1001F00008406901414A11400F186A0E0023059812
:100200001D462146A9401142194600D001684F40C1
:10021000001D6D1C052DF4D1761C032E3D46E3D147
:1002200031200199C8700E1D30460299039AFFF7DC
:1002300019FF0021CD4300285DDB304607F08AF826
:1002400005900128029524DB00253148784403906D
:100250003078FFF773FF00284CDB06967901274AB8
:100260001140C3B24B40780E0021039A1F460B4643
:1002700026469E4006420E4600D016687740121D64
:100280005B1C052BF4D16D1C069E761C05988542DF
:10029000DEDB069600201F49794405917D01174950
:1002A0000D407A0E0021059E0F462346BB401342A7
:1002B0000B4600D033685D40361D7F1C052FF4D1FE
:1002C000401C06282F46E9D1654000241926049FCA
:1002D0002846F0403840FFF725FF00280ADB069942
:1002E0000855761F641C062CF2D300200699085589
:1002F000012500E0029D284607B0F0BDE0FFFF3F6A
:100300007F720000807200002E72000010720000E8
:10031000A87100005C710000F0B581B00E46374D49
:100320000024AC222846214601F099FC012E59D028
:10033000002E60D1A81C34497944112201F079FCC7
:100340002C262F4F0425BD556420032139542F48F6
:100350007844B8622E4878443C637863BC6638467B
:10036000643004F0DBFC284604F04AFDB86601F076
:10037000E1FD01F0E1FDFC84284604F041FDB86692
:10038000B96A002930D000282ED097282CD0F88CBC
:10039000AA24B95D80B2884226D204F0FDFC002870
:1003A00022D104F085FCA04203D104F0ABFCA042B2
:1003B0001AD1B86AF98C49014018396B002902D06A
:1003C0008847002807D0012803D1B86AF98C490171
:1003D000401801F04FF8F88C401CF884B96A0029E5
:1003E000D7D101E000F07AF90698016810220A439B
:1003F000026001B0F0BD034801F04EFC7C19002002
:1004000080180020016B0000D0700000D470000044
:10041000BB000000F0B581B04049884209D0404996
:10042000884277D14248002101F014F801F008F821
:1004300070E000F053F93B4DA81C3E497944092275
:1004400001F0F7FB2C46523437492A22204601F0AE
:10045000F0FB7C2000272F5428469F300C22214699
:1004600001F0E7FBAB202F542C22304E0520B05476
:100470006420032131546F7015462F487844B062D0
:100480002E4878442E49794431637063B76630460C
:10049000643004F043FC0424204604F0B1FCB06650
:1004A00001F048FD01F048FDF784204604F0A8FC67
:1004B000B066B16A00292DD000282BD0972829D00A
:1004C000F08CAA24715D80B2884223D204F064FCCF
:1004D00000281FD104F0ECFBA04203D104F012FC71
:1004E000A04217D1B06AF18C49014018316B002944
:1004F00002D08847002807D0012803D1B06AF18CC8
:100500004901401800F0B6FFF08C401CF084B16A3D
:100510000029D7D1002001B0F0BDC0460200008004
:10052000010000807C190020A820002080180020F5
:1005300085690000DD6F000028700000BF0000002A
:100540002B020000B0B5012808DD022859D054491B
:10055000884256D05349884207D09FE0524988428A
:1005600000D199E0012800D098E05048417800255A
:1005700000292A4602D0491E4170CAB28118523160
:100580009F300C2201F055FB01F0D4FC01F0D4FCAB
:10059000474CE584042004F033FCA066A16A0029DE
:1005A0007CD000287AD0972878D0E08CAA252C21FE
:1005B000615C80B2884271D204F0EEFB00286DD1FC
:1005C00004F076FBA84203D104F09CFBA84265D15D
:1005D000A06AE18C49014018216B002902D08847AC
:1005E000002807D0012803D1A06AE18C49014018F6
:1005F00000F040FFE08C401CE084A16A0029D6D1C5
:100600004CE02A4841781D2901D8491C4170C9B2E3
:10061000411852319F300C2201F00BFB01F08AFC93
:1006200001F08AFC224C0020E084042004F0E8FB66
:10063000A066A16A002931D000282FD097282DD09C
:10064000E08CAA252C21615C80B2884226D204F07D
:10065000A3FB002822D104F02BFBA84203D104F015
:1006600051FBA8421AD1A06AE18C49014018216BC4
:10067000002902D08847002807D0012803D1A06AAA
:10068000E18C4901401800F0F5FEE08C401CE0844C
:10069000A16A0029D6D101E000F0D2FE0020B0BD51
:1006A0000200004001000040030000807C1900208F
:1006B000801800204178022906D0012903D106497B
:1006C0004978002906D0704703494A7800211D2A3D
:1006D00000D80146084670477C19002010B594B038
:1006E000002001AC214600F0B3FD0548214600F092
:1006F00053FE092000032A2100F0ACFE14B010BD07
:10070000A8200020F0B583B01F460192434D00247D
:100710000294434A2846214601F0A1FA8120800034
:10072000009028183422214601F099FA012466022B
:100730003A46AF536F1C3846019901F07AFA4520CA
:10074000C0002F5000982C544720C00028188D213D
:1007500089006850A85B8B218900685031482818AF
:1007600032497944132201F064FA2C262E4F0425D5
:10077000BD556420032139542D487844B8622D4872
:100780007844029C3C637863BC663846643004F06D
:10079000C5FA284604F034FBB86601F0CBFB01F043
:1007A000CBFBFC84284604F02BFBB866B96A089C96
:1007B00000292DD000282BD0972829D0F88CAA25E5
:1007C000B95D80B2884223D204F0E6FA00281FD136
:1007D00004F06EFAA84203D104F094FAA84217D1AB
:1007E000B86AF98C49014018396B002902D0884752
:1007F000002807D0012803D1B86AF98C49014018B4
:1008000000F038FEF88C401CF884B96A0029D7D172
:10081000206810210143216003B0F0BD7C19002045
:10082000EC050000C305000080180020E26D000008
:100830000A6E0000B5000000F0B581B03F49884263
:1008400009D03F49884276D14248002100F002FE9B
:1008500000F0F6FD6FE0812080003A4F381801F07B
:100860006BFF472000013C18D32080003918142268
:100870002046FFF775FC344838180C22214601F059
:10088000D8F9324800253D542C210091304E0520E6
:1008900070546420032131543D702F487844B06275
:1008A0002E4878442E49794431637063B5663046EA
:1008B000643004F033FA0424204604F0A1FAB06650
:1008C00001F038FB01F038FBF584009D204604F070
:1008D00097FAB066B16A00292DD000282BD097284E
:1008E00029D0F08CAA24715D80B2884223D204F012
:1008F00053FA00281FD104F0DBF9A04203D104F021
:1009000001FAA04217D1B06AF18C49014018316B4D
:10091000002902D08847002807D0012803D1B06AF7
:10092000F18C4901401800F0A5FDF08C401CF084CA
:10093000B16A0029D7D1002001B0F0BD02000080CB
:10094000010000807C1900209A040000A604000029
:100950008018002085690000686D0000BF0000005D
:100960003B040000F0B589B0012808DD022862D000
:10097000CD4988425FD0CD49884207D08EE1CC492D
:10098000884200D1ABE0012800D087E1CA4908784D
:10099000002500282A4602D0401E0870C2B2CB486B
:1009A000081889184722120189180C2201F041F910
:1009B00001F0C0FA01F0C0FAC34CE584042004F051
:1009C0001FFAA066A16A002900D167E1002800D1C2
:1009D00064E1972800D161E1E08CAA252C21615CBB
:1009E00080B2884200D359E104F0D6F9002800D043
:1009F00054E104F05DF9A84204D104F083F9A8425F
:100A000000D04BE1A06AE18C49014018216B00291C
:100A100002D08847002807D0012803D1A06AE18CC2
:100A20004901401800F026FDE08C401CE084A16ADA
:100A30000029D3D132E1A0490A781D2A01D8521CDD
:100A40000A70A2480818D2B28918472212018918E0
:100A50000C2201F0EEF801F06DFA01F06DFA9A4CFB
:100A60000020E084042004F0CBF9A066A16A0029EC
:100A700000D113E1002800D110E1972800D10DE149
:100A8000E08CAA252C21615C80B2884200D305E16C
:100A900004F082F9002800D000E104F009F9A8422E
:100AA00004D104F02FF9A84200D0F7E0A06AE18C4D
:100AB00049014018216B002902D08847002807D03F
:100AC000012803D1A06AE18C4901401800F0D2FC52
:100AD000E08C401CE084A16A0029D3D1DEE001AEA5
:100AE00000212025304600912A4601F0B8F87148CF
:100AF000714F391871483A5CA81A301801F099F80A
:100B00006F483D189F20C4003B194E2230462946AD
:100B100004F058FE002800D1C3E0009838703A591C
:100B200068480D2A60D338180C22294601F081F854
:100B3000A120C000009C3C542C26634F0520B855D2
:100B400064200321395462487844B862614878448B
:100B50006149794439637863BC663846643004F08F
:100B6000DDF80425284604F04BF9B86601F0E2F9F7
:100B700001F0E2F9FC84284604F042F9B866B96A4B
:100B8000002900D18AE0002800D187E0972800D111
:100B900084E0F88CAA24B95D80B288427ED204F049
:100BA000FBF800287AD104F083F8A04203D104F0C6
:100BB000A9F8A04272D1B86AF98C49014018396B82
:100BC000002902D08847002807D0012803D1B86A3D
:100BD000F98C4901401800F04DFCF88C401CF88459
:100BE000B96A0029D7D159E03E183046294601F0AC
:100BF00020F83859009C34542C26334F0520B85522
:100C000064200321395435487844B8623448784424
:100C10003C637863BC663846643004F07FF8042592
:100C2000284604F0EDF8B86601F084F901F084F983
:100C3000FC84284604F0E4F8B866B96A00292DD08F
:100C400000282BD0972829D0F88CAA24B95D80B22F
:100C5000884223D204F0A0F800281FD104F028F81D
:100C6000A04203D104F04EF8A04217D1B86AF98C23
:100C700049014018396B002902D08847002807D065
:100C8000012803D1B86AF98C4901401800F0F2FB41
:100C9000F88C401CF884B96A0029D7D1002009B02B
:100CA000F0BD032000F0F8FF02000040010000400A
:100CB000030000807A0200007C1900209A020000E4
:100CC000A7040000FC040000801800209A04000023
:100CD0005C6B0000BB010000430400003C6B0000A3
:100CE000B70300004178022906D0012903D1064943
:100CF0000978002906D0704703490A7800211E2A86
:100D000000D00146084670477C190020F0B581B03C
:100D1000012808DD022821D0944988421ED0944938
:100D2000884206D01EE1934988422DD0012800D088
:100D300018E1914802780021002A02D0511E01706A
:100D4000C9B24118904A89189F22D20082580D2AB0
:100D500000D284E08D4A80180C2282E09F20C100DE
:100D60008548425813460C3B01788B4202D9491CF6
:100D70000170C9B24118844BC9180D2A00D2B0E0E5
:100D8000824A80180C22AEE00D2080017A4D2A584C
:100D90007A4828180024234600F00DFBD12080005B
:100DA0002A5877482818234600F005FB2C26754F53
:100DB0000520B85564200321395475487844B86239
:100DC000744878443C637863BC663846643003F00A
:100DD000A5FF0425284604F013F8B86601F0AAF828
:100DE00001F0AAF8FC84284604F00AF8B866B96A4B
:100DF000002900D1B6E0002800D1B3E0972800D147
:100E0000B0E0F88CAA24B95D80B2884200D3A9E092
:100E100003F0C2FF002800D0A4E003F049FFA04285
:100E200004D103F06FFFA04200D09BE0B86AF98CB8
:100E300049014018396B002902D08847002807D0A3
:100E4000012803D1B86AF98C4901401800F012FB5F
:100E5000F88C401CF884B96A0029D4D182E04B4B4D
:100E6000C01800F0E6FE01F065F801F065F8454CA9
:100E70000020E084042003F0C3FFA066A16A0029DB
:100E800070D000286ED097286CD0E08CAA252C2139
:100E9000615C80B2884265D203F07EFF002861D198
:100EA00003F006FFA84203D103F02CFFA84259D15A
:100EB000A06AE18C49014018216B002902D08847C3
:100EC000002807D0012803D1A06AE18C490140180D
:100ED00000F0D0FAE08C401CE084A16A0029D6D151
:100EE00040E02A4BC01800F0A4FE01F023F801F006
:100EF00023F8244C0020E084042003F081FFA06646
:100F0000A16A00292ED000282CD097282AD0E08C66
:100F1000AA252C21615C80B2884223D203F03CFFD9
:100F200000281FD103F0C4FEA84203D103F0EAFE5B
:100F3000A84217D1A06AE18C49014018216B002911
:100F400002D08847002807D0012803D1A06AE18C8D
:100F50004901401800F08EFAE08C401CE084A16A40
:100F60000029D6D1002001B0F0BDC04602000040EB
:100F700001000040030000807C19002009050000EA
:100F80001605000080180020A7040000FC040000E3
:100F9000286A0000130300004178022906D00129C5
:100FA0000ED108490978002909D009E09F21C9001C
:100FB000044A53580C3B12780021934200D808464B
:100FC0007047C0467C190020F0B581B0394988428D
:100FD00009D0394988426AD13C48002100F03AFAE8
:100FE00000F02EFA63E00D208001344D2A58344879
:100FF00028180024234600F0DEF9D12080002A586A
:1010000030482818234600F0D6F92C262E4F05200C
:10101000B8556420032139542D487844B8622D48CE
:1010200078443C637863BC663846643003F076FEEF
:101030000425284603F0E4FEB86600F07BFF00F0CC
:101040007BFFFC84284603F0DBFEB866B96A002902
:101050002DD000282BD0972829D0F88CAA24B95D50
:1010600080B2884223D203F097FE00281FD103F0FC
:101070001FFEA04203D103F045FEA04217D1B86A7B
:10108000F98C49014018396B002902D088470028A3
:1010900007D0012803D1B86AF98C4901401800F043
:1010A000E9F9F88C401CF884B96A0029D7D10020EE
:1010B00001B0F0BD02000080010000807C1900201A
:1010C0000905000016050000801800208569000051
:1010D000CA670000B5000000F0B581B03149884210
:1010E00009D03149884259D13148002100F0B2F984
:1010F00000F0A6F952E02C252C4E052070556420F6
:10110000032131542B487844B0622B48784400279F
:1011100037637063B7663046643003F0FFFD042424
:10112000204603F06DFEB06600F004FF00F004FFFF
:10113000F784204603F064FEB066B16A00292DD022
:1011400000282BD0972829D0F08CAA24715D80B27A
:10115000884223D203F020FE00281FD103F0A8FD0F
:10116000A04203D103F0CEFDA04217D1B06AF18CAA
:1011700049014018316B002902D08847002807D068
:10118000012803D1B06AF18C4901401800F072F9CE
:10119000F08C401CF084B16A0029D7D1002001B046
:1011A000F0BDC046020000800100008080180020D1
:1011B000856900007E670000AD00000070B5ECB0EE
:1011C0001549884205D01549884221D11748002188
:1011D0001AE00124210202AD284603F013FD60024B
:1011E0000F490B5A20206A4650600E480E181660B0
:1011F0004A1C2846214603F0F1FC0B48314600F01A
:1012000081F809200003412100F024F900F018F9C9
:1012100000206CB070BDC04602000080010000805C
:101220007C19002023050000A8200020856900000B
:1012300080B50648002141700122027081700920AA
:101240000003032100F006F980BDC046A82000205D
:10125000F0B599B00D4604461E48784414A90CC850
:101260000CC14CC84CC1002C01D1002D10D0002065
:1012700069460860212614A905220CAF30463B467A
:1012800003F022FD202202AB3046394603F0D8FCA1
:10129000002D0CD02126002130460A462B4603F0B3
:1012A000BFFC02AA01233046294603F0D9FC002CDA
:1012B00006D002A80EC80EC40EC80EC42EC82EC476
:1012C0000CA8202105F0A4FF02A8282105F0A0FF0A
:1012D00019B0F0BD3A670000F0B581B00C46C17896
:1012E0004618777931461C39202520462A4600F0D9
:1012F000A0FCF1191A39203420462A4600F099FC46
:1013000001B0F0BDF0B5A5B0049105900021109199
:1013100006AE3046FFF79CFF10AC6846C460502113
:10132000816011AF4760202101600B4903253046E1
:101330002A46049B03F0A4FC2821304605F068FFF0
:1013400024783846059E3146FFF7C6FF2C404020E2
:10135000345425B0F0BDC04601060000F0B5F7B02A
:1013600003910546012631020CAF384603F04AFCD2
:1013700020206946486004AC0C600935402338469B
:1013800031462A4603F02AFC0C34142203982146E5
:1013900000F04FFC77B0F0BDB0B586B0044601ADAB
:1013A00008462946FFF7DAFF142220462946FEF7B1
:1013B000D7FE06B0B0BDF0B587B00446104618435E
:1013C000002835D0039400250692174601931E4647
:1013D00005950A2238463146059C234605F0D0FD86
:1013E0006D1C0922D21BB44107460E46F1D3039867
:1013F000401E04900295019E069806900A2700243C
:1014000031463A46234605F0BBFD05900E463A4666
:10141000234605F0D5FD0699081A302101430498AA
:1014200041556D1E002D0598E7DC039C029802E0F3
:101430003020207001200021215407B0F0BD0000B1
:1014400080B5034979440020024605F04BFC80BD7D
:101450006465000080B5020A054B5A544A1C92B2DA
:101460009854881C81B2202000F058FE80BDC046F0
:10147000A820002080B500F0B7FD80BDF0B581B098
:10148000DA4D28780C2862DD0D2800D1B8E00E284E
:1014900000D1FFE0152860D1FA488079012803D1F6
:1014A000A879000700D4D8E26420F74C0121215428
:1014B0000025A5662046643003F030FC042003F0CC
:1014C0009FFCA066692800D0E0E100F033FD00F049
:1014D00033FDE584042003F093FCA066A16A002993
:1014E00000D1B1E2002800D1AEE2972800D1ABE2F2
:1014F000E08CAA252C21615C80B2884200D3A3E253
:1015000003F04AFC002800D09EE203F0D1FBA84281
:1015100004D103F0F7FBA84200D095E2A06AE18C69
:1015200049014018216B002902D08847002807D0C4
:10153000012803D1A06AE18C4901401800F054FD54
:10154000E08C401CE084A16A0029D3D17CE205280C
:1015500000D1F2E00C2800D176E26420CA4C0121CF
:1015600021540025A5662046643003F0D7FB0420F3
:1015700003F046FCA066692800D0BAE100F0DAFC6E
:1015800000F0DAFCE584042003F03AFCA066A16ACE
:10159000002900D158E2002800D155E2972800D157
:1015A00052E2E08CAA252C21615C80B2884200D3F3
:1015B0004AE203F0F1FB002800D045E203F078FB9B
:1015C000A84204D103F09EFBA84200D03CE2A06AEE
:1015D000E18C49014018216B002902D0884700287E
:1015E00007D0012803D1A06AE18C4901401800F01E
:1015F000FBFCE08C401CE084A16A0029D3D123E2EB
:101600006420A14C012121540025A56620466430A8
:1016100003F084FB042003F0F3FBA066002800D154
:1016200012E2692800D197E1972800D10CE2A06A64
:10163000002800D101E2E08CAA252C21615C80B257
:10164000884200D3F9E103F0A7FB002800D0F4E1C1
:1016500003F02EFBA84204D103F054FBA84200D0B3
:10166000EBE1A06AE18C49014018216B002902D00E
:101670008847002807D0012803D1A06AE18C4901DE
:10168000401800F0B1FCE08C401CE084A16A002905
:10169000D3D1D2E16426F24D0120A8550027AF66D0
:1016A0002846643003F03AFB042003F0A9FBA86647
:1016B000692800D09CE000F03DFC00F03DFCEF8488
:1016C000042003F09DFBA866A96A002900D1BBE1B4
:1016D000002800D1B8E1972800D1B5E1E88CAA2410
:1016E0002C21695C80B2884200D3ADE103F054FB49
:1016F000002800D0A8E103F0DBFAA04204D103F0F7
:1017000001FBA04200D09FE1A86AE98C4901401882
:10171000296B002902D08847002807D0012803D16F
:10172000A86AE98C4901401800F05EFCE88C401C76
:10173000E884A96A0029D3D186E16420C84C01213C
:1017400021540026A6662046643003F0E7FA042000
:1017500003F056FBA066002800D175E1972800D160
:1017600072E1692800D033E100F0E4FB00F0E4FB13
:10177000E684042003F044FBA066A16A002900D19E
:1017800062E1002800D15FE1972800D15CE1E08CA4
:10179000AA252C21615C80B2884200D354E103F079
:1017A000FBFA002800D04FE103F082FAA84204D1EE
:1017B00003F0A8FAA84200D046E1A06AE18C4901F2
:1017C0004018216B002902D08847002807D0012843
:1017D00003D1A06AE18C4901401800F005FCE08CBF
:1017E000401CE084A16A0029D3D12DE1001800201B
:1017F0000446E86B00280DD06428014600D331462A
:10180000401AE86306D1A96B002903D0286CE8636D
:1018100000208847002C00D116E1972C00D113E15D
:10182000A86A00282AD0E88CAA242C21695C80B2FE
:10183000884223D203F0B0FA00281FD103F038FA0F
:10184000A04203D103F05EFAA04217D1A86AE98C46
:1018500049014018296B002902D08847002807D089
:10186000012803D1A86AE98C4901401800F0BCFBAB
:10187000E88C401CE884A96A0029D6D12C20285C79
:10188000E98CDDE0AC21002080180020A06A00284F
:1018900000D1D2E0E08CAA252C21615C80B2884284
:1018A00000D3CAE003F078FA002800D0C5E003F0C6
:1018B000FFF9A84204D103F025FAA84200D0BCE009
:1018C000A06AE18C49014018216B002902D08847A9
:1018D000002807D0012803D1A06AE18C49014018F3
:1018E00000F082FBE08C401CE084A16A0029D3D187
:1018F000A3E0A06A002800D19FE0E08CAA252C215B
:10190000615C80B2884200D397E003F045FA00287A
:1019100000D092E003F0CCF9A84204D103F0F2F930
:10192000A84200D089E0A06AE18C49014018216BEF
:10193000002902D08847002807D0012803D1A06AD7
:10194000E18C4901401800F04FFBE08C401CE08422
:10195000A16A0029D3D170E000F0ECFA00F0ECFAB3
:10196000E584042003F04CFAA066A16A00296BD03C
:10197000002869D0972867D0E08CAA252C21615CCB
:1019800080B2884260D203F007FA00285CD103F0ED
:101990008FF9A84203D103F0B5F9A84254D1A06A47
:1019A000E18C49014018216B002902D088470028AA
:1019B00007D0012803D1A06AE18C4901401800F04A
:1019C00013FBE08C401CE084A16A0029D6D13BE0E7
:1019D000606B002803D0E978490800F049FBA06A51
:1019E00000282AD0E08CAA252C21615C80B2884294
:1019F00023D203F0D1F900281FD103F059F9A842EE
:101A000003D103F07FF9A84217D1A06AE18C490104
:101A10004018216B002902D08847002807D00128F0
:101A200003D1A06AE18C4901401800F0DDFAE08C96
:101A3000401CE084A16A0029D6D12C20205CE18CD6
:101A4000814201D303F0A8F903F0A6F9002801D1DF
:101A500000F028F9012001B0F0BD102000F01CF9C1
:101A600080180020B0B50546072028400024012832
:101A700014D0022814D1002909D00B4803F080F9B2
:101A800068B200280ADA03F091F8002406E0412049
:101A900081000548002203F08BF904462046B0BDC2
:101AA000022000F0F9F8C046A820002096B00026D9
:101AB000159614961396464F474878440590474824
:101AC0007844049046487844039012A8068006ADF6
:101AD000284605F025FC0446A88580B2002814D0CD
:101AE000102865D006A88685109803F07DF90F2090
:101AF0000003204009210903884203D00321490340
:101B0000884226D112A804802AE006A803F06CF9C6
:101B10001499159100241494109013981599C0B23B
:101B200089B200F0FBFA159013941598002844D060
:101B30003878E02844D17878032806DC0128059C11
:101B40001ED0022840D1049C1AE0042814D1039C22
:101B500016E0204804400D20C002201812A9088079
:101B60001298000A14997854481C149012981499E9
:101B70007854481C14900DE0082825D1194C7C4459
:101B80003B79F978B87814AA6D466A6013AA2A607E
:101B90007A1DA04703F01CF906A9884202D11098CB
:101BA00003F022F906A8808D00288ED000F074F88A
:101BB00006A88685109803F017F9102000F06CF83D
:101BC0003720400200F068F86D20000200F064F851
:101BD000A8200020FF07000073F7FFFF55E8FFFF74
:101BE000FB14000083EBFFFF10B58CB06C46204661
:101BF00005F096FBA085000406D1684603F0F4F8D2
:101C00000A90FF2003F0B0F803F0E2F8694688423A
:101C100002D10A9803F0E8F86846808D002801D1C7
:101C20000CB010BD00F038F880B5002003F0DCF8EF
:101C300080BDB0B5884208D9002A0FD0491E401E89
:101C40008B5C8354521EFBD108E0002A06D000238F
:101C50009CB20D5D05555B1C521EF9D1B0BD80B51F
:101C6000002A04D00B4611461A4605F0C9FA80BD79
:101C700070B5401E491E541E0023002A0AD08D5CF8
:101C8000865CAE422246F6D00020C0430123AE421D
:101C900000D80346D8B270BD044603F099F8214637
:101CA00005F04AFB80B503F077F8002800D080BD2E
:101CB0000648002141706022027002228270C170C9
:101CC0000171052103F05CF880BDC04600180020BA
:101CD000B0B51A48C078032807DC01280DD00228C7
:101CE00028D1174804F0AAF9B0BD04281FD008284D
:101CF00020D1134804F0A0F9B0BD114C01212046B9
:101D000004F095F9204604F072F90E4CA0790028F1
:101D100011D120460C30002507222946FFF79FFFEE
:101D200014340E2220462946FFF799FFB0BD04481F
:101D300004F080F9B0BD1020FFF7AEFF00180020BE
:101D400034220020AC2100207F2101400020062900
:101D500002D802484018007B7047C046AC210020E2
:101D600080B515480179042917D0022906D0012928
:101D700020D1811D124804F037F880BDC2787F2140
:101D80001140062916D84A000C4B9A18002393825A
:101D9000821D0B4804F0B4F880BDC2787F21114049
:101DA000062907D8054A521843791373821D04483F
:101DB00004F049F880BDC04600180020AC21002086
:101DC0003422002070B5FF2A1ED815460E46044660
:101DD0000E4850210170202101714271D11C817087
:101DE00080222243C270090A4170062102F0C8FF16
:101DF0003046294602F0C4FF7F20204040000449BD
:101E000008187D210901818270BDC046001800209C
:101E1000AC21002080B50A46014682201423FFF73A
:101E2000D1FF80BD80B50A46014683201423FFF709
:101E3000C9FF80BD80B50C480178002900D080BD65
:101E4000062181710A21017008498A784B781B02AA
:101E50009A187D237D2A00D31A464280C91C044863
:101E6000FFF7E7FE80BDC046AC210020001800202F
:101E7000A820002010B5204881784278120251181D
:101E800000780F280ADC0E2810D00F2822D100205D
:101E9000012926D1FFF71CFF012010BD10281DD0FD
:101EA000162817D1FFF7C6FF012010BD134881681F
:101EB000643181602021425A002A08D06423642AB8
:101EC000144600D31C46121B425212040ED0891E27
:101ED0001229F0D10220FFF7D1FA10BD002003290A
:101EE00000D210BDFFF73CFF012010BD00210170A2
:101EF0001020FFF7D1FEC04600180020AC210020C2
:101F0000B0B50A2002F046FE084C002524222046E7
:101F10002946FFF7A4FE65802570A571A56000F035
:101F2000EBFA034805604560B0BDC046AC21002017
:101F3000D02100207047000002480021016041606C
:101F40007047C046D0210020F0B589B0054608464C
:101F500000F056FB002843D00446006900283FD01B
:101F6000284600F04DFB014602AD1C222846019296
:101F7000FFF75FFE2168E98062682A81A068194F37
:101F800065233B7089B292B24A4342435307D1085A
:101F90004A1C002B00D10A46009204268640B01845
:101FA0001D30B870000A78700321384602F0E8FE50
:101FB0002846019902F0E4FEA068387001213846F5
:101FC00002F0DEFEE06800F01BFBB1B202F0D8FECA
:101FD000009885B2206900F013FB294602F0D0FE7C
:101FE00009B0F0BD0018002070B500F009FB0446F0
:101FF00000787F26064002F0CFFE002830D1002E68
:102000002ED0E06900281DD000F0FAFA0546052E12
:1020100002D1A07E002824D0284605F09BF9064670
:1020200012486521017031461C318170090A4170E6
:10203000032102F0A5FE1C21204602F0A1FEB1B250
:1020400028460BE0094800214170652101701C25DC
:102050008570032102F094FE2046294602F090FE8E
:1020600070BD20462946FFF76FFF70BD00180020A5
:1020700070B5002829D004461448066845688E4289
:1020800001D16D1C45600E43002902D00660324626
:1020900005E00022026042600D4B5B1C1E438A4239
:1020A00001D000214160082D0CD30321284604F003
:1020B00049FF012290073043002900D03046D10764
:1020C000884300E030462946A04770BDD02100205B
:1020D000FFFFFF7FF0B581B00F4E01243470B11CBB
:1020E000812047007A1C204602F030FE05467070C1
:1020F0003A1A3718F91C022002F028FEB8702D1881
:102100007619F47002F016FE307190207071002084
:10211000B071E81D01B0F0BDA8200020F0B589B075
:102120000B460646400708D005960598C0B299B2FE
:10213000FFF798FC80B209B0F0BD80200490834D79
:10214000814C0596102137460F40180471D0002F9E
:102150006FD103930191029707E08021002220466E
:1021600002F026FE012000F001F902F015FE002821
:10217000F3D17D200001A9680F182878092808DD0F
:102180000A2803990ED00B2825D189B273487844C8
:1021900005E0072803991BD189B26F48784400F005
:1021A00015FA31E0FF2006308FB2874200D3C6E037
:1021B00053202070A170080A60700321204602F0AD
:1021C000DFFD6348394602F0DBFD002028701EE089
:1021D000002800D1B0E00598C0B289B2FFF742FCF8
:1021E000002811D0A8E0FFF75DFD802100222046E5
:1021F00002F0DEFDA868B84200D39AE0FFF73AFE8D
:1022000002F0CAFD0028F0D128780028EBD1002088
:10221000A87128706880B1068CD4FFF743FD3006A2
:10222000029F019805D5069006AA4A4B184611460A
:1022300001DF002F04D1700676D40020A871287029
:102240000020688002F0A8FD002801D1FFF72AFDD8
:10225000802100262046324602F0AAFD022806D838
:10226000A178627812025118C91C81423DD1FFF752
:1022700001FE688829780029E4D00028E2D0384996
:1022800079440422324F3846FFF7F2FC00282ED062
:102290003449794404223846FFF7EAFC00282BD061
:1022A0003149794404223846FFF7E2FC00283ED148
:1022B00004982A30C7B202F025FDB84226D1012089
:1022C000234E3070B01C402102F00EFD7070811C56
:1022D0001C4A13461140049A10327254C11C194012
:1022E00000227254031D104618E00020A7E7FFF7F4
:1022F000F1FE0346002011E00020787004990846A2
:102300001030387005980843022307E0692010490F
:1023100008700498401D487002233046C6B20590EC
:10232000400700D10EE700E76888401F02E7688891
:1023300000E71020FFF7B0FC0920FFF7ADFC0220FA
:10234000FFF7AAFCFFFF000000180020AC210020CE
:10235000A8200020BE9A006075FCFFFF93FCFFFFE1
:10236000285800001B5800001058000070B50446A3
:1023700002F012FD002801D1FFF794FC0C4E8021E1
:10238000002530462A4602F013FD3078152806D87D
:10239000012181400748014201D0002C05D1FFF7FF
:1023A00069FD0125002800D10546284670BDC046BC
:1023B0000018002020702000F0B581B00092044683
:1023C000464EB14210D00F46444D002140262846CB
:1023D0003246FFF744FC009A402A00D33246284692
:1023E0003946FFF726FC3D4EB07801280ADC00286C
:1023F00025D0012861D1F01C042102F0E1FB40212D
:10240000304628E0022824D0052856D13079F178CA
:1024100009020818324C21680027884253D12068ED
:1024200000281BD00098401F85B22E480168A942A1
:1024300001D2006885B22C480068711D2FE0F01CA5
:10244000002704223946FFF70AFC40213046A04706
:1024500039E022484021A047002734E0B079717963
:102460000902091821480160016841229200914245
:1024700029D801681B48016071783278120251181E
:102480001B4A116018491B4A0A600099C91F8DB286
:102490000168A94201D2006885B2F11D15482A469B
:1024A000FFF7C7FB0F480168491B01600E48016830
:1024B000491901602068401C20600A480168012019
:1024C0000227002907D10648002101600648016063
:1024D00004480160384601B0F0BDC046D821002054
:1024E0001822002020220020242200201C2200206C
:1024F00028220020A8200020034800210160034872
:102500000160034801607047182200202422002047
:1025100020220020F0B581B0264F3A68264C216871
:10252000002921D0002A1FD00090264D00214022F2
:102530002846FFF794FB0520A87023480168090A84
:102540002970006868701D490868000AE87008680A
:1025500028710968206800290ED03B263B2800D846
:1025600026683968681D12E014480021016039604E
:102570001348017021601BE03926392800D82668ED
:102580002068000A68712068A8713968E81D324621
:10259000FFF74FFB009A09492068801B20603868CC
:1025A000801938600868401C086006484021904740
:1025B00001B0F0BD2422002020220020182200209B
:1025C000AC210020D82100202822002080B500293D
:1025D0000BD0064A00231360054A1160054A064BDA
:1025E0001360064A1160FFF795FF80BD1822002096
:1025F0002022002024220020A82000201C220020CD
:1026000080B50449884204D30349884201D200F0CE
:1026100005F880BD0000D0C00086D0C07A460249CF
:10262000C91C891A401A70471D26D0C0B0B505468E
:10263000806A904215D31446002906D06A6A08467B
:1026400011462246FFF7F5FAA86A001BA862686ADD
:1026500000196862687C002802D0A8680019A86088
:10266000B0BD0120FFF718FB70B5017849B24724CF
:10267000E443473466B2B825049CB14204DD00202F
:1026800018600121116008E0C9B2A94208D20121F5
:10269000196000788038106000202070084670BDF6
:1026A0002E460836F6B2B1420BD2B6391960002177
:1026B00021700378B92B0FDCB82B23D0B92B1CD099
:1026C000ECE74035EDB2A9420BD201211960007848
:1026D000C03810602170E1E7BA2B23D0BB2B17D094
:1026E000DCE7F63919600121217003780021F92B0C
:1026F0000ADCF82B06D0F92BD0D181784078000283
:10270000401816E0407814E0FA2B0BD0FB2BC5D113
:102710004178090683781B045918C3781B02C9182D
:10272000007905E04178090483781B025918C078C4
:10273000081810600121B1E7F0B585B004460178B2
:102740000020092900D1F4E0201D0390274610370E
:102750002646183600200190C0430290B825A16A91
:102760000120002900D1E4E0607C002853D1012041
:10277000002900D1DDE0636A1A78491E5B1C6362A0
:10278000A162617C002902D0A168491CA160216A74
:102790004B1C23627254217EA94220D3226A2B460D
:1027A0000833DBB2994204D20B46B63B934209D8B8
:1027B0000DE02B464033DBB2994210D30B46F63B7B
:1027C000934206D9052A00D1B2E0A16AD0E7E81CFD
:1027D00001E028464330C0B2814200D9A8E06846F3
:1027E000076004AB3046039AFFF73EFF002800D194
:1027F0009EE0002004990029014607D1616A029AEF
:1028000089186162A16A491CA1620121A060A174BA
:102810002062012060742078042820DC022827DC54
:1028200001284FD0022800D082E03878002800D05C
:102830008BE003980068212800D386E0A1688842D5
:102840000AD9401AA26A824200D3024600212046D9
:10285000FFF7ECFE6068A168814252D061E0062873
:1028600026DC052856D0062862D14320800053E09C
:1028700003282BD004285BD13878002865D1039831
:102880000068212861D2A16888420CD9401AA26A46
:10289000824200D30246206B411821312046FFF7C7
:1028A000C5FE6068A16881423BD1216B412227E0CF
:1028B000072840D145208000216B0918204600F0F0
:1028C0008AF82EE0204600F043F82AE03878002805
:1028D0003BD103980068212837D2A26890420BD9D7
:1028E000216B8918801AA26A824200D302462046D0
:1028F000FFF79CFE6068A268824212D1216B202201
:102900008854002060742078401C20706178491C35
:10291000617007E02120C000216B0918204600F0FB
:1029200029F82078C0B2092800D018E7019800E003
:10293000029805B0F0BD08280298FAD1216B423107
:10294000204600F06CF80020F3E70120FFF7A4F91F
:1029500080B5017C00290AD00021417441684161A1
:102960000178491C01704178491C417080BD0120EB
:10297000FFF792F9B0B50446007C002828D16068C2
:10298000052825D2A26890421AD98918801AA26A0D
:10299000824200D302462046FFF748FE2120C000B5
:1029A000216B091860680022002807D000231A460E
:1029B000CD5C120252195B1C8342F9D30A60A268F3
:1029C000824204D1002060742078401C2070B0BD89
:1029D0000120FFF761F910B50446007C00281BD1E7
:1029E0006068152818D2A26890420AD98918801AFE
:1029F000A26A824200D302462046FFF717FE6068B3
:102A0000A268824207D1002060742078401C2070A8
:102A10006078401C607010BD0120FFF73DF9B0B533
:102A20000446007C00281ED1606821281BD20D4678
:102A3000A26890420AD9A918801AA26A824200D3D9
:102A400002462046FFF7F2FD6068A268824209D183
:102A500020216854002060742078401C2070607829
:102A6000401C6070B0BD0120FFF716F9F0B587B0CB
:102A70000446417800201D2900D14CE2201D04901D
:102A80002046103005902646183600200390C74394
:102A9000B825A16A0120002900D13CE2607C002811
:102AA00053D10120002900D135E2636A1A78491E0A
:102AB0005B1C6362A162617C002902D0A168491C91
:102AC000A160216A4B1C23627254217EA94220D34B
:102AD000226A2B460833DBB2994204D20B46B63B3E
:102AE000934209D80DE02B464033DBB2994210D314
:102AF0000B46F63B934206D9052A00D10AE2A16AA9
:102B0000D0E7E81C01E028464330C0B2814200D93A
:102B100000E268460599016006AB3046049AFFF76B
:102B2000A3FD002800D1F5E1002006990029014607
:102B300006D1616AC9196162A16A491CA1620121B9
:102B4000A060A17420620120607460780F2839DDD4
:102B5000152844DD182800DC89E01A2800DDCDE0C6
:102B6000192800D105E11A2800D0D3E102974F209F
:102B70008700206BC119204600F000FAE0680D22A2
:102B80004243812A13D8206BC119871817200001EE
:102B900038180A2202F068FFFF207C302E213954B9
:102BA000BD20400039545F2080003954E068401C4B
:102BB000E0605B218900226B5158884200D056E1C9
:102BC000062055E1092823DD0C286ADC0A2800D1FB
:102BD000F3E00B2800D12FE10C2875D09AE11228E0
:102BE00033DC102800D1D6E0112800D1EEE0122805
:102BF00000D08FE1216B63312046FFF710FF1120D9
:102C00000001216B0858012800D02EE1172035E182
:102C100003285DDC012800D1E1E0022800D1E2E0D8
:102C2000032800D076E105980078002800D174E1EF
:102C300011200001216B0A58002060740520042136
:102C4000022A00D21AE1084618E1132800D1ABE0AD
:102C5000142800D1EAE0152800D05BE1059800783F
:102C6000002800D159E103986074162006E1162867
:102C700000D1DEE0172800D1F2E0182800D049E1A9
:102C8000216BE7312046FFF7CAFE11200001216BBE
:102C90000858012800D1F0E0002800D03AE11920BE
:102CA000ECE00D2810D00E280ED00F2800D031E116
:102CB000002120460A4600F037F911200001216B5F
:102CC000085801286ED0D0E0002120460A46C4E012
:102CD000052840DB00D0D8E02520C000216B091872
:102CE0002046FFF778FE11200001216B08580121D2
:102CF0008843022800D0BEE00620BFE01B2800D099
:102D0000C7E017200001216B081886497944072283
:102D1000FEF78FFF4F2081000191206B4118204664
:102D200000F02CF90297FF2738467830216B0818FD
:102D3000019A89180A2202F097FE38468230216BE8
:102D40002E220A54C1204000216B0A548437206B84
:102D5000C255029F89E045208000216B091820465A
:102D6000FFF739FE11200001216B085804287CD19F
:102D7000CCE005980078002800D1CEE060683121D1
:102D800004F05AF8216B5B2292008850039860741B
:102D9000E0601A2072E005980078002800D1BCE0BD
:102DA00003986074112069E005980078002800D12C
:102DB000B3E003986074142060E005980078002860
:102DC00000D1AAE0002060740B2057E0059800783D
:102DD000002800D1A1E00398607412204EE0204644
:102DE000FFF7B6FD41E005980078002800D094E098
:102DF00004980168052900D38FE0A06881420ED9AC
:102E0000091AA26A8A4200D30A46216B08181121C6
:102E1000090141182046FFF709FC6168A068884253
:102E200023D1002060746078401C27E0216B84313E
:102E300018E0216BA53115E0F92041000191206BCC
:102E400040180021029746273A46FEF708FF206BFC
:102E50000199411820463A46029F00F065F804E0C7
:102E6000216BC6312046FFF7DAFD607807E01A20B3
:102E70006070029F03E00A2000E01B206070C0B277
:102E80001D2800D005E6039845E0062830D0072825
:102E90002BE01C283ED161208000216B08182049BE
:102EA00079440522FEF7C5FE4F208600206B81196C
:102EB000204600F063F8FF2528468A30216B081869
:102EC00089190A2202F0D0FD28469430216B2E2267
:102ED0000A5465208000216B0A549635206B4255B8
:102EE00011200001216B0858012838460ED012E04D
:102EF000216B42312046FFF792FD11200001216B2A
:102F00000858032806D80128384604D01D206070D0
:102F1000002000E0384607B0F0BD0120FEF7BCFEFF
:102F20001F4C0000AB4D000010B50446007C00288B
:102F300021D16368002901D093421CD8A068834244
:102F40000CD91B1AA26A9A4200D31A46002901D052
:102F5000091800E000212046FFF768FB6068A168BF
:102F6000814207D1002060742078401C2070607876
:102F7000401C607010BD0120FEF78EFE10B50446A7
:102F8000007C00281BD16068312818D2A2689042CA
:102F90000AD98918801AA26A824200D302462046C2
:102FA000FFF744FB6068A268824207D1002060748A
:102FB0002078401C20706078401C607010BD01209B
:102FC000FEF76AFEF0B581B01D4616460091002856
:102FD00003D06C486C490F5A15E06B4C00276B4AC4
:102FE00020463946FEF73BFE694820183422394610
:102FF000FEF735FE8520C000611C21506148275234
:1030000064480121215478196349884200D3B2E011
:103010005D4CE019401C31462A46FEF70AFE59492C
:10302000605A401960520099022900D0A6E05B491D
:103030000122625457490025655480B258496050B6
:103040008720C00020185749605051482018FFF7CA
:103050000DFD002800D08BE0A920C00020580128D9
:1030600009DD022810D0032815D1E320C000201864
:103070005149794416E0002816D1E320C0002018F9
:103080004E497944112217E0E320C0002018494935
:1030900079440E2210E004286AD1E320C0002018F1
:1030A00043497944102207E0012861D1E320C000A0
:1030B00020183E4979440F22FEF7BBFD0698009088
:1030C0002C27394E0424F4556420032131543C4804
:1030D0007844B0623B48784435637063B5663046E7
:1030E000643001F01BFE204601F08AFEB066FEF758
:1030F00021FFFEF721FFF584204601F081FEB06636
:10310000B16A00292DD000282BD0972829D0F08C27
:10311000AA24F15D80B2884223D201F03DFE00284E
:103120001FD101F0C5FDA04203D101F0EBFDA0428B
:1031300017D1B06AF18C49014018316B002902D0D7
:103140008847002807D0012803D1B06AF18C4901D3
:103150004018FEF78FF9F08C401CF084B16A00290A
:10316000D7D1009A106810210143116001B0F0BD61
:103170000220FEF791FD0320FEF78EFD09200003DB
:10318000FEF78AFD020400007C1900202C070000D5
:10319000040400002A070000FD03000005040000ED
:1031A0002C0400003404000080180020224A000093
:1031B000634A0000554A0000824A0000434A00006A
:1031C000C04A0000EF000000F0B581B07A498842A3
:1031D0000BD07A49884205D17E480021FEF73AF9A2
:1031E000FEF72EF9002001B0F0BD69200001744EF9
:1031F00035180024842228462146FEF730FDA920F8
:10320000C0003058012868D82B2040013118142202
:103210002846FCF7A5FF6C482A213150E320C00066
:1032200030180C222946FEF704FD684834542C213E
:103230000091674F0520785464200321395434707D
:1032400065487844B862654878443C637863BC66F6
:103250003846643001F062FD0425284601F0D0FDB7
:10326000B866FEF767FEFEF767FEFC842846009D01
:1032700001F0C6FDB866B96A0029B3D00028B1D004
:103280009728AFD0F88CAA24795D80B28842A9D261
:1032900001F082FD0028A5D101F00AFDA04203D172
:1032A00001F030FDA0429DD1B86AF98C4901401867
:1032B000396B002902D08847002807D0012803D1A4
:1032C000B86AF98C49014018FEF7D4F8F88C401C14
:1032D000F884B96A0029D7D184E73A483118142212
:1032E0002846FCF73DFF38482A213150E320C00032
:1032F00030180C222946FEF79CFC344834542C210B
:103300000091334F052078546420032139543470E0
:1033100033487844B862334878443C637863BC6689
:103320003846643001F0FAFC0425284601F068FDB7
:10333000B866FEF7FFFDFEF7FFFDFC842846009D02
:1033400001F05EFDB866B96A002900D14AE700289D
:1033500000D147E7972800D144E7F88CAA24795D8B
:1033600080B2884200D33DE701F016FD002800D06E
:1033700038E701F09DFCA04204D101F0C3FCA0425B
:1033800000D02FE7B86AF98C49014018396B002941
:1033900002D08847002807D0012803D1B86AF98CE9
:1033A00049014018FEF766F8F88C401CF884B96AA9
:1033B0000029D4D116E7C046020000800100008039
:1033C0007C1900204C0500001407000024070000B1
:1033D0008018002085690000CE4900009D01000092
:1033E0009E49000061050000F0B581B0012808DDAC
:1033F000022863D0DF49884260D0DF49884207D085
:103400001CE2DE49884200D1B0E0012800D015E27C
:10341000DB490878002500282A4602D0401E0870A3
:10342000C2B2E320C0000818891869221201891865
:103430000C22FEF7FEFBFEF77DFDFEF77DFDD14C75
:10344000E584042001F0DCFCA066A16A002900D11B
:10345000F4E1002800D1F1E1972800D1EEE1E08C01
:10346000AA252C21615C80B2884200D3E6E101F0FC
:1034700093FC002800D0E1E101F01AFCA84204D13D
:1034800001F040FCA84200D0D8E1A06AE18C4901DB
:103490004018216B002902D08847002807D0012856
:1034A00003D1A06AE18C49014018FDF7E3FFE08CED
:1034B000401CE084A16A0029D3D1BFE1E548E2497C
:1034C00008580C380A78904202D9501C0870C2B2D1
:1034D000E320C000081889186922120189180C22FB
:1034E000FEF7A7FBFEF726FDFEF726FDDA4C0020CF
:1034F000E084042001F084FCA066A16A002900D1C8
:103500009CE1002800D199E1972800D196E1E08C58
:10351000AA252C21615C80B2884200D38EE101F0A3
:103520003BFC002800D089E101F0C2FBA84204D195
:1035300001F0E8FBA84200D080E1A06AE18C4901DB
:103540004018216B002902D08847002807D00128A5
:1035500003D1A06AE18C49014018FDF78BFFE08C94
:10356000401CE084A16A0029D3D167E169200001F1
:10357000B54D2F180024842238462146FEF76FFBF4
:10358000A920C000285801286ED8B5482E1830460A
:1035900003F0E0FE024638463146FEF74AFB30466D
:1035A00003F0D8FEAB496850E320C00028180C2275
:1035B0003946FEF73EFB2C26A74F0520B855642060
:1035C00003213954A7487844B862A74878443C633B
:1035D0007863BC663846643001F0A0FB04252846B9
:1035E00001F00EFCB866FEF7A5FCFEF7A5FCFC8416
:1035F000284601F005FCB866B96A002900D11DE132
:10360000002800D11AE1972800D117E1F88CAA24EC
:10361000B95D80B2884200D310E101F0BDFB002803
:1036200000D00BE101F044FBA04204D101F06AFBA1
:10363000A04200D002E1B86AF98C49014018396B08
:10364000002902D08847002807D0012803D1B86A92
:10365000F98C49014018FDF70DFFF88C401CF884E7
:10366000B96A0029D4D1E9E0672000012E180021B1
:103670003C462027304600913A46FEF7F0FA734860
:103680002A5CB81A301872496918FEF7D2FA7148E4
:103690002B184E2230462746214602F093F8002888
:1036A00000D1CEE0009C2C706A482A58E320C0006C
:1036B0000D2A69D328180C223946FEF7BAFA674852
:1036C0002C542C26644F0520B8556420032139540E
:1036D00066487844B862664878443C637863BC6660
:1036E0003846643001F01AFB0425284601F088FBB7
:1036F000B866FEF71FFCFEF71FFCFC84284601F0AD
:103700007FFBB866B96A002900D197E0002800D194
:1037100094E0972800D191E0F88CAA24B95D80B29A
:10372000884200D38AE001F037FB002800D085E012
:1037300001F0BEFAA04203D101F0E4FAA0427DD12B
:10374000B86AF98C49014018396B002902D08847C2
:10375000002807D0012803D1B86AF98C4901401824
:10376000FDF788FEF88C401CF884B96A0029D5D191
:1037700064E0C046020000400100004003000080F9
:103780007C190020801800202E1830463946FEF79C
:1037900050FA3048285834542C262F4F0520B8555D
:1037A00064200321395433487844B862324878445D
:1037B0003C637863BC663846643001F0AFFA042598
:1037C000284601F01DFBB866FEF7B4FBFEF7B4FB1C
:1037D000FC84284601F014FBB866B96A00292DD094
:1037E00000282BD0972829D0F88CAA24B95D80B264
:1037F000884223D201F0D0FA00281FD101F058FAF4
:10380000A04203D101F07EFAA04217D1B86AF98C28
:1038100049014018396B002902D08847002807D099
:10382000012803D1B86AF98C49014018FDF722FE3E
:10383000F88C401CF884B96A0029D7D1002001B067
:10384000F0BD0320FEF728FA7C1900209A0400003E
:103850007A040000140700008018002024070000EC
:103860002A0600008A470000F90500001E470000F4
:103870006D080000E8460000F7090000F0B581B0CF
:10388000012808DD022863D0C449884260D0C449B9
:10389000884207D07FE1C349884200D1B0E00128C7
:1038A00000D078E1C0490878002500282A4602D0D7
:1038B000401E0870C2B2E320C000081889186922AF
:1038C000120189180C22FEF7B4F9FEF733FBFEF75C
:1038D00033FBB74CE584042001F092FAA066A16A9C
:1038E000002900D157E1002800D154E1972800D1E8
:1038F00051E1E08CAA252C21615C80B2884200D382
:1039000049E101F049FA002800D044E101F0D0F982
:10391000A84204D101F0F6F9A84200D03BE1A06A28
:10392000E18C49014018216B002902D0884700280A
:1039300007D0012803D1A06AE18C49014018FDF7A6
:1039400099FDE08C401CE084A16A0029D3D122E1DA
:103950009848954908580C380A78904202D9501C6A
:103960000870C2B2E320C000081889186922120149
:1039700089180C22FEF75DF9FEF7DCFAFEF7DCFA97
:103980008B4C0020E084042001F03AFAA066A16A82
:10399000002900D1FFE0002800D1FCE0972800D1E9
:1039A000F9E0E08CAA252C21615C80B2884200D32A
:1039B000F1E001F0F1F9002800D0ECE001F078F935
:1039C000A84204D101F09EF9A84200D0E3E0A06A29
:1039D000E18C49014018216B002902D0884700285A
:1039E00007D0012803D1A06AE18C49014018FDF7F6
:1039F00041FDE08C401CE084A16A0029D3D1CAE0DB
:103A000069200001684E351800248422284621468A
:103A1000FEF725F9A920C0003058042856D12C26DD
:103A2000634F0425BD55642003213954624878440E
:103A3000B862624878443C637863BC663846643058
:103A400001F06CF9284601F0DBF9B866FEF772FA6E
:103A5000FEF772FAFC84284601F0D2F9B866B96A1A
:103A6000002900D197E0002800D194E0972800D1E8
:103A700091E0F88CAA24B95D80B2884200D38AE034
:103A800001F08AF9002800D085E001F011F9A04288
:103A900003D101F037F9A0427DD1B86AF98C490110
:103AA0004018396B002902D08847002807D0012828
:103AB00003D1B86AF98C49014018FDF7DBFCF88C9A
:103AC000401CF884B96A0029D5D164E02B2040015C
:103AD000311814222846FCF743FBE320C0003018BD
:103AE0000C222946FEF7A5F8304834542C210091C9
:103AF0002F4F052078546420032139543470304806
:103B00007844B8622F4878443C637863BC66384692
:103B1000643001F003F90425284601F071F9B86614
:103B2000FEF708FAFEF708FAFC842846009D01F02B
:103B300067F9B866B96A00292DD000282BD09728DC
:103B400029D0F88CAA24795D80B2884223D201F072
:103B500023F900281FD101F0ABF8A04203D101F0F6
:103B6000D1F8A04217D1B86AF98C49014018396BD5
:103B7000002902D08847002807D0012803D1B86A5D
:103B8000F98C49014018FDF775FCF88C401CF8844D
:103B9000B96A0029D7D1002001B0F0BD0200004071
:103BA00001000040030000807C1900202407000071
:103BB0008018002014070000E2460000E510000015
:103BC00010410000DFF8FFFFF0B599B0012808DDD3
:103BD000022863D0CA49884260D0CA49884207D0C7
:103BE00088E1C949884200D1B0E0012800D081E1D4
:103BF000C6490878002500282A4602D0401E0870D1
:103C0000C2B2E320C000081889186922120189187D
:103C10000C22FEF70EF8FEF78DF9FEF78DF9C44C75
:103C2000E584042001F0ECF8A066A16A002900D127
:103C300060E1002800D15DE1972800D15AE1E08CD5
:103C4000AA252C21615C80B2884200D352E101F0A8
:103C5000A3F8002800D04DE101F02AF8A84204D1D1
:103C600001F050F8A84200D044E1A06AE18C49017B
:103C70004018216B002902D08847002807D001286E
:103C800003D1A06AE18C49014018FDF7F3FBE08CF9
:103C9000401CE084A16A0029D3D12BE1A3489B49B1
:103CA00008580C380A78904202D9501C0870C2B2E9
:103CB000E320C000081889186922120189180C2213
:103CC000FDF7B7FFFEF736F9FEF736F9984C0020FE
:103CD000E084042001F094F8A066A16A002900D1D4
:103CE00008E1002800D105E1972800D102E1E08C2D
:103CF000AA252C21615C80B2884200D3FAE001F051
:103D00004BF8002800D0F5E000F0D2FFA84204D123
:103D100000F0F8FFA84200D0ECE0A06AE18C490175
:103D20004018216B002902D08847002807D00128BD
:103D300003D1A06AE18C49014018FDF79BFBE08CA0
:103D4000401CE084A16A0029D3D1D3E0A920C5009A
:103D50006E4C6059012800D9CCE069200001019027
:103D600026180021842230460391FDF778FF71491F
:103D700079440522049630460292FDF75AFF6448C2
:103D8000215C6448201805AA01F0E0FD002800D15C
:103D9000B3E005AE304603F0DDFA02465E48201877
:103DA0003146FDF746FF304603F0D4FA0746615925
:103DB000401D002942D12018019940185E497944DC
:103DC0000522FDF736FF5548215C5548201805AA05
:103DD00001F0BCFD0A37002800D18EE00498C51917
:103DE00005AE304603F0B6FA024628463146FDF7E6
:103DF00020FF304603F0AEFAC519049840194F4928
:103E000079440822FDF715FF4648215C46482018F2
:103E1000324601F09BFD083500286ED060190199EB
:103E2000471805AE304603F095FA0246384631464B
:103E3000FDF7FFFE304603F08DFA40193B49605014
:103E4000E320C00020180C220499FDF7F2FE2C2577
:103E5000374E029870556420032131543848784415
:103E6000B06238487844039F37637063B766304662
:103E7000643000F053FF0424204600F0C1FFB06618
:103E8000FEF758F8FEF758F8F784204600F0B8FF20
:103E9000B066B16A00292DD000282BD0972829D0F0
:103EA000F08CAA24715D80B2884223D200F074FFA6
:103EB00000281FD100F0FCFEA04203D100F022FF39
:103EC000A04217D1B06AF18C49014018316B00292A
:103ED00002D08847002807D0012803D1B06AF18CAE
:103EE00049014018FDF7C6FAF08C401CF084B16A15
:103EF0000029D7D1002019B0F0BD0320FDF7CCFE7A
:103F00000200004001000040030000807C190020F6
:103F1000BB0400009B04000095060000DC040000C8
:103F2000BC040000FD040000DD04000014070000D4
:103F300080180020BD3D0000753D0000393D0000A7
:103F4000D240000021040000F0B581B0012808DD56
:103F5000022821D08C4988421ED08C49884206D044
:103F60000FE18B4988422ED0012800D009E18B480F
:103F700002780021002A02D0511E0170C9B2864A7F
:103F80008258411869231B01C9180D2A74D3E322F2
:103F9000D20080180C2272E07F49804842581346B4
:103FA0000C3B01788B4202D9491C0170C9B24118FF
:103FB00069231B01C9180D2A00D2A0E0E322D20018
:103FC00080180C229EE02C25724E04247455642027
:103FD0000321315472487844B06272487844002713
:103FE00037637063B7663046643000F097FE204652
:103FF00000F006FFB066FDF79DFFFDF79DFFF7841B
:10400000204600F0FDFEB066B16A002900D1B8E09C
:10401000002800D1B5E0972800D1B2E0F08CAA24A6
:10402000715D80B2884200D3ABE000F0B5FE00289D
:1040300000D0A6E000F03CFEA04204D100F062FEF9
:10404000A04200D09DE0B06AF18C49014018316B6C
:10405000002902D08847002807D0012803D1B06A80
:10406000F18C49014018FDF705FAF08C401CF084F2
:10407000B16A0029D4D184E0E323DB00C018FDF746
:10408000D8FDFDF757FFFDF757FF424C0020E084B5
:10409000042000F0B5FEA066A16A002971D00028B6
:1040A0006FD097286DD0E08CAA252C21615C80B25E
:1040B000884266D200F070FE002862D100F0F8FD60
:1040C000A84203D100F01EFEA8425AD1A06AE18C9A
:1040D00049014018216B002902D08847002807D0E9
:1040E000012803D1A06AE18C49014018FDF7C2F90B
:1040F000E08C401CE084A16A0029D6D141E0E32392
:10410000DB00C018FDF795FDFDF714FFFDF714FF68
:10411000204C0020E084042000F072FEA066A16A1A
:1041200000292ED000282CD097282AD0E08CAA2550
:104130002C21615C80B2884223D200F02DFE002841
:104140001FD100F0B5FDA84203D100F0DBFDA8426D
:1041500017D1A06AE18C49014018216B002902D0D7
:104160008847002807D0012803D1A06AE18C4901C3
:104170004018FDF77FF9E08C401CE084A16A00291B
:10418000D6D1002001B0F0BD020000400100004087
:104190000300008080180020140700007C19002014
:1041A0003A4100003D0B0000F0B581B03049884233
:1041B00009D03049884258D130480021FDF74AF9EA
:1041C000FDF73EF951E02C252B4E04247455642054
:1041D000032131542A487844B0622A4878440027A1
:1041E00037637063B7663046643000F097FD204651
:1041F00000F006FEB066FDF79DFEFDF79DFEF7841C
:10420000204600F0FDFDB066B16A00292DD00028DF
:104210002BD0972829D0F08CAA24715D80B28842D7
:1042200023D200F0B9FD00281FD100F041FDA042CB
:1042300003D100F067FDA04217D1B06AF18C4901AB
:104240004018316B002902D08847002807D0012888
:1042500003D1B06AF18C49014018FDF70BF9F08CDD
:10426000401CF084B16A0029D7D1002001B0F0BD14
:104270000200008001000080801800208569000095
:104280003A3F00003D090000F0B585B0012808DD87
:10429000022863D0D249884260D0D249884207D0F0
:1042A00098E1D149884200D1B0E0012800D091E1E5
:1042B000CE490878002500282A4602D0401E087002
:1042C000C2B2E320C00008188918692212018918B7
:1042D0000C22FDF7AEFCFDF72DFEFDF72DFECC4CBC
:1042E000E584042000F08CFDA066A16A002900D1BD
:1042F00070E1002800D16DE1972800D16AE1E08CDF
:10430000AA252C21615C80B2884200D362E100F0D2
:1043100043FD002800D05DE100F0CAFCA84204D1B2
:1043200000F0F0FCA84200D054E1A06AE18C490101
:104330004018216B002902D08847002807D00128A7
:1043400003D1A06AE18C49014018FDF793F8E08C95
:10435000401CE084A16A0029D3D13BE1AB48A349CA
:1043600008580C380A78904202D9501C0870C2B222
:10437000E320C000081889186922120189180C224C
:10438000FDF757FCFDF7D6FDFDF7D6FDA04C00204C
:10439000E084042000F034FDA066A16A002900D169
:1043A00018E1002800D115E1972800D112E1E08C36
:1043B000AA252C21615C80B2884200D30AE100F07A
:1043C000EBFC002800D005E100F072FCA84204D10B
:1043D00000F098FCA84200D0FCE0A06AE18C490102
:1043E0004018216B002902D08847002807D00128F7
:1043F00003D1A06AE18C49014018FDF73BF8E08C3D
:10440000401CE084A16A0029D3D1E3E0A920C400C4
:10441000764F3859012800D9DCE06920000102906C
:104420003E18002184223046FDF719FC3859002837
:10443000039607D079497944042530462A46FDF78A
:10444000F8FB29E07349794407223046FDF7F1FB78
:10445000672000013C180021202520462A46FDF750
:10446000FEFB63483A5CA81A201862497918FDF7E8
:10447000E0FB614EB9194E2204AB204601F0A2F9CF
:10448000002800D1A9E0049D781980196249794477
:104490000522FDF7CEFB0C35672000013E180021F8
:1044A000202430462246FDF7DAFB54483A5CA01A35
:1044B000301853497918FDF7BCFB78190299411857
:1044C0004E2204AB304601F07DF9002800D184E093
:1044D00004984719039DE81951497944052201922E
:1044E000FDF7A7FB0021304602912246FDF7B7FBFE
:1044F00044483E490B460A5CA01A301842495918F4
:10450000FDF797FB7C1D29194E2204AB304601F0C4
:1045100059F9002861D0049800193C49334A505099
:10452000E320C00010180C222946FDF782FB2C2640
:10453000374F0198B85564200321395439487844DD
:10454000B86239487844029D3D637863BD66384659
:10455000643000F0E3FB0424204600F051FCB86610
:10456000FDF7E8FCFDF7E8FCFD84204600F048FC80
:10457000B866B96A00292DD000282BD0972829D0F9
:10458000F88CAA24B95D80B2884223D200F004FCE2
:1045900000281FD100F08CFBA04203D100F0B2FB39
:1045A000A04217D1B86AF98C49014018396B00292B
:1045B00002D08847002807D0012803D1B86AF98CB7
:1045C00049014018FCF756FFF88C401CF884B96A82
:1045D0000029D7D1002005B0F0BD0320FDF75CFB1A
:1045E0000200004001000040030000807C19002010
:1045F0009A0400007A040000970600001E050000DF
:10460000FE0400003F0500001F0500001407000025
:104610008018002007370000C73600002037000050
:1046200059360000923A0000E5000000F0B581B074
:10463000012808DD022863D09E49884260D09E4947
:10464000884207D032E19D49884200D1B0E001287C
:1046500000D02BE19A490878002500282A4602D08C
:10466000401E0870C2B2E320C000081889186922F1
:10467000120189180C22FDF7DCFAFDF75BFCFDF74F
:104680005BFC924CE584042000F0BAFBA066A16AB2
:10469000002900D10AE1002800D107E1972800D1C4
:1046A00004E1E08CAA252C21615C80B2884200D311
:1046B000FCE000F071FB002800D0F7E000F0F8FA11
:1046C000A84204D100F01EFBA84200D0EEE0A06A90
:1046D000E18C49014018216B002902D0884700284D
:1046E00007D0012803D1A06AE18C49014018FCF7EA
:1046F000C1FEE08C401CE084A16A0029D3D1D5E042
:1047000071486F4908580C380A78904202D9501CF9
:104710000870C2B2E320C00008188918692212018B
:1047200089180C22FDF785FAFDF704FCFDF704FC5F
:10473000664C0020E084042000F062FBA066A16AC1
:10474000002900D1B2E0002800D1AFE0972800D1C5
:10475000ACE0E08CAA252C21615C80B2884200D3B9
:10476000A4E000F019FB002800D09FE000F0A0FAC0
:10477000A84204D100F0C6FAA84200D096E0A06A90
:10478000E18C49014018216B002902D0884700289C
:1047900007D0012803D1A06AE18C49014018FCF739
:1047A00069FEE08C401CE084A16A0029D3D17DE041
:1047B00069200001424F3D180024842228462146EA
:1047C000FDF74DFAA920C0003858002804D0B520C4
:1047D000C000391826260AE0B520C000391839482B
:1047E00038580A220A2800DB10460D264643284680
:1047F0003246FDF71EFA34483E50E320C000381818
:104800000C222946FDF715FA2C26304F0520B85505
:104810006420032139542E487844B8622D487844E6
:104820003C637863BC663846643000F077FA042550
:10483000284600F0E5FAB866FDF77CFBFDF77CFB47
:10484000FC84284600F0DCFAB866B96A00292DD04D
:1048500000282BD0972829D0F88CAA24B95D80B2E3
:10486000884223D200F098FA00281FD100F020FAE5
:10487000A04203D100F046FAA04217D1B86AF98CE1
:1048800049014018396B002902D08847002807D019
:10489000012803D1B86AF98C49014018FCF7EAFDF8
:1048A000F88C401CF884B96A0029D7D1002001B0E7
:1048B000F0BDC0460200004001000040030000803F
:1048C0007C190020A40500001407000080180020B7
:1048D00058380000B7000000F0B581B0012808DDAD
:1048E000022863D08549884260D08549884207D034
:1048F00001E18449884200D1ABE0012800D0FAE010
:1049000083490878002500282A4602D0401E0870F6
:10491000C2B2E320C0000818891869221201891860
:104920000C22FDF786F9FDF705FBFDF705FB764C3C
:10493000E584042000F064FAA066A16A002900D191
:10494000D9E0002800D1D6E0972800D1D3E0E08C50
:10495000AA252C21615C80B2884200D3CBE000F014
:104960001BFA002800D0C6E000F0A2F9A84204D14A
:1049700000F0C8F9A84200D0BDE0A06AE18C49016E
:104980004018216B002902D08847002807D0012851
:1049900003D1A06AE18C49014018FCF76BFDE08C63
:1049A000401CE084A16A0029D3D1A4E057485849AB
:1049B00008580C380A78904202D9501C0870C2B2CC
:1049C000E320C000081889186922120189180C22F6
:1049D000FDF72FF9FDF7AEFAFDF7AEFA4A4C0020CD
:1049E000E084042000F00CFAA066A16A002900D13E
:1049F00081E000287FD097287DD0E08CAA252C214B
:104A0000615C80B2884276D200F0C6F9002872D18B
:104A100000F04EF9A84203D100F074F9A8426AD11F
:104A2000A06AE18C49014018216B002902D0884717
:104A3000002807D0012803D1A06AE18C4901401861
:104A4000FCF718FDE08C401CE084A16A0029D6D157
:104A500051E02C252C4E042474556420032131543C
:104A60002C487844B0622C48784400273763706340
:104A7000B7663046643000F051F9204600F0C0F9C6
:104A8000B066FDF757FAFDF757FAF784204600F0B5
:104A9000B7F9B066B16A00292DD000282BD097282D
:104AA00029D0F08CAA24715D80B2884223D200F014
:104AB00073F900281FD100F0FBF8A04203D100F0E9
:104AC00021F9A04217D1B06AF18C49014018316B2D
:104AD000002902D08847002807D0012803D1B06AF6
:104AE000F18C49014018FCF7C5FCF08C401CF084A7
:104AF000B16A0029D7D1002001B0F0BD020000400A
:104B0000010000400300008080180020140700000E
:104B10007C190020AE360000B100000070B5ECB08A
:104B20001549884205D01549884222D117480021ED
:104B30001BE00124210202AD284600F063F8104872
:104B400010490B5A20206A46672636018E191660D6
:104B500050604A1C2846214600F040F80A48314679
:104B6000FCF7D0FB092000034121FCF773FCFCF7A4
:104B700067FC00206CB070BD020000800100008066
:104B8000020400007C190020A82000208569000094
:104B900001DF704780B584B00190034801A9FFF799
:104BA000F7FF04B080BDC0463701006080B582B019
:104BB00002486946FFF7ECFF02B080BD3C0200608E
:104BC00080B584B00090019103486946FFF7E0FF8B
:104BD000019804B080BDC0462C05006080B588B047
:104BE00000900191029203930A9804900B9805900B
:104BF00003486946FFF7CCFF019808B080BDC04666
:104C00003B07006080B584B000900191034869467D
:104C1000FFF7BEFF019804B080BDC046CF10006012
:104C200080B586B0009001910292039303486946D3
:104C3000FFF7AEFF019806B080BDC046ED2D0060C5
:104C400080B586B0009001910292039303486946B3
:104C5000FFF79EFF019806B080BDC046EA2E0060B7
:104C600080B586B000900191029203930348694693
:104C7000FFF78EFF019806B080BDC0462E2F006062
:104C800080B58AB000900191029203930C98049031
:104C90000D9805900E9806900F9807900348694666
:104CA000FFF776FF01980AB080BDC046F338006078
:104CB00080B582B003486946FFF76AFF0198C0B229
:104CC00002B080BD4F9F006080B588B00190029116
:104CD000039204930A980590024801A9FFF758FF30
:104CE00008B080BDBA53006080B584B000900191D7
:104CF00003486946FFF74CFF019804B080BDC046E9
:104D0000FCA8006080B582B003486946FFF740FF09
:104D10000198C0B202B080BD3CA0006080B584B0F4
:104D20000190034801A9FFF733FF029804B080BD4A
:104D30005864006080B582B003486946FFF728FFD9
:104D4000019802B080BDC0466E6A006080B586B032
:104D5000019002910392034801A9FFF719FF0298FD
:104D600006B080BDD474006080B584B00190034863
:104D700001A9FFF70DFF04B080BDC046BE9A0060D8
:104D800080B584B00090019102486946FFF700FFAA
:104D900004B080BD8183006080B582B0034869465D
:104DA000FFF7F6FE019802B080BDC046BB840060EC
:104DB00080B586B0019002910392044801A9FFF7E3
:104DC000E7FE029880B206B080BDC046E485006070
:104DD00080B582B003486946FFF7DAFE019802B059
:104DE00080BDC046B187006080B584B001900348A3
:104DF00001A9FFF7CDFE029804B080BD7588006060
:104E000080B584B00190044801A9FFF7C1FE029863
:104E1000C0B204B080BDC0468B9C006041790904DB
:104E2000027912065118827912028918C2798A18F9
:104E30000178090643781B04591883781B02C918A6
:104E4000C078091810467047B0B50C460546FFF704
:104E5000E5FF03C428460830083CFFF7DFFFA060E9
:104E6000E16028461030FFF7D9FF206161611835F5
:104E70002846FFF7D3FFA061E161B0BDF0B581B076
:104E80001446802905D3002020606060A060E060A7
:104E90003AE00D460646002907D0402D0CD1B068F7
:104EA000F168002207C422602EE003CE03C43068FC
:104EB00071686160206027E03F2D19D803CE2A4633
:104EC000083E02F051F8074600914020421BB068AE
:104ED000F16802F03DF8C01920600098414161601E
:104EE000B068F1682A4602F03FF8A060E1600BE08C
:104EF000402DC8D0B068F1680022A260E260403D59
:104F00002A4602F031F803C401B0F0BDF0B593B009
:104F100014460546080A04D02021204602F066F90E
:104F200065E00E4600290ED0802E1BD128696969E4
:104F300003C4A869E969616020600020083CE06161
:104F40006061A0610CE003CD03C4286869686160FA
:104F50002060A868E968E160A0602869696961610A
:104F6000206144E07F2E34D80EAA28463146FFF750
:104F700085FF8020811B10350AAA284600F039F8E9
:104F80000F990B980E9A0A9B9A1848410021109B82
:104F90000C9FFB180493119B0D9F5F4105974A419D
:104FA00002924841039002AA103228463146FFF788
:104FB00065FF0298009003AFEECF0998019000982A
:104FC00020606160A260E36025616661A76101986D
:104FD0000CE0802EA0D01035803E28463146224677
:104FE000FFF74CFF002020616061A061E06113B019
:104FF000F0BDF0B583B01446802905D300202060B1
:105000006060A060E0603DE00D460646002906D0E5
:10501000402D0CD100206060206003CE04E003CE60
:1050200003C430687168083CE160A0602AE03F2D4D
:105030001CD837687168029138462A4601F088FF0B
:10504000B268F36803C4104619462A46083C01F0CA
:105050007FFF064601914020421B3846029901F02D
:1050600083FF3018A060019841410AE0402DC5D06F
:1050700003CE002222606260403D2A4601F068FFB4
:10508000A060E16003B0F0BDF0B593B014460546F2
:10509000080A04D02021204602F0A8F860E00E465D
:1050A00000290ED0802E1BD103CD616120612868BC
:1050B0006968E161A0610020E0606060A06020603C
:1050C0004EE003CD03C42868696861602060A86869
:1050D000E968E160A06028696969616120613FE079
:1050E0007F2E2FD802AA28463146FFF782FF284696
:1050F00010300EAA3146FFF77CFF8020811B0AAAE0
:105100002846FFF7BBFE0F9A0B980E990A9B591879
:1051100050410025109A0C9B9A1801920892119EFA
:105120000D9B73410993694106916841079002AF55
:10513000E0CF059AE0C422606160A0600198E06061
:1051400023610DE0802EA5D0803E224610322846F5
:105150003146FFF74EFF002020606060A060E060F5
:1051600013B0F0BD70B50468031D0ECB1E460E4390
:10517000154625433543002D17D08020002D34D00F
:1051800080205208DD0752196508CE07AD192E465A
:105190001643E4075B08E31849080C461C433443F4
:1051A000401C002C2C46ECD11FE00469034614334C
:1051B0000ECB084618432546154305430020002D15
:1051C00013D000205208DD0752196508CE07AD192B
:1051D0002E461643E4075B08E31849080C461C43B7
:1051E0003443401C002C2C46ECD170BDF0B50B684C
:1051F0004A6805684468264656402F465F40374354
:10520000002F1FD18B68CA688568C468264656403F
:105210002F465F403743002F14D10B694A69056957
:105220004469264656402F465F403743002F09D138
:105230008269C3698C69CD6901200021A21A9D4150
:1052400005D205E0012000215B1BA24100D30846E6
:10525000F0BD70B50D460446FFF7C8FF01460120BA
:10526000002925D103CD0CCC4B4042401A430020ED
:10527000083C083D002A1BD1A968EA68A368E668D3
:1052800056404B403343002B12D129696A69236988
:10529000666956404B403343002B09D1A869E96940
:1052A000A269E3694B4042401A430020801A5041F2
:1052B00070BDF0B590B00F924C6843680A680568FD
:1052C000AA1AA34100270D92521E0C921A46BA4107
:1052D0000B92CA680E92C5688C6882680126121B00
:1052E0000E9A95410E9634463E4600D33446002C25
:1052F00000D10B930F9A0B9B5360002C01D10D9A98
:105300000C920F9D0C9A2A60CA68C7688B688468E3
:10531000E31A0493AB6097410597EF604A694569CA
:105320000B6904690694E71A009595417A1E099263
:105330000D95B541CC690896C6698A6983690A9258
:1053400001939A1A02960394A6410E9A00D3089AE2
:10535000002A00D109970E97099F069B5F40002AFB
:10536000019C0D9A009E00D115462A4672401743B3
:105370000A4618320892024618320792103110304D
:105380000F9A0832002F09D125460A9BE41A029E83
:105390003446039FBC410E9B09D330E0069F099B16
:1053A000FF1AAE410E9B039F029E254627D2002680
:1053B0000C9C631E0E930B9C2746B741049D059BD6
:1053C0001D43002D00D027460F9C6760002D0E9BCB
:1053D00000D00C9B0F9C2360049B5C1E059BB3417B
:1053E000146053600A68496804684068A31A8841D9
:1053F0000D90089801680A914768079860C80024D2
:105400000E93581E0C900D9B1946A14101220A983B
:105410002D1ABE4100D32246002A00D119460F9B07
:105420005961002A0E990C9800D108460F9C206102
:10543000089903C9079B0CCB101AA0618B41E3614B
:1054400010B0F0BDF0B5B7B0089309920C461591B5
:10545000074616A8182101F0C9FE002014901D90DF
:1054600001201C903846FFF77DFE13902046FFF781
:1054700079FE12903E683C1D1CCC38690C9078690E
:10548000BD69F9690B921F920A961E9606942194A3
:105490000C9A0793209305902390229203912591D3
:1054A0000495249513981299401A1390159839462B
:1054B000FFF79CFE1EAB1D461835394618311E46B7
:1054C00010363A46103208330837002812D00A98AE
:1054D000089C20600B98606009CFE360A06005CA5B
:1054E0006261206103C9E161A0612021099801F096
:1054F0007DFEDDE0009601950293149C2EAA159E78
:105500003046139D2946FFF701FD16A826AA294615
:10551000FFF7FCFC2F9802460B9D6A402E990B4624
:105520000A9F7B401343002B22D130980246079FED
:105530007A4031990B46069E73401343002B00D0EE
:10554000B8E0329802460C9D6A40339B139305994C
:105550004B401343002B2746089C159E00D0B2E019
:1055600035983499049A511A0399814108D312E06D
:105570002B463A46791A294681412746089C0AD289
:1055800001252EA829460246FFF77EFD26A82946BA
:105590000246FFF779FD1EA83146FFF75AFE0028A4
:1055A00039463D463E463A463B4613971297099880
:1055B00065D026AC2646183627461037083400201A
:1055C0001290119010900F900E90149013900D90D7
:1055D0001EA82EA9FFF73DFE002824D02EA91EA844
:1055E0000246FFF766FE03CE129A0A4312921399FF
:1055F0000143139103CF109A0A431092119901436A
:10560000119103CC0E9A0A430E920F9901430F9108
:1056100027980D9901430D912698149901431491EF
:10562000083C083F083E01252EA829460246FFF700
:105630002BFD26A829460246FFF726FD1EA8159930
:10564000FFF707FE0028C3D1019801680491406864
:105650000390009801680C914068059002980468D6
:105660000794406806901F980B901E980A90089C1B
:105670000998149F119A109B0F9D0E9E0D9907601B
:10568000071D62C702614361139981611299C1616B
:105690000A9820600B9860600798A0600698E06008
:1056A0000C982061059860610498A0610398E061FE
:1056B00037B0F0BD381A304688412746089C159E01
:1056C00000D25DE767E7281A08461399884100D29F
:1056D00056E760E7F0B5A3B0039309920591BEC801
:1056E000066840681B921A911D941C931F971E9583
:1056F0002190209612A8202101F078FD0AA81821F7
:1057000001F074FD002011901AA90A461832079280
:105710000A46103206920831089105991091891EA7
:105720000E294AD802902898019012A818300490A7
:105730000398401E05900120C643771CB01C0599B4
:10574000884239D80AA91AA812AB0246FFF77AFE96
:105750000998811904980078194A7A44105C887075
:1057600007990CC9069C12CC1C43089D28CD2543E3
:105770001B9C2C43114319431A9A0A432243761C5B
:105780007F1C002ADAD1099CA11900228A70B11C61
:10579000002F0DD022782070E255022E08D3012070
:1057A000225CA35D2354A255761E401CB042F7D361
:1057B00001980160012000E0029823B0F0BDC046CE
:1057C000362A0000F0B5C7B0039302920491069008
:1057D0003EAF202638460597314601F007FD36A832
:1057E0000790314601F002FD2EAD2846314601F00A
:1057F000FDFC26AC2046314601F0F8FC002621963F
:1058000020961F961E9606983946FFF71DFB259693
:105810004D482490239622961EAF059839462A4675
:105820002346FFF70FFE28463946079F3A46234690
:10583000FFF708FE08AC4E25204631462A46FCF705
:105840000EFA1DA8694608600A21384622462B46F2
:10585000FFF740FF002873D00024049D284621460E
:10586000029AFCF7FCF91D9F08A928463A46FCF766
:10587000E0F9039807602D982C99014300290FD176
:105880002B982A99014300290AD129982899014384
:10589000002905D1279826990143012600294FD0D8
:1058A00008AD4E26284621463246FCF7D8F91CA8FA
:1058B0006946086026A80A212A463346FFF70AFFF0
:1058C00000283CD01C9D681E07E008A9095C30290F
:1058D00005D108A900220A54401E0028F5DA2E201E
:1058E0000499C855039A1068411C11600A30092DAB
:1058F00025D802998842264622D80920441B0498BC
:10590000C019401C30212246FCF7A9F9039E3068DB
:10591000001930600A37781B04990C1808AD284626
:1059200001F018FD024620462946FCF782F9284678
:1059300001F010FD316808183060012600E02646AD
:10594000304647B0F0BDC04600CA9A3BF0B5A9B09A
:105950000025202968D813460E4621AF00252024B3
:1059600001903846294622460293FCF778F9A01B9D
:10597000381801993246FCF75CF904AE30462146EE
:1059800001F034FC38463146FFF75EFA0DAC4E2785
:10599000204629463A46FCF762F903A869460860A2
:1059A0000A21304622463B46FFF794FE029B002820
:1059B0003AD0039C601E0025002808DB00250DA9B5
:1059C000095C302903D1401E6D1C0028F7DA2046FF
:1059D000123801282BDB1120001B0121C94388420A
:1059E00000DC08462218103A0DA9184601F004FC04
:1059F000204611380026401E761C0128FBDC2E2094
:105A0000029B9855771C2246641BA64209D2D819DE
:105A10000DA98919921B521B01F0EEFB029BE019A4
:105A2000871B0020D8550125284629B0F0BD002845
:105A300012D02E205870302018701220011B002622
:105A400002270129DFDB981C302201F0D9FB029BE1
:105A50001420071B0026D6E72E205870302018701F
:105A600000260227CFE70000F0B5002A0FD0002360
:105A7000074C7C440D782E09A65DC654C6180F2726
:105A80002F40E55D7570491C9B1C9342F2D3F0BD1D
:105A90001E27000002490020086002490860704784
:105AA000302200202C22002010B50748002444702A
:105AB0004F210170012181700221C1700421FFF783
:105AC0005FF9204610BDC0460018002070B582B0B6
:105AD0006D4600246C704F262E700220A8700320A3
