:02000004C0D06A
:10000000B0B58CB062B6164CFC21204607F030F932
:1000100006F040FF01F02EFE6D46284607F0C2F9BB
:10002000A88585B26846002D0BD0002181850A98ED
:1000300004F01CFF102DE7D001F0FCFD00200CB0F7
:10004000B0BD04F013FF0A9001F080FF002006F01D
:100050007FFC012006F07CFC01F00CFA01F048FD69
:100060008818002070B5044600F018F801280DDB50
:100070000022094D7D441346E65CD1431F2E08D86B
:10008000A95DE1545B1C8342F6DBE418002020707C
:100090000121084670BDC04650740000F0B587B01D
:1000A00003910346002018700092002A37D00022E6
:1000B000D54301270492002601970295069350002C
:1000C00018700399049A895CB14080220A40D109D2
:1000D00008180590187005243846214606F0EEFEF3
:1000E0006043281802D0069B059A03E00022069B75
:1000F0005A705B1C7F1C6D1E761C082EDED1019F82
:100100000837029D083D0499491C009804918142DA
:10011000D1D10098C000401C052106F0CFFE07B0E9
:10012000F0BD00000021C9431F2802D802497944CC
:10013000095C08467047C046967300000022074BD2
:100140007B44995C814205D00021C943521C202A7E
:10015000F7D300E0114608467047C046847300009C
:10016000F0B587B0039202910025012664497944D5
:100170000691644979440491019002460698415DD4
:100180000592117072015D4B1A4049095318720EA5
:100190000027049E394601242046884010423846F4
:1001A00000D030684340361D491C0529F3D16D1C31
:1001B000059A521C032D1E46E0D15D014F480540B3
:1001C0005A0E0021504878440B4626469E4016425F
:1001D0000E4600D006687540001D5B1C052BF4D14F
:1001E00000264A48784405900698805D1F210491B6
:1001F00008406901414A11400F186A0E0023059812
:100200001D462146A9401142194600D001684F40C1
:10021000001D6D1C052DF4D1761C032E3D46E3D147
:1002200031200199C8700E1D30460299039AFFF7DC
:1002300019FF0021CD4300285DDB304607F0CCF8E4
:1002400005900128029524DB00253148784403906D
:100250003078FFF773FF00284CDB06967901274AB8
:100260001140C3B24B40780E0021039A1F460B4643
:1002700026469E4006420E4600D016687740121D64
:100280005B1C052BF4D16D1C069E761C05988542DF
:10029000DEDB069600201F49794405917D01174950
:1002A0000D407A0E0021059E0F462346BB401342A7
:1002B0000B4600D033685D40361D7F1C052FF4D1FE
:1002C000401C06282F46E9D1654000241926049FCA
:1002D0002846F0403840FFF725FF00280ADB069942
:1002E0000855761F641C062CF2D300200699085589
:1002F000012500E0029D284607B0F0BDE0FFFF3F6A
:100300007773000078730000267300000873000004
:10031000A072000054720000F0B581B00E46374D57
:100320000024AC222846214601F0BFFC012E59D002
:10033000002E60D1A81C34497944112201F09FFCA1
:100340002C262F4F0425BD556420032139542F48F6
:100350007844B8622E4878443C637863BC6638467B
:10036000643004F01DFD284604F08CFDB86601F0F1
:1003700007FE01F007FEFC84284604F083FDB86602
:10038000B96A002930D000282ED097282CD0F88CBC
:10039000AA24B95D80B2884226D204F03FFD00282D
:1003A00022D104F0C7FCA04203D104F0EDFCA0422E
:1003B0001AD1B86AF98C49014018396B002902D06A
:1003C0008847002807D0012803D1B86AF98C490171
:1003D000401801F071F8F88C401CF884B96A0029C3
:1003E000D7D101E000F07AF90698016810220A439B
:1003F000026001B0F0BD034801F074FC84190020D4
:1004000088180020016B0000C8710000CC7100004A
:10041000BB000000F0B581B04049884209D0404996
:10042000884277D14248002101F036F801F022F8E5
:1004300070E000F053F93B4DA81C3E497944092275
:1004400001F01DFC2C46523437492A22204601F087
:1004500016FC7C2000272F5428469F300C22214672
:1004600001F00DFCAB202F542C22304E0520B0544F
:100470006420032131546F7015462F487844B062D0
:100480002E4878442E49794431637063B76630460C
:10049000643004F085FC0424204604F0F3FCB066CC
:1004A00001F06EFD01F06EFDF784204604F0EAFCD9
:1004B000B066B16A00292DD000282BD0972829D00A
:1004C000F08CAA24715D80B2884223D204F0A6FC8D
:1004D00000281FD104F02EFCA04203D104F054FCEC
:1004E000A04217D1B06AF18C49014018316B002944
:1004F00002D08847002807D0012803D1B06AF18CC8
:100500004901401800F0D8FFF08C401CF084B16A1B
:100510000029D7D1002001B0F0BDC0460200008004
:100520000100008084190020882000208818002005
:1005300085690000D570000020710000BF00000038
:100540002B020000B0B5012808DD022859D054491B
:10055000884256D05349884207D09FE0524988428A
:1005600000D199E0012800D098E05048417800255A
:1005700000292A4602D0491E4170CAB28118523160
:100580009F300C2201F07BFB01F0FAFC01F0FAFC39
:10059000474CE584042004F075FCA066A16A00299C
:1005A0007CD000287AD0972878D0E08CAA252C21FE
:1005B000615C80B2884271D204F030FC00286DD1B9
:1005C00004F0B8FBA84203D104F0DEFBA84265D1D9
:1005D000A06AE18C49014018216B002902D08847AC
:1005E000002807D0012803D1A06AE18C49014018F6
:1005F00000F062FFE08C401CE084A16A0029D6D1A3
:100600004CE02A4841781D2901D8491C4170C9B2E3
:10061000411852319F300C2201F031FB01F0B0FC47
:1006200001F0B0FC224C0020E084042004F02AFCFD
:10063000A066A16A002931D000282FD097282DD09C
:10064000E08CAA252C21615C80B2884226D204F07D
:10065000E5FB002822D104F06DFBA84203D104F091
:1006600093FBA8421AD1A06AE18C49014018216B82
:10067000002902D08847002807D0012803D1A06AAA
:10068000E18C4901401800F017FFE08C401CE08429
:10069000A16A0029D6D101E000F0ECFE0020B0BD37
:1006A0000200004001000040030000808419002087
:1006B000881800204178022906D0012903D1064973
:1006C0004978002906D0704703494A7800211D2A3D
:1006D00000D80146084670478419002010B594B030
:1006E000002001AC214600F0CDFD0548214600F078
:1006F0006DFE092000032A2100F0CEFE14B010BDCB
:1007000088200020F0B583B01F460192B720C200B8
:10071000434D002402942846214601F0C6FA812068
:100720008000009028183422214601F0BEFA0126EC
:1007300074023A462F536F1C3846019901F09FFA14
:100740004520C0002F5000982E544720C000281884
:100750008D2189006850285B8B21890068503148C1
:10076000281832497944132201F089FA2C262E4F99
:100770000425BD556420032139542D487844B862BE
:100780002C487844029C3C637863BC6638466430ED
:1007900004F006FB284604F075FBB86601F0F0FB98
:1007A00001F0F0FBFC84284604F06CFBB866B96AE3
:1007B000089C00292DD000282BD0972829D0F88C10
:1007C000AA25B95D80B2884223D204F027FB002815
:1007D0001FD104F0AFFAA84203D104F0D5FAA84221
:1007E00017D1B86AF98C49014018396B002902D039
:1007F0008847002807D0012803D1B86AF98C49013D
:10080000401800F059FEF88C401CF884B96A0029A1
:10081000D7D1206810210143216003B0F0BDC0464C
:10082000841900208E05000088180020D86E000072
:100830000C6F0000B3000000F0B581B03F49884262
:1008400009D03F49884276D14248002100F024FE79
:1008500000F010FE6FE0812080003A4F381801F060
:100860008BFF8920C0003C18D32080003918142247
:100870002046FFF775FC344838180C22214601F059
:10088000FEF9324800253D542C210091304E0520C0
:1008900070546420032131543D702F487844B06275
:1008A0002E4878442E49794431637063B5663046EA
:1008B000643004F075FA0424204604F0E3FAB066CC
:1008C00001F05EFB01F05EFBF584009D204604F024
:1008D000D9FAB066B16A00292DD000282BD097280C
:1008E00029D0F08CAA24715D80B2884223D204F012
:1008F00095FA00281FD104F01DFAA04203D104F09C
:1009000043FAA04217D1B06AF18C49014018316B0B
:10091000002902D08847002807D0012803D1B06AF7
:10092000F18C4901401800F0C7FDF08C401CF084A8
:10093000B16A0029D7D1002001B0F0BD02000080CB
:100940000100008084190020720400007E04000071
:1009500088180020856900006C6E0000BF00000050
:100960003B040000F0B589B0012808DD022862D000
:10097000CD4988425FD0CD49884207D08EE1CC492D
:10098000884200D1ABE0012800D087E1CA4908784D
:10099000002500282A4602D0401E0870C2B2CB486B
:1009A000081889188922D20089180C2201F067F9E9
:1009B00001F0E6FA01F0E6FAC34CE584042004F005
:1009C00061FAA066A16A002900D167E1002800D180
:1009D00064E1972800D161E1E08CAA252C21615CBB
:1009E00080B2884200D359E104F018FA002800D000
:1009F00054E104F09FF9A84204D104F0C5F9A842DB
:100A000000D04BE1A06AE18C49014018216B00291C
:100A100002D08847002807D0012803D1A06AE18CC2
:100A20004901401800F048FDE08C401CE084A16AB8
:100A30000029D3D132E1A0490A781D2A01D8521CDD
:100A40000A70A2480818D2B289188922D2008918DF
:100A50000C2201F014F901F093FA01F093FA9A4C88
:100A60000020E084042004F00DFAA066A16A0029A9
:100A700000D113E1002800D110E1972800D10DE149
:100A8000E08CAA252C21615C80B2884200D305E16C
:100A900004F0C4F9002800D000E104F04BF9A842AA
:100AA00004D104F071F9A84200D0F7E0A06AE18C0B
:100AB00049014018216B002902D08847002807D03F
:100AC000012803D1A06AE18C4901401800F0F4FC30
:100AD000E08C401CE084A16A0029D3D1DEE001AEA5
:100AE00000212025304600912A4601F0DEF87148A9
:100AF000714F391871483A5CA81A301801F0BFF8E4
:100B00006F483D184D2004013B194E2230462946BE
:100B100004F09AFE002800D1C3E0009838703A59DA
:100B200068480D2A60D338180C22294601F0A7F82E
:100B300027204001009C3C542C26634F0520B855CB
:100B400064200321395462487844B862614878448B
:100B50006149794439637863BC663846643004F08F
:100B60001FF90425284604F08DF9B86601F008FA4B
:100B700001F008FAFC84284604F084F9B866B96AE2
:100B8000002900D18AE0002800D187E0972800D111
:100B900084E0F88CAA24B95D80B288427ED204F049
:100BA0003DF900287AD104F0C5F8A04203D104F041
:100BB000EBF8A04272D1B86AF98C49014018396B40
:100BC000002902D08847002807D0012803D1B86A3D
:100BD000F98C4901401800F06FFCF88C401CF88437
:100BE000B96A0029D7D159E03E183046294601F0AC
:100BF00046F83859009C34542C26334F0520B855FC
:100C000064200321395435487844B8623448784424
:100C10003C637863BC663846643004F0C1F8042550
:100C2000284604F02FF9B86601F0AAF901F0AAF9F4
:100C3000FC84284604F026F9B866B96A00292DD04C
:100C400000282BD0972829D0F88CAA24B95D80B22F
:100C5000884223D204F0E2F800281FD104F06AF899
:100C6000A04203D104F090F8A04217D1B86AF98CE1
:100C700049014018396B002902D08847002807D065
:100C8000012803D1B86AF98C4901401800F014FC1E
:100C9000F88C401CF884B96A0029D7D1002009B02B
:100CA000F0BD032001F01EF80200004001000040EA
:100CB000030000807A020000841900209A020000DC
:100CC0007F040000D4040000881800207204000093
:100CD000606C0000BB0100001B040000406C0000C1
:100CE0008F0300004178022906D0012903D106496B
:100CF0000978002906D0704703490A7800211E2A86
:100D000000D001460846704784190020F0B581B034
:100D1000012808DD022820D08C4988421DD08C494A
:100D2000884206D00EE18B4988422CD0012800D0A1
:100D300008E18A4802780021002A02D0511E017081
:100D4000C9B24118864A89184D22120182580D2ACB
:100D500075D3844A80180C2273E04D2001017F482E
:100D6000425813460C3B01788B4202D9491C017052
:100D7000C9B241187A4BC9180D2A00D2A1E0794AAC
:100D800080180C229FE000F0EFF92C25724E052010
:100D9000705564200321315473487844B06273481D
:100DA0007844002737637063B7663046643003F0D9
:100DB000F7FF0424204604F065F8B06601F0E0F87F
:100DC00001F0E0F8F784204604F05CF8B066B16A00
:100DD000002900D1B6E0002800D1B3E0972800D167
:100DE000B0E0F08CAA24715D80B2884200D3A9E003
:100DF00004F014F8002800D0A4E003F09BFFA04208
:100E000004D103F0C1FFA04200D09BE0B06AF18C96
:100E100049014018316B002902D08847002807D0CB
:100E2000012803D1B06AF18C4901401800F044FB5D
:100E3000F08C401CF084B16A0029D4D182E0494B87
:100E4000C01800F01CFF01F09BF801F09BF8424C29
:100E50000020E084042004F015F8A066A16A0029AF
:100E600070D000286ED097286CD0E08CAA252C2159
:100E7000615C80B2884265D203F0D0FF002861D166
:100E800003F058FFA84203D103F07EFFA84259D1D6
:100E9000A06AE18C49014018216B002902D08847E3
:100EA000002807D0012803D1A06AE18C490140182D
:100EB00000F002FBE08C401CE084A16A0029D6D13E
:100EC00040E0284BC01800F0DAFE01F059F801F0BC
:100ED00059F8214C0020E084042003F0D3FFA066E1
:100EE000A16A00292ED000282CD097282AD0E08C87
:100EF000AA252C21615C80B2884223D203F08EFFA8
:100F000000281FD103F016FFA84203D103F03CFFD5
:100F1000A84217D1A06AE18C49014018216B002931
:100F200002D08847002807D0012803D1A06AE18CAD
:100F30004901401800F0C0FAE08C401CE084A16A2E
:100F40000029D6D1002001B0F0BDC046020000400B
:100F50000100004003000080881800208419002050
:100F60007F040000D40400004E6B0000E502000086
:100F70004178022906D001290ED1084909780029B3
:100F800009D009E04D210901044A53580C3B12785D
:100F90000021934200D808467047C04684190020BB
:100FA000F0B581B03249884209D0324988425BD1DC
:100FB0003248002100F070FA00F05CFA54E000F0D2
:100FC000D3F82C252C4E0520705564200321315474
:100FD0002B487844B0622B4878440027376370630D
:100FE000B7663046643003F0DBFE0424204603F08D
:100FF00049FFB06600F0C4FF00F0C4FFF78420464C
:1010000003F040FFB066B16A00292DD000282BD034
:10101000972829D0F08CAA24715D80B2884223D20F
:1010200003F0FCFE00281FD103F084FEA04203D190
:1010300003F0AAFEA04217D1B06AF18C4901401812
:10104000316B002902D08847002807D0012803D13E
:10105000B06AF18C4901401800F02EFAF08C401C67
:10106000F084B16A0029D7D1002001B0F0BDC0469C
:1010700002000080010000808818002085690000BF
:1010800016690000AD000000F0B581B0304988421B
:1010900009D03049884258D13048002100F0FCF98D
:1010A00000F0E8F951E02C252B4E042474556420FF
:1010B000032131542A487844B0622A4878440027F2
:1010C00037637063B7663046643003F069FE2046CC
:1010D00003F0D8FEB06600F053FF00F053FFF78432
:1010E000204603F0CFFEB066B16A00292DD000285B
:1010F0002BD0972829D0F08CAA24715D80B2884229
:1011000023D203F08BFE00281FD103F013FEA04270
:1011100003D103F039FEA04217D1B06AF18C490126
:101120004018316B002902D08847002807D00128D9
:1011300003D1B06AF18C4901401800F0BDF9F08C80
:10114000401CF084B16A0029D7D1002001B0F0BD65
:1011500002000080010000808818002085690000DE
:10116000D268000031010000F0B583B01C481D4971
:101170000F180C461D49794405220092384606F0A6
:101180007DF801AD00262E7101960D2080012258B8
:101190002846334600F029F9044613481149081837
:1011A0002946224606F04CF93F193A2038726F2042
:1011B000F8717420B871202078712E710196D120B9
:1011C000800008490A582846334600F00EF90937CE
:1011D00038462946009A06F033F903B0F0BDC04600
:1011E000E104000084190020E6040000F06400001F
:1011F00070B5ECB01549884205D01549884221D117
:10120000174800211AE00124210202AD284603F00C
:101210003BFD60020F490B5A20206A4650600E4881
:101220000E1816604A1C2846214603F019FD0B488B
:10123000314600F081F809200003412100F02CF92B
:1012400000F018F900206CB070BDC04602000080AC
:101250000100008084190020EE0400008820002096
:101260008569000080B506480621417001210170A2
:101270000021817009200003032100F00DF980BDD9
:1012800088200020F0B599B00D4604461E487844E9
:1012900014A90CC80CC14CC84CC1002C01D1002DA4
:1012A00010D0002069460860212614A905220CAF41
:1012B00030463B4603F04AFD202202AB3046394619
:1012C00003F000FD002D0CD02126002130460A46F7
:1012D0002B4603F0E7FC02AA01233046294603F01F
:1012E00001FD002C06D002A80EC80EC40EC80EC404
:1012F0002EC82EC40CA8202105F0CCFF02A828215E
:1013000005F0C8FF19B0F0BDEA670000F0B581B084
:101310000C46C1784618777931461C39202520467D
:101320002A4600F0ACFCF1191A39203420462A462E
:1013300000F0A5FC01B0F0BDF0B5A5B0049105909A
:101340000021109106AE3046FFF79CFF10AC6846B6
:10135000C4605021816011AF4760202101600B49BA
:10136000032530462A46049B03F0CCFC2821304656
:1013700005F090FF24783846059E3146FFF7C6FFFA
:101380002C404020345425B0F0BDC046010600007A
:10139000F0B5F7B003910546012631020CAF38468F
:1013A00003F072FC20206946486004AC0C600935EB
:1013B0004023384631462A4603F052FC0C341422AE
:1013C0000398214600F05BFC77B0F0BDB0B586B065
:1013D000044601AD08462946FFF7DAFF14222046ED
:1013E0002946FEF7BDFE06B0B0BDF0B587B0044695
:1013F00010461843002835D003940025069217465E
:1014000001931E4605950A2238463146059C23461F
:1014100005F0F8FD6D1C0922D21BB44107460E46AB
:10142000F1D30398401E04900295019E0698069001
:101430000A27002431463A46234605F0E3FD05908D
:101440000E463A46234605F0FDFD0699081A30215E
:101450000143049841556D1E002D0598E7DC039C5F
:10146000029802E03020207001200021215407B0B2
:10147000F0BD000080B505490020087004490860EF
:1014800004497944024605F06FFC80BD0418002031
:10149000001800200A66000080B5020A054B5A5465
:1014A0004A1C92B29854881C81B2202000F05CFE45
:1014B00080BDC0468820002080B500F0BBFD80BD07
:1014C000F0B581B0DA4D28780C2862DD0D2800D106
:1014D000B8E00E2800D1FFE0152860D1FA488079E5
:1014E000012803D1A879000700D4D8E26420F74C82
:1014F000012121540025A5662046643003F050FCEC
:10150000042003F0BFFCA066692800D0E0E100F0F1
:1015100037FD00F037FDE584042003F0B3FCA0663E
:10152000A16A002900D1B1E2002800D1AEE29728DB
:1015300000D1ABE2E08CAA252C21615C80B288420C
:1015400000D3A3E203F06AFC002800D09EE203F07F
:10155000F1FBA84204D103F017FCA84200D095E2A9
:10156000A06AE18C49014018216B002902D088470C
:10157000002807D0012803D1A06AE18C4901401856
:1015800000F058FDE08C401CE084A16A0029D3D112
:101590007CE2052800D1F2E00C2800D176E264203C
:1015A000CA4C012121540025A5662046643003F071
:1015B000F7FB042003F066FCA066692800D0BAE1BE
:1015C00000F0DEFC00F0DEFCE584042003F05AFCB1
:1015D000A066A16A002900D158E2002800D155E296
:1015E000972800D152E2E08CAA252C21615C80B2C0
:1015F000884200D34AE203F011FC002800D045E203
:1016000003F098FBA84204D103F0BEFBA84200D02F
:101610003CE2A06AE18C49014018216B002902D00C
:101620008847002807D0012803D1A06AE18C49012E
:10163000401800F0FFFCE08C401CE084A16A002907
:10164000D3D123E26420A14C012121540025A566B9
:101650002046643003F0A4FB042003F013FCA066D2
:10166000002800D112E2692800D197E1972800D123
:101670000CE2A06A002800D101E2E08CAA252C210E
:10168000615C80B2884200D3F9E103F0C7FB002817
:1016900000D0F4E103F04EFBA84204D103F074FB48
:1016A000A84200D0EBE1A06AE18C49014018216B0F
:1016B000002902D08847002807D0012803D1A06A5A
:1016C000E18C4901401800F0B5FCE08C401CE0843E
:1016D000A16A0029D3D1D2E16426F24D0120A85598
:1016E0000027AF662846643003F05AFB042003F05D
:1016F000C9FBA866692800D09CE000F041FC00F01E
:1017000041FCEF84042003F0BDFBA866A96A002910
:1017100000D1BBE1002800D1B8E1972800D1B5E1A4
:10172000E88CAA242C21695C80B2884200D3ADE108
:1017300003F074FB002800D0A8E103F0FBFAA042FC
:1017400004D103F021FBA04200D09FE1A86AE98CFC
:1017500049014018296B002902D08847002807D08A
:10176000012803D1A86AE98C4901401800F062FC05
:10177000E88C401CE884A96A0029D3D186E1642062
:10178000C84C012121540026A6662046643003F08F
:1017900007FB042003F076FBA066002800D175E16A
:1017A000972800D172E1692800D033E100F0E8FB0E
:1017B00000F0E8FBE684042003F064FBA066A16A65
:1017C000002900D162E1002800D15FE1972800D113
:1017D0005CE1E08CAA252C21615C80B2884200D3B8
:1017E00054E103F01BFB002800D04FE103F0A2FA04
:1017F000A84204D103F0C8FAA84200D046E1A06A8A
:10180000E18C49014018216B002902D0884700284B
:1018100007D0012803D1A06AE18C4901401800F0EB
:1018200009FCE08C401CE084A16A0029D3D12DE1A1
:10183000051800200446E86B00280DD064280146F6
:1018400000D33146401AE86306D1A96B002903D0C2
:10185000286CE86300208847002C00D116E1972C03
:1018600000D113E1A86A00282AD0E88CAA242C21F0
:10187000695C80B2884223D203F0D0FA00281FD1DD
:1018800003F058FAA04203D103F07EFAA04217D128
:10189000A86AE98C49014018296B002902D08847C1
:1018A000002807D0012803D1A86AE98C4901401813
:1018B00000F0C0FBE88C401CE884A96A0029D6D15E
:1018C0002C20285CE98CDDE08C2100208818002089
:1018D000A06A002800D1D2E0E08CAA252C21615C0E
:1018E00080B2884200D3CAE003F098FA002800D002
:1018F000C5E003F01FFAA84204D103F045FAA8425C
:1019000000D0BCE0A06AE18C49014018216B00299D
:1019100002D08847002807D0012803D1A06AE18CB3
:101920004901401800F086FBE08C401CE084A16A6D
:101930000029D3D1A3E0A06A002800D19FE0E08C69
:10194000AA252C21615C80B2884200D397E003F085
:1019500065FA002800D092E003F0ECF9A84204D127
:1019600003F012FAA84200D089E0A06AE18C490194
:101970004018216B002902D08847002807D0012891
:1019800003D1A06AE18C4901401800F053FBE08CC0
:10199000401CE084A16A0029D3D170E000F0F0FA85
:1019A00000F0F0FAE584042003F06CFAA066A16A66
:1019B00000296BD0002869D0972867D0E08CAA2531
:1019C0002C21615C80B2884260D203F027FA0028A3
:1019D0005CD103F0AFF9A84203D103F0D5F9A842D6
:1019E00054D1A06AE18C49014018216B002902D032
:1019F0008847002807D0012803D1A06AE18C49015B
:101A0000401800F017FBE08C401CE084A16A00291C
:101A1000D6D13BE0606B002803D0E978490800F09C
:101A20004DFBA06A00282AD0E08CAA252C21615CFD
:101A300080B2884223D203F0F1F900281FD103F0CD
:101A400079F9A84203D103F09FF9A84217D1A06AFF
:101A5000E18C49014018216B002902D088470028F9
:101A600007D0012803D1A06AE18C4901401800F099
:101A7000E1FAE08C401CE084A16A0029D6D12C2038
:101A8000205CE18C814201D303F0C8F903F0C6F970
:101A9000002801D100F02CF9012001B0F0BD102088
:101AA00000F020F988180020B0B50546072028402E
:101AB0000024012814D0022814D1002909D00B4891
:101AC00003F0A0F968B200280ADA03F0B1F80024A4
:101AD00006E0412081000548002203F0ABF90446EE
:101AE0002046B0BD022000F0FDF8C046882000204E
:101AF00094B00026139612961196484F49487844A0
:101B0000039049487844029010A8068004AD284606
:101B100005F048FCA88585B2002D15D0102D6DD09C
:101B2000044604A886850E9803F0A0F90F2001034F
:101B3000214009200003814203D003225203914235
:101B400027D110A90C802BE004A803F08FF912997B
:101B50001391002412940E9011981399C0B289B277
:101B600000F002FB13901194139800284BD03878A2
:101B7000E0284BD17878032806DC0128039C25D087
:101B8000022847D1029C21E004281BD1284C7C4428
:101B90001CE023490C400D21C902611810AA1180D4
:101BA000854203D010201199814311911098000AA9
:101BB00012997854481C1290109812997854481C25
:101BC00012900DE0082825D1184C7C443B79F97817
:101BD000B87812AA6D466A6011AA2A607A1DA047D9
:101BE00003F038F904A9884202D10E9803F03EF9B7
:101BF00004A8808D002887D000F074F804A886859A
:101C00000E9803F033F9102000F06CF837204002F2
:101C100000F068F86D20000200F064F888200020D1
:101C2000FF07000063F7FFFF11E8FFFF37EBFFFF3F
:101C30008714000010B58CB06C46204605F0B2FB4E
:101C4000A085000406D1684603F010F90A90FF2031
:101C500003F0CCF803F0FEF86946884202D10A98F6
:101C600003F004F96846808D002801D10CB010BD46
:101C700000F038F880B5002003F0F8F880BDB0B56A
:101C8000884208D9002A0FD0491E401E8B5C83541D
:101C9000521EFBD108E0002A06D000239CB20D5D45
:101CA00005555B1C521EF9D1B0BD80B5002A04D089
:101CB0000B4611461A4605F0E5FA80BD70B5401E88
:101CC000491E541E0023002A0AD08D5C865CAE4259
:101CD0002246F6D00020C0430123AE4200D803467E
:101CE000D8B270BD044603F0B5F8214605F066FB96
:101CF00080B503F093F8002800D080BD064800218D
:101D000041706022027002228270C170017105214F
:101D100003F078F880BDC04605180020B0B51A4819
:101D2000C078032807DC01280DD0022828D11748E5
:101D300004F0C6F9B0BD04281FD0082820D11348EC
:101D400004F0BCF9B0BD114C0121204604F0B1F9FA
:101D5000204604F08EF90E4CA079002811D12046BF
:101D60000C30002507222946FFF79FFF14340E226E
:101D700020462946FFF799FFB0BD044804F09CF9BE
:101D8000B0BD1020FFF7AEFF051800201422002080
:101D90008C2100207F2101400020062902D8024822
:101DA0004018007B7047C0468C21002080B5154844
:101DB0000179042917D0022906D0012920D1811DDB
:101DC000124804F053F880BDC2787F2111400629E3
:101DD00016D84A000C4B9A1800239382821D0B4898
:101DE00004F0D0F880BDC2787F211140062907D8C1
:101DF000054A521843791373821D044804F065F8AC
:101E000080BDC046051800208C210020142200202F
:101E100070B5FF2A1ED815460E4604460E485021BE
:101E20000170202101714271D11C817080222243F6
:101E3000C270090A4170062102F0E4FF30462946CB
:101E400002F0E0FF7F2020404000044908187D2177
:101E50000901818270BDC046051800208C21002038
:101E600080B50A46014682201423FFF7D1FF80BDCA
:101E700080B50A46014683201423FFF7C9FF80BDC1
:101E800080B50C480178002900D080BD0621817101
:101E90000A21017008498A784B781B029A187D2321
:101EA0007D2A00D31A464280C91C0448FFF7E7FE8A
:101EB00080BDC0468C21002005180020882000200D
:101EC00010B52048817842781202511800780F2806
:101ED0000ADC0E2810D00F2822D10020012926D19B
:101EE000FFF71CFF012010BD10281DD0162817D1A8
:101EF000FFF7C6FF012010BD13488168643181607F
:101F00002021425A002A08D06423642A144600D3B0
:101F10001C46121B425212040ED0891E1229F0D107
:101F20000220FFF7CDFA10BD0020032900D210BD1A
:101F3000FFF73CFF012010BD002101701020FFF7CA
:101F4000D1FEC046051800208C210020B0B50A2023
:101F500002F062FE084C0025242220462946FFF7A5
:101F6000A4FE65802570A571A56000F0EBFA03481A
:101F700005604560B0BDC0468C210020B021002026
:101F80007047000002480021016041607047C04670
:101F9000B0210020F0B589B00546084600F056FB98
:101FA000002843D00446006900283FD0284600F0AE
:101FB0004DFB014602AD1C2228460192FFF75FFE51
:101FC0002168E98062682A81A068194F65233B7007
:101FD00089B292B24A4342435307D1084A1C002BAC
:101FE00000D10A46009204268640B0181D30B87011
:101FF000000A78700321384602F004FF2846019950
:1020000002F000FFA06838700121384602F0FAFEA5
:10201000E06800F01BFBB1B202F0F4FE009885B25C
:10202000206900F013FB294602F0ECFE09B0F0BD78
:102030000518002070B500F009FB044600787F26E3
:10204000064002F0EBFE002830D1002E2ED0E069D1
:1020500000281DD000F0FAFA0546052E02D1A07E18
:10206000002824D0284605F0B7F906461248652115
:10207000017031461C318170090A4170032102F060
:10208000C1FE1C21204602F0BDFEB1B228460BE085
:10209000094800214170652101701C2585700321CC
:1020A00002F0B0FE2046294602F0ACFE70BD20468C
:1020B0002946FFF76FFF70BD0518002070B5002896
:1020C00029D004461448066845688E4201D16D1C2B
:1020D00045600E43002902D00660324605E000222A
:1020E000026042600D4B5B1C1E438A4201D00021FE
:1020F0004160082D0CD30321284604F065FF01221E
:1021000090073043002900D03046D107884300E0D3
:1021100030462946A04770BDB0210020FFFFFF7F59
:10212000F0B581B00F4E01243470B11C81204700FE
:102130007A1C204602F04CFE054670703A1A371899
:10214000F91C022002F044FEB8702D187619F470C4
:1021500002F032FE3071902070710020B071E81DE5
:1021600001B0F0BD88200020F0B589B00B460646CE
:10217000400708D005960598C0B299B2FFF794FCC5
:1021800080B209B0F0BD80200490834D814C05964B
:10219000102137460F40180471D0002F6FD10393E0
:1021A0000191029707E080210022204602F042FEC2
:1021B000012000F001F902F031FE0028F3D17D206A
:1021C0000001A9680F182878092808DD0A28039952
:1021D0000ED00B2825D189B27348784405E0072832
:1021E00003991BD189B26F48784400F015FA31E0A9
:1021F000FF2006308FB2874200D3C6E05320207004
:10220000A170080A60700321204602F0FBFD6348BC
:10221000394602F0F7FD002028701EE0002800D1AA
:10222000B0E00598C0B289B2FFF73EFC002811D09B
:10223000A8E0FFF75DFD80210022204602F0FAFDB4
:10224000A868B84200D39AE0FFF73AFE02F0E6FD34
:102250000028F0D128780028EBD10020A871287040
:102260006880B1068CD4FFF743FD3006029F0198C9
:1022700005D5069006AA4A4B1846114601DF002FE5
:1022800004D1700676D40020A871287000206880E0
:1022900002F0C4FD002801D1FFF72AFD80210026AD
:1022A0002046324602F0C6FD022806D8A1786278A0
:1022B00012025118C91C81423DD1FFF701FE688806
:1022C00029780029E4D00028E2D038497944042252
:1022D000324F3846FFF7F2FC00282ED034497944BB
:1022E00004223846FFF7EAFC00282BD03149794414
:1022F00004223846FFF7E2FC00283ED104982A3039
:10230000C7B202F041FDB84226D10120234E307001
:10231000B01C402102F02AFD7070811C1C4A13463B
:102320001140049A10327254C11C19400022725498
:10233000031D104618E00020A7E7FFF7F1FE034653
:10234000002011E0002078700499084610303870A1
:1023500005980843022307E0692010490870049893
:10236000401D487002233046C6B20590400700D198
:102370000EE700E76888401F02E7688800E7102042
:10238000FFF7B0FC0920FFF7ADFC0220FFF7AAFC25
:10239000FFFF0000051800208C210020882000206D
:1023A000BE9A006075FCFFFF93FCFFFFC058000061
:1023B000B3580000A858000070B5044602F02EFD86
:1023C000002801D1FFF794FC0C4E802100253046F7
:1023D0002A4602F02FFD3078152806D801218140C9
:1023E0000748014201D0002C05D1FFF769FD012506
:1023F000002800D10546284670BDC04605180020BB
:1024000020702000F0B581B000920446464EB142E3
:1024100010D00F46444D0021402628463246FFF793
:1024200044FC009A402A00D3324628463946FFF73A
:1024300026FC3D4EB07801280ADC002825D0012872
:1024400061D1F01C042102F0FDFB4021304628E060
:10245000022824D0052856D13079F17809020818CD
:10246000324C21680027884253D1206800281BD0B5
:102470000098401F85B22E480168A94201D2006829
:1024800085B22C480068711D2FE0F01C0027042243
:102490003946FFF70AFC40213046A04739E0224880
:1024A0004021A047002734E0B0797179090209186A
:1024B00021480160016841229200914229D80168B7
:1024C0001B48016071783278120251181B4A116062
:1024D00018491B4A0A600099C91F8DB20168A942B8
:1024E00001D2006885B2F11D15482A46FFF7C7FBE7
:1024F0000F480168491B01600E48016849190160D5
:102500002068401C20600A48016801200227002939
:1025100007D10648002101600648016004480160B7
:10252000384601B0F0BDC046B8210020F821002097
:102530000022002004220020FC210020082200208C
:1025400088200020034800210160034801600348FF
:1025500001607047F82100200422002000220020A2
:10256000F0B581B0264F3A68264C2168002921D069
:10257000002A1FD00090264D002140222846FFF758
:1025800094FB0520A87023480168090A2970006897
:1025900068701D490868000AE870086828710968B1
:1025A000206800290ED03B263B2800D826683968D1
:1025B000681D12E014480021016039601348017061
:1025C00021601BE03926392800D826682068000AD7
:1025D00068712068A8713968E81D3246FFF74FFB23
:1025E000009A09492068801B20603868801938608B
:1025F0000868401C086006484021904701B0F0BDC3
:102600000422002000220020F82100208C2100203C
:10261000B82100200822002080B500290BD0064AEE
:1026200000231360054A1160054A064B1360064AF1
:102630001160FFF795FF80BDF821002000220020E7
:102640000422002088200020FC21002080B50449BD
:10265000884204D30349884201D200F005F880BDC6
:102660000000D0C04087D0C07A460249C91C891AF0
:10267000401A70476926D0C0B0B5144605460029F7
:1026800005D06A6A084611462246FFF7F8FA686ADA
:1026900000196862A86A001BA862687C002802D042
:1026A000A8680019A860B0BD70B5017849B2472488
:1026B000E443473466B2B825049CB14204DD0020EF
:1026C00018600121116008E0C9B2A94208D20121B5
:1026D000196000788038106000202070084670BDB6
:1026E0002E460836F6B2B1420BD2B6391960002137
:1026F00021700378B92B0FDCB82B23D0B92B1CD059
:10270000ECE74035EDB2A9420BD201211960007807
:10271000C03810602170E1E7BA2B23D0BB2B17D053
:10272000DCE7F63919600121217003780021F92BCB
:102730000ADCF82B06D0F92BD0D181784078000242
:10274000401816E0407814E0FA2B0BD0FB2BC5D1D3
:102750004178090683781B045918C3781B02C918ED
:10276000007905E04178090483781B025918C07884
:10277000081810600121B1E7F0B587B00446017870
:102780000020092900D1C0E0204610300590201D0E
:1027900004902646183600200390C743B825A16A46
:1027A0000120002900D1B0E0607C002850D1012038
:1027B000002900D1A9E0636A1A78491E5B1C636294
:1027C000A162617C002902D0A168491CA160216A34
:1027D0004B1C23627254217EA9421ED3226A2B46CF
:1027E0000833DBB2994204D20B46B63B934209D878
:1027F0000CE02B464033DBB299420ED30B46F63B3E
:10280000934205D9052A7FD0A16AD1E7E81C01E0EF
:1028100028464330C0B2814276D8684605990160A7
:1028200006AB3046049AFFF73FFF00286CD000202B
:1028300006990029014606D1616AC9196162A16A37
:10284000491CA1620121A060A17420620120607472
:102850002078042822DC022829DC012838D002282C
:1028600052D16068A168884211D90297471AA36AB9
:10287000BB421A4600D33A46676ABF189B1A676282
:10288000A362637C002B01D05118A160029F81429A
:1028900034D103202070002161741FE006280DDC74
:1028A00005281FD006282FD1432080001CE00328D4
:1028B00020D0042828D1216B21311CE0072826D103
:1028C00045208000216B0918204600F072F815E0C1
:1028D0000220207000216174616861616178491C87
:1028E00061700CE02120C000216B0918204600F027
:1028F00037F803E0216B204600F013F82078092810
:1029000000D04CE7039800E0384607B0F0BD082837
:102910003846FAD1216B4231204600F066F800209B
:10292000F3E7B0B50D4604464068A26890420AD964
:10293000A918801AA26A824200D302462046FFF7F5
:102940009BFE6068A268824209D120216854002061
:1029500060742078401C20706078401C6070B0BDAE
:10296000B0B504464068A26890421AD98918801A06
:10297000A26A824200D302462046FFF77DFE212054
:10298000C000216B091860680022002807D00023CE
:102990001A46CD5C120252195B1C8342F9D30A60BD
:1029A000A268824204D1002060742078401C20700C
:1029B000B0BD10B504464068A26890420AD9891893
:1029C000801AA26A824200D302462046FFF754FED4
:1029D0006068A268824207D1002060742078401CA1
:1029E00020706078401C607010BDB0B50D46044684
:1029F0004068A26890420AD9A918801AA26A824245
:102A000000D302462046FFF737FE6068A268824284
:102A100009D120216854002060742078401C207067
:102A20006078401C6070B0BDF0B587B00446417856
:102A30000020212900D17FE2204610300490201D83
:102A400005902646183600200390C743B825A16A92
:102A50000120002900D16FE2607C002853D10120C1
:102A6000002900D168E2636A1A78491E5B1C636220
:102A7000A162617C002902D0A168491CA160216A81
:102A80004B1C23627254217EA94220D3226A2B461A
:102A90000833DBB2994204D20B46B63B934209D8C5
:102AA0000DE02B464033DBB2994210D30B46F63B88
:102AB000934206D9052A00D13DE2A16AD0E7E81C7D
:102AC00001E028464330C0B2814200D933E2684673
:102AD0000499016006AB3046059AFFF7E5FD002832
:102AE00000D128E2002006990029014606D1616A3A
:102AF000C9196162A16A491CA1620121A060A17487
:102B00002062012060746078112838DD18284EDDBD
:102B10001C2876DC1A2800DDB8E0192800D129E14C
:102B20001A2800D007E202974F208700206BC119B6
:102B3000204600F049FAE0680D224243812A13D86A
:102B4000206BC11987181720000138180A2202F0DB
:102B5000CDFFFF207C302E213954BD204000395458
:102B60005F2080003954E068401CE0605B218900F0
:102B7000226B5158884200D0A3E11D20A2E10A280F
:102B800023DD0D2856DD0F2800DDB6E00E2859D0D4
:102B90000F2800D0CFE10021204600F0EBF91120F2
:102BA0000001216B0858012800D181E187E1142838
:102BB0004ADD162800DDB6E0152800D1E8E0162829
:102BC00000D0B8E1216BA53176E1032848DD052866
:102BD00000DDBFE0042800D1DEE0052800D0AAE136
:102BE0002520C000216B09182046FFF7E2FE1120C6
:102BF0000001216B085801218843022818D00A20BF
:102C000064E11E2800DDACE01D2800D1D3E01E28C1
:102C100000D090E10021204600F0D6F9E068401C89
:102C2000E0605B218900226B5158884200D0CDE0E2
:102C300006204BE10B2800D1CAE00C2802D00D2859
:102C400000D078E10021CFE0122800D1D0E0132895
:102C500000D1DAE0142800D06DE1216B84312BE142
:102C6000012800D1D5E0022800D1DCE0032800D003
:102C700061E111200001216B0A58002060740520D9
:102C80000421022A00D221E108461FE11B280297F5
:102C900000D1E2E01C2800D04DE161208000216BD2
:102CA0000818AF4979440522FEF7E9FF4F2081005B
:102CB0000191206B4118204600F086F9FF27384625
:102CC0008A30216B0818019A89180A2202F00EFF37
:102CD00038469430216B2E220A5465208000216BE7
:102CE0000A549637206BC25511200001216B0858F9
:102CF000012800D031E11F20E4E0102800D1D5E008
:102D0000112800D017E1002060741220607011209B
:102D10000001216B0858012800D0D0E00598006818
:102D2000002870D0CBE0172800D1C3E0182800D0CD
:102D300001E1216BE7312046FFF757FE112000012A
:102D4000216B0858012800D1BFE0002800D0F2E034
:102D50001920BBE00A2800D0BFE0002060740B20DF
:102D6000B4E01F2800D0BEE00021204600F02CF97E
:102D70002020ABE01A2060706068312104F09EF8DA
:102D8000216B5B229200885000206074E06096E026
:102D900003986074162099E045208000216B091883
:102DA0002046FFF706FE11200001216B0858042879
:102DB00000D084E0BCE06068622104F07FF8216B01
:102DC0005B229200885003986074E0601E207DE0D2
:102DD000F92002974700206BC01900211E22FEF740
:102DE00064FF206BC119029F204600F0C3F866E023
:102DF000216B63312046FFF7F8FD11200001216BA4
:102E0000085801285BD1172060E0039860741420F3
:102E10005CE002206070002161746168616121786A
:102E2000491C217053E06168A06881420ED9091ADB
:102E3000A26A8A4200D30A46216B081811210901AF
:102E400041182046FFF718FC6168A068884236D117
:102E5000002060746078401C38E017200001216B6E
:102E60000818414979440722FEF709FF4F208100E5
:102E70000191206B4118204600F0A6F8FF27384644
:102E80007830216B0818019A89180A2202F02EFE68
:102E900038468230216B2E220A54C1204000216B1B
:102EA0000A548437206BC255029F08E000206074EA
:102EB00011200BE0216BC6312046FFF796FD6078AC
:102EC00005E01A206070029F01E01B206070C0B214
:102ED000212800D0BBE503982EE006281AD0072849
:102EE000384625D028E02028384625D12125EE0077
:102EF000206B81192046FFF733FD206B8159002993
:102F00001CD045229200801801291ED1174979440E
:102F10000D221DE0216B42312046FFF766FD112096
:102F20000001216B0858032805D80128384603D032
:102F3000212060700FE0384607B0F0BD45218900C0
:102F40004018084979440B2202E0094979440F22CC
:102F5000FEF795FE65700020EEE70298ECE7C046AC
:102F6000FF4E0000654C0000374D0000A74C0000EC
:102F7000774C000070B504464068A368984218D9A1
:102F8000C61AA56AB5422A4600D33246002906D0A1
:102F9000C9182046FFF770FB6068A36809E0A91A0A
:102FA000A162616A89186162617C002901D0D3182D
:102FB000A360834207D1002060742078401C2070F9
:102FC0006078401C607070BD70B504464068A368AE
:102FD000984218D9C61AA56AB5422A4600D3324685
:102FE000002906D0C9182046FFF746FB6068A36891
:102FF00009E0A91AA162616A89186162617C0029ED
:1030000001D0D318A360834204D10020607460789B
:10301000401C607070BD0000F0B581B01D461646C2
:103020000091002803D0774877490F5A15E0764C75
:103030000027764A20463946FEF737FE74482018A6
:1030400034223946FEF731FE8520C000611C215034
:103050006C4827526F480121215478196E498842E3
:1030600000D3C7E0684CE019401C31462A46FEF701
:1030700006FE6449605A401960520099022900D046
:10308000BBE066490122625462490025655480B262
:10309000634960508720C0002018624960505C4836
:1030A0002018FFF7C1FC002800D0A0E0A920C6002E
:1030B000A05901280ADD022811D0032816D16F205B
:1030C000000120185D4979440B2220E0002816D128
:1030D0006F20000120185A497944112217E06F200F
:1030E0000001201854497944092210E004287ED1B7
:1030F0006F20000120184F497944102207E0012871
:1031000075D16F2000012018494979440F22FEF73C
:10311000B6FDA059012808D143482118CD20C00090
:1031200020180F22FEF7ABFD06E0CD20C0002018CE
:1031300000218422FEF7B9FD069800902C273B4E13
:103140000520F0556420032131543E487844B06294
:103150003D48784435637063B5663046643001F0AD
:103160001FFE0424204601F08DFEB066FEF708FF26
:10317000FEF708FFF584204601F084FEB066B16AD0
:1031800000292DD000282BD0972829D0F08CAA24F4
:10319000F15D80B2884223D201F040FE00281FD1A9
:1031A00001F0C8FDA04203D101F0EEFDA04217D10D
:1031B000B06AF18C49014018316B002902D0884770
:1031C000002807D0012803D1B06AF18C49014018CA
:1031D000FEF772F9F08C401CF084B16A0029D7D157
:1031E000009A106810210143116001B0F0BD022067
:1031F000FEF778FD0320FEF775FD09200003FEF7BA
:1032000071FDC0460204000084190020040700007C
:103210000404000002070000FD0300000504000094
:103220002C040000340400004C0500008818002025
:10323000DA4A00000F4B00000D4B0000364B000037
:10324000FB4A0000444B0000F7000000F0B581B0DD
:103250007A4988420BD07A49884205D17E480021BC
:10326000FEF71AF9FEF706F9002001B0F0BDCD20F7
:10327000C000744E35180024842228462146FEF7EB
:1032800014FDA920C0003058012868D82B20400127
:10329000311814222846FCF763FF6C482A2131506C
:1032A0006F20000130180C222946FEF7E8FC684820
:1032B00034542C210091674F052078546420032159
:1032C0003954347065487844B862654878443C6342
:1032D0007863BC663846643001F062FD04252846F8
:1032E00001F0D0FDB866FEF74BFEFEF74BFEFC8406
:1032F0002846009D01F0C6FDB866B96A0029B3D022
:103300000028B1D09728AFD0F88CAA24795D80B27C
:103310008842A9D201F082FD0028A5D101F00AFD62
:10332000A04203D101F030FDA0429DD1B86AF98CD2
:1033300049014018396B002902D08847002807D07E
:10334000012803D1B86AF98C49014018FEF7B4F896
:10335000F88C401CF884B96A0029D7D184E73A4830
:10336000311814222846FCF7FBFE38482A21315038
:103370006F20000130180C222946FEF780FC3448EB
:1033800034542C210091334F0520785464200321BC
:103390003954347033487844B862334878443C63D5
:1033A0007863BC663846643001F0FAFC0425284690
:1033B00001F068FDB866FEF7E3FDFEF7E3FDFC846F
:1033C0002846009D01F05EFDB866B96A002900D16B
:1033D0004AE7002800D147E7972800D144E7F88C56
:1033E000AA24795D80B2884200D33DE701F016FD42
:1033F000002800D038E701F09DFCA04204D101F084
:10340000C3FCA04200D02FE7B86AF98C49014018EC
:10341000396B002902D08847002807D0012803D142
:10342000B86AF98C49014018FEF746F8F88C401C40
:10343000F884B96A0029D4D116E7C046020000809A
:1034400001000080841900204C050000EC060000FB
:10345000FC06000088180020856900006A4A000008
:103460009D0100003A4A000061050000F0B581B0FE
:10347000012808DD022863D0DF49884260D0DF4997
:10348000884207D01CE2DE49884200D1B0E0012822
:1034900000D015E2DB490878002500282A4602D032
:1034A000401E0870C2B26F20000108188918CD2292
:1034B000D20089180C22FEF7E2FBFEF761FDFEF751
:1034C00061FDD14CE584042001F0DCFCA066A16A1A
:1034D000002900D1F4E1002800D1F1E1972800D1C2
:1034E000EEE1E08CAA252C21615C80B2884200D3F9
:1034F000E6E101F093FC002800D0E1E101F01AFCC4
:10350000A84204D101F040FCA84200D0D8E1A06A52
:10351000E18C49014018216B002902D0884700281E
:1035200007D0012803D1A06AE18C49014018FDF7BA
:10353000C3FFE08C401CE084A16A0029D3D1BFE125
:10354000E548E24908580C380A78904202D9501CE4
:103550000870C2B26F20000108188918CD22D2006D
:1035600089180C22FEF78BFBFEF70AFDFEF70AFD19
:10357000DA4C0020E084042001F084FCA066A16AFB
:10358000002900D19CE1002800D199E1972800D1C1
:1035900096E1E08CAA252C21615C80B2884200D3A0
:1035A0008EE101F03BFC002800D089E101F0C2FB74
:1035B000A84204D101F0E8FBA84200D080E1A06A53
:1035C000E18C49014018216B002902D0884700286E
:1035D00007D0012803D1A06AE18C49014018FDF70A
:1035E0006BFFE08C401CE084A16A0029D3D167E125
:1035F000CD20C000B54D2F18002484223846214626
:10360000FEF753FBA920C000285801286ED8B54802
:103610002E18304603F0E0FE024638463146FEF7EB
:103620002EFB304603F0D8FEAB4968506F200001F6
:1036300028180C223946FEF722FB2C26A74F05201E
:10364000B855642003213954A7487844B862A74884
:1036500078443C637863BC663846643001F0A0FB74
:103660000425284601F00EFCB866FEF789FCFEF73B
:1036700089FCFC84284601F005FCB866B96A00297B
:1036800000D11DE1002800D11AE1972800D117E1EF
:10369000F88CAA24B95D80B2884200D310E101F011
:1036A000BDFB002800D00BE101F044FBA04204D197
:1036B00001F06AFBA04200D002E1B86AF98C49012E
:1036C0004018396B002902D08847002807D001280C
:1036D00003D1B86AF98C49014018FDF7EDFEF88C6A
:1036E000401CF884B96A0029D4D1E9E0C920C0009F
:1036F0002E1800213C462027304600913A46FEF71E
:10370000D4FA73482A5CB81A301872496918FEF75F
:10371000B6FA71482B184E2230462746214602F051
:1037200093F8002800D1CEE0009C2C706A482A58FB
:103730006F2000010D2A69D328180C223946FEF7A4
:103740009EFA67482C542C26644F0520B8556420F7
:103750000321395466487844B862664878443C632B
:103760007863BC663846643001F01AFB04252846AD
:1037700001F088FBB866FEF703FCFEF703FCFC844F
:10378000284601F07FFBB866B96A002900D197E0AE
:10379000002800D194E0972800D191E0F88CAA2469
:1037A000B95D80B2884200D38AE001F037FB00287F
:1037B00000D085E001F0BEFAA04203D101F0E4FAA6
:1037C000A0427DD1B86AF98C49014018396B0029B3
:1037D00002D08847002807D0012803D1B86AF98CA5
:1037E00049014018FDF768FEF88C401CF884B96A5E
:1037F0000029D5D164E0C04602000040010000402D
:103800000300008084190020881800202E183046FC
:103810003946FEF734FA3048285834542C262F4FB6
:103820000520B85564200321395433487844B862E0
:10383000324878443C637863BC663846643001F0B3
:10384000AFFA0425284601F01DFBB866FEF798FB89
:10385000FEF798FBFC84284601F014FBB866B96AB1
:1038600000292DD000282BD0972829D0F88CAA2405
:10387000B95D80B2884223D201F0D0FA00281FD16E
:1038800001F058FAA04203D101F07EFAA04217D10C
:10389000B86AF98C49014018396B002902D0884771
:1038A000002807D0012803D1B86AF98C49014018D3
:1038B000FDF702FEF88C401CF884B96A0029D7D1C4
:1038C000002001B0F0BD0320FEF70CFA841900209F
:1038D0009A0400007A040000EC060000881800201A
:1038E000FC0600002A06000026480000F90500003A
:1038F000BA4700006D08000084470000F709000087
:10390000F0B581B0012808DD022863D0C44988429F
:1039100060D0C449884207D07FE1C349884200D1C2
:10392000B0E0012800D078E1C049087800250028DF
:103930002A4602D0401E0870C2B26F20000108184B
:103940008918CD22D20089180C22FEF798F9FEF7CB
:1039500017FBFEF717FBB74CE584042001F092FA41
:10396000A066A16A002900D157E1002800D154E1E6
:10397000972800D151E1E08CAA252C21615C80B20E
:10398000884200D349E101F049FA002800D044E11F
:1039900001F0D0F9A84204D101F0F6F9A84200D014
:1039A0003BE1A06AE18C49014018216B002902D05B
:1039B0008847002807D0012803D1A06AE18C49017B
:1039C0004018FDF779FDE08C401CE084A16A0029D5
:1039D000D3D122E19848954908580C380A7890428A
:1039E00002D9501C0870C2B26F2000010818891853
:1039F000CD22D20089180C22FEF741F9FEF7C0FA59
:103A0000FEF7C0FA8B4C0020E084042001F03AFA63
:103A1000A066A16A002900D1FFE0002800D1FCE0E7
:103A2000972800D1F9E0E08CAA252C21615C80B2B6
:103A3000884200D3F1E001F0F1F9002800D0ECE079
:103A400001F078F9A84204D101F09EF9A84200D013
:103A5000E3E0A06AE18C49014018216B002902D003
:103A60008847002807D0012803D1A06AE18C4901CA
:103A70004018FDF721FDE08C401CE084A16A00297C
:103A8000D3D1CAE0CD20C000684E3518002484226E
:103A900028462146FEF709F9A920C000305804281D
:103AA00056D12C26634F0425BD556420032139547B
:103AB00062487844B862624878443C637863BC6684
:103AC0003846643001F06CF9284601F0DBF9B8663D
:103AD000FEF756FAFEF756FAFC84284601F0D2F9B2
:103AE000B866B96A002900D197E0002800D194E0B7
:103AF000972800D191E0F88CAA24B95D80B2884261
:103B000000D38AE001F08AF9002800D085E001F0B6
:103B100011F9A04203D101F037F9A0427DD1B86A72
:103B2000F98C49014018396B002902D088470028D8
:103B300007D0012803D1B86AF98C49014018FDF774
:103B4000BBFCF88C401CF884B96A0029D5D164E02C
:103B50002B204001311814222846FCF701FB6F206E
:103B6000000130180C222946FEF789F830483454F9
:103B70002C2100912F4F05207854642003213954C3
:103B8000347030487844B8622F4878443C63786396
:103B9000BC663846643001F003F90425284601F07C
:103BA00071F9B866FEF7ECF9FEF7ECF9FC842846EB
:103BB000009D01F067F9B866B96A00292DD0002888
:103BC0002BD0972829D0F88CAA24795D80B288421E
:103BD00023D201F023F900281FD101F0ABF8A04255
:103BE00003D101F0D1F8A04217D1B86AF98C49018C
:103BF0004018396B002902D08847002807D00128D7
:103C000003D1B86AF98C49014018FDF755FCF88CCE
:103C1000401CF884B96A0029D7D1002001B0F0BD5A
:103C200002000040010000400300008084190020D1
:103C3000FC06000088180020EC0600007E4700000B
:103C4000E5100000AC410000DFF8FFFFF0B599B0CF
:103C5000012808DD022863D0CA49884260D0CA49D9
:103C6000884207D088E1C949884200D1B0E00128E4
:103C700000D081E1C6490878002500282A4602D0F4
:103C8000401E0870C2B26F20000108188918CD22AA
:103C9000D20089180C22FDF7F2FFFEF771F9FEF74A
:103CA00071F9C44CE584042001F0ECF8A066A16A27
:103CB000002900D160E1002800D15DE1972800D102
:103CC0005AE1E08CAA252C21615C80B2884200D3A5
:103CD00052E101F0A3F8002800D04DE101F02AF8EC
:103CE000A84204D101F050F8A84200D044E1A06AF3
:103CF000E18C49014018216B002902D08847002837
:103D000007D0012803D1A06AE18C49014018FDF7D2
:103D1000D3FBE08C401CE084A16A0029D3D12BE1C5
:103D2000A3489B4908580C380A78904202D9501C85
:103D30000870C2B26F20000108188918CD22D20085
:103D400089180C22FDF79BFFFEF71AF9FEF71AF906
:103D5000984C0020E084042001F094F8A066A16A49
:103D6000002900D108E1002800D105E1972800D101
:103D700002E1E08CAA252C21615C80B2884200D34C
:103D8000FAE001F04BF8002800D0F5E000F0D2FF97
:103D9000A84204D100F0F8FFA84200D0ECE0A06AED
:103DA000E18C49014018216B002902D08847002886
:103DB00007D0012803D1A06AE18C49014018FDF722
:103DC0007BFBE08C401CE084A16A0029D3D1D3E0C6
:103DD000A920C5006E4C6059012800D9CCE0CD2047
:103DE000C000019026180021842230460391FDF77F
:103DF0005CFF714979440522049630460292FDF732
:103E00003EFF6448215C6448201805AA01F0E0FDEB
:103E1000002800D1B3E005AE304603F0DDFA0246DB
:103E20005E4820183146FDF72AFF304603F0D4FAE9
:103E300007466159401D002942D1201801994018B8
:103E40005E4979440522FDF71AFF5548215C554823
:103E5000201805AA01F0BCFD0A37002800D18EE029
:103E60000498C51905AE304603F0B6FA0246284656
:103E70003146FDF704FF304603F0AEFAC519049849
:103E800040194F4979440822FDF7F9FE4648215C64
:103E900046482018324601F09BFD083500286ED0B8
:103EA00060190199471805AE304603F095FA0246AD
:103EB00038463146FDF7E3FE304603F08DFA4019EF
:103EC0003B4960506F20000120180C220499FDF737
:103ED000D6FE2C25374E02987055642003213154AC
:103EE00038487844B06238487844039F3763706339
:103EF000B7663046643000F053FF0424204600F0DB
:103F0000C1FFB066FEF73CF8FEF73CF8F7842046A8
:103F100000F0B8FFB066B16A00292DD000282BD080
:103F2000972829D0F08CAA24715D80B2884223D2D0
:103F300000F074FF00281FD100F0FCFEA04203D166
:103F400000F022FFA04217D1B06AF18C490140185D
:103F5000316B002902D08847002807D0012803D1FF
:103F6000B06AF18C49014018FDF7A6FAF08C401CAC
:103F7000F084B16A0029D7D1002019B0F0BD032028
:103F8000FDF7B0FE02000040010000400300008089
:103F900084190020BB0400009B0400006D06000093
:103FA000DC040000BC040000FD040000DD0400008F
:103FB000EC060000881800203B3E0000F33D0000A6
:103FC000B73D00006E41000021040000F0B581B053
:103FD000012808DD022821D08C4988421ED08C4956
:103FE000884206D00FE18B4988422ED0012800D0AC
:103FF00009E18B4802780021002A02D0511E01708D
:10400000C9B2864A82584118CD23DB00C9180D2A4F
:1040100074D36F22120180180C2272E07F4980480D
:10402000425813460C3B01788B4202D9491C01705F
:10403000C9B24118CD23DB00C9180D2A00D2A0E077
:104040006F22120180180C229EE02C25724E04244F
:10405000745564200321315472487844B062724828
:104060007844002737637063B7663046643000F0E9
:1040700097FE204600F006FFB066FDF781FFFDF7D2
:1040800081FFF784204600F0FDFEB066B16A00298A
:1040900000D1B8E0002800D1B5E0972800D1B2E007
:1040A000F08CAA24715D80B2884200D3ABE000F0AE
:1040B000B5FE002800D0A6E000F03CFEA04204D1EE
:1040C00000F062FEA04200D09DE0B06AF18C490190
:1040D0004018316B002902D08847002807D00128FA
:1040E00003D1B06AF18C49014018FDF7E5F9F08C75
:1040F000401CF084B16A0029D4D184E06F231B01F5
:10410000C018FDF7BCFDFDF73BFFFDF73BFF424C40
:104110000020E084042000F0B5FEA066A16A00291A
:1041200071D000286FD097286DD0E08CAA252C2163
:10413000615C80B2884266D200F070FE002862D1D5
:1041400000F0F8FDA84203D100F01EFEA8425AD1AB
:10415000A06AE18C49014018216B002902D08847F0
:10416000002807D0012803D1A06AE18C490140183A
:10417000FDF7A2F9E08C401CE084A16A0029D6D1A9
:1041800041E06F231B01C018FDF779FDFDF7F8FE34
:10419000FDF7F8FE204C0020E084042000F072FEC1
:1041A000A066A16A00292ED000282CD097282AD0FA
:1041B000E08CAA252C21615C80B2884223D200F0D9
:1041C0002DFE00281FD100F0B5FDA84203D100F05C
:1041D000DBFDA84217D1A06AE18C49014018216B90
:1041E000002902D08847002807D0012803D1A06AFF
:1041F000E18C49014018FDF75FF9E08C401CE08438
:10420000A16A0029D6D1002001B0F0BD0200004013
:10421000010000400300008088180020EC06000028
:1042200084190020D64100003D0B0000F0B581B09C
:104230003049884209D03049884258D1304800215D
:10424000FDF72AF9FDF716F951E02C252B4E042431
:1042500074556420032131542A487844B0622A48B6
:104260007844002737637063B7663046643000F0E7
:1042700097FD204600F006FEB066FDF781FEFDF7D3
:1042800081FEF784204600F0FDFDB066B16A00298A
:104290002DD000282BD0972829D0F08CAA24715D2E
:1042A00080B2884223D200F0B9FD00281FD100F06F
:1042B00041FDA04203D100F067FDA04217D1B06AD2
:1042C000F18C49014018316B002902D08847002841
:1042D00007D0012803D1B06AF18C49014018FDF7DD
:1042E000EBF8F08C401CF084B16A0029D7D1002093
:1042F00001B0F0BD0200008001000080881800209D
:1043000085690000D63F00003D090000F0B585B08A
:10431000012808DD022863D0D249884260D0D24902
:10432000884207D098E1D149884200D1B0E0012805
:1043300000D091E1CE490878002500282A4602D015
:10434000401E0870C2B26F20000108188918CD22E3
:10435000D20089180C22FDF792FCFDF711FEFDF743
:1043600011FECC4CE584042000F08CFDA066A16A0F
:10437000002900D170E1002800D16DE1972800D11B
:104380006AE1E08CAA252C21615C80B2884200D3CE
:1043900062E100F043FD002800D05DE100F0CAFCBE
:1043A000A84204D100F0F0FCA84200D054E1A06A79
:1043B000E18C49014018216B002902D08847002870
:1043C00007D0012803D1A06AE18C49014018FDF70C
:1043D00073F8E08C401CE084A16A0029D3D13BE152
:1043E000AB48A34908580C380A78904202D9501CAF
:1043F0000870C2B26F20000108188918CD22D200BF
:1044000089180C22FDF73BFCFDF7BAFDFDF7BAFD5C
:10441000A04C0020E084042000F034FDA066A16AD6
:10442000002900D118E1002800D115E1972800D11A
:1044300012E1E08CAA252C21615C80B2884200D375
:104440000AE100F0EBFC002800D005E100F072FC6E
:10445000A84204D100F098FCA84200D0FCE0A06A79
:10446000E18C49014018216B002902D088470028BF
:1044700007D0012803D1A06AE18C49014018FDF75B
:104480001BF8E08C401CE084A16A0029D3D1E3E052
:10449000A920C400764F3859012800D9DCE0CD208E
:1044A000C00002903E18002184223046FDF7FDFB3B
:1044B00038590028039607D07949794404253046B5
:1044C0002A46FDF7DCFB29E0734979440722304690
:1044D000FDF7D5FBC920C0003C180021202520464F
:1044E0002A46FDF7E2FB63483A5CA81A20186249A5
:1044F0007918FDF7C4FB614EB9194E2204AB204672
:1045000001F0A2F9002800D1A9E0049D78198019D2
:10451000624979440522FDF7B2FB0C35C920C00081
:104520003E180021202430462246FDF7BEFB5448A9
:104530003A5CA01A301853497918FDF7A0FB781996
:10454000029941184E2204AB304601F07DF9002853
:1045500000D184E004984719039DE8195149794432
:1045600005220192FDF78BFB002130460291224685
:10457000FDF79BFB44483E490B460A5CA01A3018E5
:1045800042495918FDF77BFB7C1D29194E2204ABCB
:10459000304601F059F9002861D0049800193C49CF
:1045A000334A50506F20000110180C222946FDF7A5
:1045B00066FB2C26374F0198B855642003213954E7
:1045C00039487844B86239487844029D3D6378633D
:1045D000BD663846643000F0E3FB0424204600F05A
:1045E00051FCB866FDF7CCFCFDF7CCFCFD84204601
:1045F00000F048FCB866B96A00292DD000282BD0FD
:10460000972829D0F88CAA24B95D80B2884223D299
:1046100000F004FC00281FD100F08CFBA04203D165
:1046200000F0B2FBA04217D1B86AF98C49014018DA
:10463000396B002902D08847002807D0012803D110
:10464000B86AF98C49014018FCF736FFF88C401C19
:10465000F884B96A0029D7D1002005B0F0BD032045
:10466000FDF740FB02000040010000400300008015
:10467000841900209A0400007A0400006F060000EC
:104680001E050000FE0400003F0500001F0500009D
:10469000EC06000088180020853700004537000030
:1046A0009E370000D73600002E3B0000E5000000DA
:1046B000F0B581B0012808DD022863D09E49884208
:1046C00060D09E49884207D032E19D49884200D19E
:1046D000B0E0012800D02BE19A4908780025002895
:1046E0002A4602D0401E0870C2B26F20000108188E
:1046F0008918CD22D20089180C22FDF7C0FAFDF7E7
:104700003FFCFDF73FFC924CE584042000F0BAFB2F
:10471000A066A16A002900D10AE1002800D107E1C2
:10472000972800D104E1E08CAA252C21615C80B29D
:10473000884200D3FCE000F071FB002800D0F7E0D5
:1047400000F0F8FAA84204D100F01EFBA84200D005
:10475000EEE0A06AE18C49014018216B002902D0EB
:104760008847002807D0012803D1A06AE18C4901BD
:104770004018FCF7A1FEE08C401CE084A16A0029EF
:10478000D3D1D5E071486F4908580C380A78904267
:1047900002D9501C0870C2B26F2000010818891895
:1047A000CD22D20089180C22FDF769FAFDF7E8FB4B
:1047B000FDF7E8FB664C0020E084042000F062FB7B
:1047C000A066A16A002900D1B2E0002800D1AFE0C4
:1047D000972800D1ACE0E08CAA252C21615C80B246
:1047E000884200D3A4E000F019FB002800D09FE02D
:1047F00000F0A0FAA84204D100F0C6FAA84200D006
:1048000096E0A06AE18C49014018216B002902D092
:104810008847002807D0012803D1A06AE18C49010C
:104820004018FCF749FEE08C401CE084A16A002996
:10483000D3D17DE0CD20C000424F3D18002484221A
:1048400028462146FDF731FAA920C0003858002833
:1048500004D0B520C000391826260AE0B520C000D3
:104860003918394838580A220A2800DB10460D2624
:10487000464328463246FDF702FA34483E506F2040
:10488000000138180C222946FDF7F9F92C26304F83
:104890000520B8556420032139542E487844B86265
:1048A0002D4878443C637863BC663846643000F039
:1048B00077FA0425284600F0E5FAB866FDF760FBB4
:1048C000FDF760FBFC84284600F0DCFAB866B96AA4
:1048D00000292DD000282BD0972829D0F88CAA2485
:1048E000B95D80B2884223D200F098FA00281FD127
:1048F00000F020FAA04203D100F046FAA04217D1FE
:10490000B86AF98C49014018396B002902D08847F0
:10491000002807D0012803D1B86AF98C4901401852
:10492000FCF7CAFDF88C401CF884B96A0029D7D17D
:10493000002001B0F0BDC046020000400100004070
:104940000300008084190020A4050000EC0600008C
:1049500088180020F4380000B7000000F0B581B0DE
:10496000012808DD022863D08549884260D0854946
:10497000884207D001E18449884200D1ABE0012898
:1049800000D0FAE083490878002500282A4602D0A2
:10499000401E0870C2B26F20000108188918CD228D
:1049A000D20089180C22FDF76AF9FDF7E9FAFDF744
:1049B000E9FA764CE584042000F064FAA066A16A66
:1049C000002900D1D9E0002800D1D6E0972800D1F5
:1049D000D3E0E08CAA252C21615C80B2884200D310
:1049E000CBE000F01BFA002800D0C6E000F0A2F9EE
:1049F000A84204D100F0C8F9A84200D0BDE0A06AE6
:104A0000E18C49014018216B002902D08847002819
:104A100007D0012803D1A06AE18C49014018FCF7B6
:104A20004BFDE08C401CE084A16A0029D3D1A4E0B6
:104A30005748584908580C380A78904202D9501CF7
:104A40000870C2B26F20000108188918CD22D20068
:104A500089180C22FDF713F9FDF792FAFDF792FA87
:104A60004A4C0020E084042000F00CFAA066A16A01
:104A7000002900D181E000287FD097287DD0E08CEC
:104A8000AA252C21615C80B2884276D200F0C6F95A
:104A9000002872D100F04EF9A84203D100F074F959
:104AA000A8426AD1A06AE18C49014018216B002913
:104AB00002D08847002807D0012803D1A06AE18CE2
:104AC00049014018FCF7F8FCE08C401CE084A16A26
:104AD0000029D6D151E02C252C4E04247455642095
:104AE000032131542C487844B0622C487844002784
:104AF00037637063B7663046643000F051F9204682
:104B000000F0C0F9B066FDF73BFAFDF73BFAF78419
:104B1000204600F0B7F9B066B16A00292DD0002810
:104B20002BD0972829D0F08CAA24715D80B28842BE
:104B300023D200F073F900281FD100F0FBF8A04247
:104B400003D100F021F9A04217D1B06AF18C4901DC
:104B50004018316B002902D08847002807D001286F
:104B600003D1B06AF18C49014018FCF7A5FCF08C28
:104B7000401CF084B16A0029D7D1002001B0F0BDFB
:104B8000020000400100004003000080881800205F
:104B9000EC060000841900204A370000B100000034
:104BA00070B5ECB01549884205D01549884222D12C
:104BB000174800211BE00124210202AD284600F025
:104BC00063F8104810490B5A20206A46C926F6009F
:104BD0008E19166050604A1C2846214600F040F8A5
:104BE0000A483146FCF7A8FB092000034121FCF7E5
:104BF00053FCFCF73FFC00206CB070BD020000804D
:104C00000100008002040000841900208820002098
:104C10008569000001DF704780B584B001900348CA
:104C200001A9FFF7F7FF04B080BDC046370100605F
:104C300080B582B002486946FFF7ECFF02B080BD44
:104C40003C02006080B584B0009001910348694641
:104C5000FFF7E0FF019804B080BDC0462C0500605E
:104C600080B588B000900191029203930A98049055
:104C70000B98059003486946FFF7CCFF019808B0F0
:104C800080BDC0463B07006080B584B000900191B4
:104C900003486946FFF7BEFF019804B080BDC046D7
:104CA000CF10006080B586B000900191029203930E
:104CB00003486946FFF7AEFF019806B080BDC046C5
:104CC000ED2D006080B586B00090019102920393B3
:104CD00003486946FFF79EFF019806B080BDC046B5
:104CE000EA2E006080B586B0009001910292039395
:104CF00003486946FFF78EFF019806B080BDC046A5
:104D00002E2F006080B58AB000900191029203932B
:104D10000C9804900D9805900E9806900F980790A7
:104D200003486946FFF776FF01980AB080BDC04688
:104D3000F338006080B582B003486946FFF76AFF28
:104D40000198C0B202B080BD4F9F006080B588B0AE
:104D500001900291039204930A980590024801A9D8
:104D6000FFF758FF08B080BDBA53006080B584B02B
:104D70000090019103486946FFF74CFF019804B089
:104D800080BDC046FCA8006080B582B0034869467B
:104D9000FFF740FF0198C0B202B080BD3CA00060A8
:104DA00080B584B00190034801A9FFF733FF029852
:104DB00004B080BD5864006080B582B00348694685
:104DC000FFF728FF019802B080BDC0466E6A006000
:104DD00080B586B0019002910392034801A9FFF7C4
:104DE00019FF029806B080BDD474006080B584B00D
:104DF0000190034801A9FFF70DFF04B080BDC04634
:104E0000BE9A006080B584B0009001910248694666
:104E1000FFF700FF04B080BD8183006080B582B0E1
:104E200003486946FFF7F6FE019802B080BDC04610
:104E3000BB84006080B586B0019002910392044863
:104E400001A9FFF7E7FE029880B206B080BDC04618
:104E5000E485006080B582B003486946FFF7DAFE5A
:104E6000019802B080BDC046B187006080B584B0B3
:104E70000190034801A9FFF7CDFE029804B080BD60
:104E80007588006080B584B00190044801A9FFF7DF
:104E9000C1FE0298C0B204B080BDC0468B9C0060C9
:104EA000417909040279120651188279120289188F
:104EB000C2798A180178090643781B045918837847
:104EC0001B02C918C078091810467047B0B50C46C7
:104ED0000546FFF7E5FF03C428460830083CFFF706
:104EE000DFFFA060E16028461030FFF7D9FF2061A6
:104EF000616118352846FFF7D3FFA061E161B0BDBD
:104F0000F0B581B01446802905D300202060606090
:104F1000A060E0603AE00D460646002907D0402D2B
:104F20000CD1B068F168002207C422602EE003CEE5
:104F300003C4306871686160206027E03F2D19D894
:104F400003CE2A46083E02F051F807460091402061
:104F5000421BB068F16802F03DF8C019206000986B
:104F600041416160B068F1682A4602F03FF8A060F4
:104F7000E1600BE0402DC8D0B068F1680022A2606B
:104F8000E260403D2A4602F031F803C401B0F0BDB2
:104F9000F0B593B014460546080A04D020212046F7
:104FA00002F066F965E00E4600290ED0802E1BD176
:104FB0002869696903C4A869E96961602060002003
:104FC000083CE0616061A0610CE003CD03C4286887
:104FD000696861602060A868E968E160A06028698C
:104FE00069696161206144E07F2E34D80EAA2846A9
:104FF0003146FFF785FF8020811B10350AAA28461D
:1050000000F039F80F990B980E9A0A9B9A184841AC
:105010000021109B0C9FFB180493119B0D9F5F4177
:1050200005974A4102924841039002AA103228464D
:105030003146FFF765FF0298009003AFEECF099865
:105040000190009820606160A260E3602561666164
:10505000A76101980CE0802EA0D01035803E284634
:1050600031462246FFF74CFF002020616061A061BD
:10507000E06113B0F0BDF0B583B01446802905D3CC
:10508000002020606060A060E0603DE00D460646C4
:10509000002906D0402D0CD100206060206003CE96
:1050A00004E003CE03C430687168083CE160A0608E
:1050B0002AE03F2D1CD837687168029138462A468D
:1050C00001F088FFB268F36803C4104619462A4607
:1050D000083C01F07FFF064601914020421B384604
:1050E000029901F083FF3018A060019841410AE065
:1050F000402DC5D003CE002222606260403D2A468A
:1051000001F068FFA060E16003B0F0BDF0B593B0BE
:1051100014460546080A04D02021204602F0A8F8CB
:1051200060E00E4600290ED0802E1BD103CD6161B8
:10513000206128686968E161A0610020E06060602A
:10514000A06020604EE003CD03C4286869686160F8
:105150002060A868E968E160A06028696969616108
:1051600020613FE07F2E2FD802AA28463146FFF764
:1051700082FF284610300EAA3146FFF77CFF8020C0
:10518000811B0AAA2846FFF7BBFE0F9A0B980E99BF
:105190000A9B591850410025109A0C9B9A180192AD
:1051A0000892119E0D9B73410993694106916841D4
:1051B000079002AFE0CF059AE0C422606160A06072
:1051C0000198E06023610DE0802EA5D0803E22464C
:1051D000103228463146FFF74EFF00202060606005
:1051E000A060E06013B0F0BD70B50468031D0ECB85
:1051F0001E460E43154625433543002D17D080200B
:10520000002D34D080205208DD0752196508CE07E2
:10521000AD192E461643E4075B08E31849080C460F
:105220001C433443401C002C2C46ECD11FE0046985
:10523000034614330ECB0846184325461543054351
:105240000020002D13D000205208DD0752196508F8
:10525000CE07AD192E461643E4075B08E31849084C
:105260000C461C433443401C002C2C46ECD170BD32
:10527000F0B50B684A6805684468264656402F46D4
:105280005F403743002F1FD18B68CA688568C468A8
:10529000264656402F465F403743002F14D10B69F6
:1052A0004A6905694469264656402F465F403743A0
:1052B000002F09D18269C3698C69CD690120002161
:1052C000A21A9D4105D205E0012000215B1BA241ED
:1052D00000D30846F0BD70B50D460446FFF7C8FF81
:1052E00001460120002925D103CD0CCC4B40424082
:1052F0001A430020083C083D002A1BD1A968EA682F
:10530000A368E66856404B403343002B12D129690D
:105310006A692369666956404B403343002B09D1C3
:10532000A869E969A269E3694B4042401A43002039
:10533000801A504170BDF0B590B00F924C68436830
:105340000A680568AA1AA34100270D92521E0C9202
:105350001A46BA410B92CA680E92C5688C68826878
:105360000126121B0E9A95410E9634463E4600D3F6
:105370003446002C00D10B930F9A0B9B5360002CEA
:1053800001D10D9A0C920F9D0C9A2A60CA68C768C9
:105390008B688468E31A0493AB6097410597EF60CC
:1053A0004A6945690B6904690694E71A00959541B5
:1053B0007A1E09920D95B541CC690896C6698A692D
:1053C00083690A9201939A1A02960394A6410E9A4F
:1053D00000D3089A002A00D109970E97099F069BCF
:1053E0005F40002A019C0D9A009E00D115462A4676
:1053F000724017430A461832089202461832079242
:10540000103110300F9A0832002F09D125460A9B1F
:10541000E41A029E3446039FBC410E9B09D330E040
:10542000069F099BFF1AAE410E9B039F029E2546D5
:1054300027D200260C9C631E0E930B9C2746B74177
:10544000049D059B1D43002D00D027460F9C6760DF
:10545000002D0E9B00D00C9B0F9C2360049B5C1EB8
:10546000059BB341146053600A684968046840684A
:10547000A31A88410D90089801680A914768079817
:1054800060C800240E93581E0C900D9B1946A14134
:1054900001220A982D1ABE4100D32246002A00D1CB
:1054A00019460F9B5961002A0E990C9800D10846A5
:1054B0000F9C2061089903C9079B0CCB101AA061AF
:1054C0008B41E36110B0F0BDF0B5B7B0089309921D
:1054D0000C461591074616A8182101F0C9FE0020B8
:1054E00014901D9001201C903846FFF77DFE13900C
:1054F0002046FFF779FE12903E683C1D1CCC3869AF
:105500000C907869BD69F9690B921F920A961E96F4
:10551000069421940C9A079320930590239022924D
:10552000039125910495249513981299401A13908C
:1055300015983946FFF79CFE1EAB1D4618353946B7
:1055400018311E4610363A46103208330837002804
:1055500012D00A98089C20600B98606009CFE36025
:10556000A06005CA6261206103C9E161A0612021D8
:10557000099801F07DFEDDE0009601950293149CF0
:105580002EAA159E3046139D2946FFF701FD16A849
:1055900026AA2946FFF7FCFC2F9802460B9D6A407D
:1055A0002E990B460A9F7B401343002B22D1309843
:1055B0000246079F7A4031990B46069E734013437B
:1055C000002B00D0B8E0329802460C9D6A40339B15
:1055D000139305994B401343002B2746089C159EB7
:1055E00000D0B2E035983499049A511A0399814158
:1055F00008D312E02B463A46791A294681412746BC
:10560000089C0AD201252EA829460246FFF77EFDF6
:1056100026A829460246FFF779FD1EA83146FFF766
:105620005AFE002839463D463E463A463B461397C9
:105630001297099865D026AC2646183627461037AB
:10564000083400201290119010900F900E9014903A
:1056500013900D901EA82EA9FFF73DFE002824D020
:105660002EA91EA80246FFF766FE03CE129A0A4331
:10567000129213990143139103CF109A0A43109287
:1056800011990143119103CC0E9A0A430E920F997E
:1056900001430F9127980D9901430D912698149974
:1056A00001431491083C083F083E01252EA82946D5
:1056B0000246FFF72BFD26A829460246FFF726FDE6
:1056C0001EA81599FFF707FE0028C3D101980168AD
:1056D000049140680390009801680C91406805901F
:1056E000029804680794406806901F980B901E98D3
:1056F0000A90089C0998149F119A109B0F9D0E9E6A
:105700000D990760071D62C70261436113998161AA
:105710001299C1610A9820600B9860600798A06098
:105720000698E0600C982061059860610498A0617B
:105730000398E06137B0F0BD381A304688412746FB
:10574000089C159E00D25DE767E7281A0846139962
:10575000884100D256E760E7F0B5A3B00393099201
:105760000591BEC8066840681B921A911D941C934F
:105770001F971E952190209612A8202101F078FDF8
:105780000AA8182101F074FD002011901AA90A46F8
:10579000183207920A46103206920831089105998C
:1057A0001091891E0E294AD802902898019012A8BB
:1057B000183004900398401E05900120C643771CC2
:1057C000B01C0599884239D80AA91AA812AB02461A
:1057D000FFF77AFE0998811904980078194A7A44EB
:1057E000105C887007990CC9069C12CC1C43089D5C
:1057F00028CD25431B9C2C43114319431A9A0A4375
:105800002243761C7F1C002ADAD1099CA1190022B0
:105810008A70B11C002F0DD022782070E255022E24
:1058200008D30120225CA35D2354A255761E401CA0
:10583000B042F7D301980160012000E0029823B044
:10584000F0BDC046D22A0000F0B5C7B00393029263
:10585000049106903EAF202638460597314601F068
:1058600007FD36A80790314601F002FD2EAD28460F
:10587000314601F0FDFC26AC2046314601F0F8FC33
:105880000026219620961F961E9606983946FFF709
:105890001DFB25964D482490239622961EAF059811
:1058A00039462A462346FFF70FFE28463946079F0A
:1058B0003A462346FFF708FE08AC4E2520463146FF
:1058C0002A46FCF7F2F91DA8694608600A21384605
:1058D00022462B46FFF740FF002873D00024049D8A
:1058E00028462146029AFCF7E0F91D9F08A92846A0
:1058F0003A46FCF7C4F9039807602D982C990143A8
:1059000000290FD12B982A99014300290AD12998FF
:1059100028990143002905D127982699014301269A
:1059200000294FD008AD4E26284621463246FCF7C6
:10593000BCF91CA86946086026A80A212A463346F5
:10594000FFF70AFF00283CD01C9D681E07E008A94D
:10595000095C302905D108A900220A54401E0028FC
:10596000F5DA2E200499C855039A1068411C11607D
:105970000A30092D25D802998842264622D80920C6
:10598000441B0498C019401C30212246FCF78DF9B5
:10599000039E3068001930600A37781B04990C1890
:1059A00008AD284601F018FD024620462946FCF7BE
:1059B00066F9284601F010FD3168081830600126AC
:1059C00000E02646304647B0F0BDC04600CA9A3BCC
:1059D000F0B5A9B00025202968D813460E4621AF9E
:1059E0000025202401903846294622460293FCF7E0
:1059F0005CF9A01B381801993246FCF740F904AE57
:105A00003046214601F034FC38463146FFF75EFA55
:105A10000DAC4E27204629463A46FCF746F903A826
:105A2000694608600A21304622463B46FFF794FE4D
:105A3000029B00283AD0039C601E0025002808DB4A
:105A400000250DA9095C302903D1401E6D1C0028DA
:105A5000F7DA2046123801282BDB1120001B012128
:105A6000C943884200DC08462218103A0DA918469E
:105A700001F004FC204611380026401E761C012847
:105A8000FBDC2E20029B9855771C2246641BA64205
:105A900009D2D8190DA98919921B521B01F0EEFBEE
:105AA000029BE019871B0020D8550125284629B004
:105AB000F0BD002812D02E2058703020187012200F
:105AC000011B002602270129DFDB981C302201F090
:105AD000D9FB029B1420071B0026D6E72E20587006
